{
  "contractName": "GoArtCampaign",
  "abi": [
    {
      "inputs": [],
      "stateMutability": "nonpayable",
      "type": "constructor"
    },
    {
      "anonymous": false,
      "inputs": [
        {
          "indexed": false,
          "internalType": "uint256",
          "name": "totalAmount",
          "type": "uint256"
        },
        {
          "indexed": false,
          "internalType": "uint256",
          "name": "participantIndex",
          "type": "uint256"
        }
      ],
      "name": "MTEPointSwapped",
      "type": "event"
    },
    {
      "anonymous": false,
      "inputs": [
        {
          "indexed": false,
          "internalType": "uint256",
          "name": "amount",
          "type": "uint256"
        },
        {
          "indexed": false,
          "internalType": "uint256",
          "name": "participantIndex",
          "type": "uint256"
        }
      ],
      "name": "MaticWithdrawn",
      "type": "event"
    },
    {
      "anonymous": false,
      "inputs": [
        {
          "indexed": false,
          "internalType": "uint256",
          "name": "index",
          "type": "uint256"
        }
      ],
      "name": "ParticipantCollectiblesUpdated",
      "type": "event"
    },
    {
      "anonymous": false,
      "inputs": [
        {
          "indexed": false,
          "internalType": "uint256",
          "name": "index",
          "type": "uint256"
        },
        {
          "indexed": false,
          "internalType": "string",
          "name": "uid",
          "type": "string"
        }
      ],
      "name": "ParticipantIdUpdated",
      "type": "event"
    },
    {
      "anonymous": false,
      "inputs": [
        {
          "indexed": false,
          "internalType": "address",
          "name": "walletAddress",
          "type": "address"
        },
        {
          "indexed": false,
          "internalType": "string",
          "name": "userId",
          "type": "string"
        },
        {
          "indexed": false,
          "internalType": "uint256",
          "name": "participantIndex",
          "type": "uint256"
        }
      ],
      "name": "ParticipantRegistered",
      "type": "event"
    },
    {
      "anonymous": false,
      "inputs": [
        {
          "indexed": false,
          "internalType": "uint8",
          "name": "state",
          "type": "uint8"
        }
      ],
      "name": "StateChanged",
      "type": "event"
    },
    {
      "inputs": [
        {
          "internalType": "uint256",
          "name": "",
          "type": "uint256"
        }
      ],
      "name": "admins",
      "outputs": [
        {
          "internalType": "address",
          "name": "",
          "type": "address"
        }
      ],
      "stateMutability": "view",
      "type": "function"
    },
    {
      "inputs": [],
      "name": "fee",
      "outputs": [
        {
          "internalType": "uint256",
          "name": "",
          "type": "uint256"
        }
      ],
      "stateMutability": "view",
      "type": "function"
    },
    {
      "inputs": [
        {
          "internalType": "address",
          "name": "",
          "type": "address"
        }
      ],
      "name": "isAdmin",
      "outputs": [
        {
          "internalType": "bool",
          "name": "",
          "type": "bool"
        }
      ],
      "stateMutability": "view",
      "type": "function"
    },
    {
      "inputs": [],
      "name": "maxRewardTotal",
      "outputs": [
        {
          "internalType": "uint256",
          "name": "",
          "type": "uint256"
        }
      ],
      "stateMutability": "view",
      "type": "function"
    },
    {
      "inputs": [],
      "name": "minimumAmountToWithdraw",
      "outputs": [
        {
          "internalType": "uint256",
          "name": "",
          "type": "uint256"
        }
      ],
      "stateMutability": "view",
      "type": "function"
    },
    {
      "inputs": [
        {
          "internalType": "uint256",
          "name": "",
          "type": "uint256"
        }
      ],
      "name": "participants",
      "outputs": [
        {
          "internalType": "string",
          "name": "userId",
          "type": "string"
        },
        {
          "internalType": "address payable",
          "name": "walletAddress",
          "type": "address"
        },
        {
          "internalType": "uint256",
          "name": "claimed",
          "type": "uint256"
        },
        {
          "internalType": "uint256",
          "name": "claimable",
          "type": "uint256"
        }
      ],
      "stateMutability": "view",
      "type": "function"
    },
    {
      "inputs": [],
      "name": "ratio",
      "outputs": [
        {
          "internalType": "uint256",
          "name": "",
          "type": "uint256"
        }
      ],
      "stateMutability": "view",
      "type": "function"
    },
    {
      "inputs": [],
      "name": "state",
      "outputs": [
        {
          "internalType": "enum GoArtCampaign.State",
          "name": "",
          "type": "uint8"
        }
      ],
      "stateMutability": "view",
      "type": "function"
    },
    {
      "inputs": [],
      "name": "totalDistributedReward",
      "outputs": [
        {
          "internalType": "uint256",
          "name": "",
          "type": "uint256"
        }
      ],
      "stateMutability": "view",
      "type": "function"
    },
    {
      "inputs": [],
      "name": "treasuryWallet",
      "outputs": [
        {
          "internalType": "address payable",
          "name": "",
          "type": "address"
        }
      ],
      "stateMutability": "view",
      "type": "function"
    },
    {
      "inputs": [
        {
          "internalType": "string",
          "name": "",
          "type": "string"
        }
      ],
      "name": "userIdsRegistered",
      "outputs": [
        {
          "internalType": "bool",
          "name": "",
          "type": "bool"
        }
      ],
      "stateMutability": "view",
      "type": "function"
    },
    {
      "inputs": [
        {
          "internalType": "address",
          "name": "",
          "type": "address"
        }
      ],
      "name": "walletsRegistered",
      "outputs": [
        {
          "internalType": "bool",
          "name": "",
          "type": "bool"
        }
      ],
      "stateMutability": "view",
      "type": "function"
    },
    {
      "inputs": [
        {
          "internalType": "address",
          "name": "_adminAddress",
          "type": "address"
        }
      ],
      "name": "addAdmin",
      "outputs": [],
      "stateMutability": "nonpayable",
      "type": "function"
    },
    {
      "inputs": [
        {
          "internalType": "address",
          "name": "_adminAddress",
          "type": "address"
        }
      ],
      "name": "removeAdmin",
      "outputs": [],
      "stateMutability": "nonpayable",
      "type": "function"
    },
    {
      "inputs": [],
      "name": "getAllAdmins",
      "outputs": [
        {
          "internalType": "address[]",
          "name": "",
          "type": "address[]"
        }
      ],
      "stateMutability": "view",
      "type": "function"
    },
    {
      "inputs": [
        {
          "internalType": "uint8",
          "name": "_state",
          "type": "uint8"
        }
      ],
      "name": "changeState",
      "outputs": [],
      "stateMutability": "nonpayable",
      "type": "function"
    },
    {
      "inputs": [],
      "name": "getState",
      "outputs": [
        {
          "internalType": "enum GoArtCampaign.State",
          "name": "",
          "type": "uint8"
        }
      ],
      "stateMutability": "view",
      "type": "function"
    },
    {
      "inputs": [
        {
          "internalType": "uint256",
          "name": "_maxReward",
          "type": "uint256"
        }
      ],
      "name": "changeMaxReward",
      "outputs": [],
      "stateMutability": "nonpayable",
      "type": "function"
    },
    {
      "inputs": [
        {
          "internalType": "uint256",
          "name": "_ratio",
          "type": "uint256"
        }
      ],
      "name": "changeRatio",
      "outputs": [],
      "stateMutability": "nonpayable",
      "type": "function"
    },
    {
      "inputs": [
        {
          "internalType": "address payable",
          "name": "walletAddress",
          "type": "address"
        },
        {
          "internalType": "string",
          "name": "userId",
          "type": "string"
        }
      ],
      "name": "registerWallet",
      "outputs": [],
      "stateMutability": "nonpayable",
      "type": "function"
    },
    {
      "inputs": [
        {
          "internalType": "uint256",
          "name": "_MTEPointsItemAmount",
          "type": "uint256"
        },
        {
          "internalType": "uint256",
          "name": "_participantIndex",
          "type": "uint256"
        }
      ],
      "name": "swapMTEPointsToMatic",
      "outputs": [],
      "stateMutability": "nonpayable",
      "type": "function"
    },
    {
      "inputs": [],
      "name": "getAllParticipants",
      "outputs": [
        {
          "components": [
            {
              "internalType": "string",
              "name": "userId",
              "type": "string"
            },
            {
              "internalType": "address payable",
              "name": "walletAddress",
              "type": "address"
            },
            {
              "internalType": "uint256",
              "name": "claimed",
              "type": "uint256"
            },
            {
              "internalType": "uint256",
              "name": "claimable",
              "type": "uint256"
            }
          ],
          "internalType": "struct GoArtCampaign.Participant[]",
          "name": "",
          "type": "tuple[]"
        }
      ],
      "stateMutability": "view",
      "type": "function"
    },
    {
      "inputs": [
        {
          "internalType": "uint256",
          "name": "_participantIndex",
          "type": "uint256"
        }
      ],
      "name": "withdrawMaticTokens",
      "outputs": [],
      "stateMutability": "payable",
      "type": "function"
    },
    {
      "inputs": [
        {
          "internalType": "uint256",
          "name": "_fee",
          "type": "uint256"
        }
      ],
      "name": "setServiceFee",
      "outputs": [],
      "stateMutability": "nonpayable",
      "type": "function"
    },
    {
      "inputs": [],
      "name": "getServiceFee",
      "outputs": [
        {
          "internalType": "uint256",
          "name": "",
          "type": "uint256"
        }
      ],
      "stateMutability": "view",
      "type": "function"
    },
    {
      "inputs": [],
      "name": "getMaxRewardTotal",
      "outputs": [
        {
          "internalType": "uint256",
          "name": "",
          "type": "uint256"
        }
      ],
      "stateMutability": "view",
      "type": "function"
    },
    {
      "inputs": [
        {
          "internalType": "uint256",
          "name": "_minimumAmount",
          "type": "uint256"
        }
      ],
      "name": "setMinimumAmount",
      "outputs": [],
      "stateMutability": "nonpayable",
      "type": "function"
    },
    {
      "inputs": [],
      "name": "getMinimumAmount",
      "outputs": [
        {
          "internalType": "uint256",
          "name": "",
          "type": "uint256"
        }
      ],
      "stateMutability": "view",
      "type": "function"
    },
    {
      "inputs": [],
      "name": "getTotalDisributedReward",
      "outputs": [
        {
          "internalType": "uint256",
          "name": "",
          "type": "uint256"
        }
      ],
      "stateMutability": "view",
      "type": "function"
    },
    {
      "inputs": [
        {
          "internalType": "address",
          "name": "_walletAddress",
          "type": "address"
        }
      ],
      "name": "walletRegistered",
      "outputs": [
        {
          "internalType": "bool",
          "name": "",
          "type": "bool"
        }
      ],
      "stateMutability": "view",
      "type": "function"
    },
    {
      "inputs": [
        {
          "internalType": "string",
          "name": "_uuid",
          "type": "string"
        }
      ],
      "name": "userRegistered",
      "outputs": [
        {
          "internalType": "bool",
          "name": "",
          "type": "bool"
        }
      ],
      "stateMutability": "view",
      "type": "function"
    },
    {
      "inputs": [
        {
          "internalType": "address",
          "name": "_walletAddress",
          "type": "address"
        }
      ],
      "name": "changeTreasuryWallet",
      "outputs": [],
      "stateMutability": "nonpayable",
      "type": "function"
    },
    {
      "inputs": [
        {
          "internalType": "uint256",
          "name": "index",
          "type": "uint256"
        }
      ],
      "name": "getParticipant",
      "outputs": [
        {
          "components": [
            {
              "internalType": "string",
              "name": "userId",
              "type": "string"
            },
            {
              "internalType": "address payable",
              "name": "walletAddress",
              "type": "address"
            },
            {
              "internalType": "uint256",
              "name": "claimed",
              "type": "uint256"
            },
            {
              "internalType": "uint256",
              "name": "claimable",
              "type": "uint256"
            }
          ],
          "internalType": "struct GoArtCampaign.Participant",
          "name": "",
          "type": "tuple"
        }
      ],
      "stateMutability": "view",
      "type": "function"
    },
    {
      "inputs": [],
      "name": "getTotalParticipants",
      "outputs": [
        {
          "internalType": "uint256",
          "name": "",
          "type": "uint256"
        }
      ],
      "stateMutability": "view",
      "type": "function"
    },
    {
      "inputs": [
        {
          "internalType": "uint256",
          "name": "index",
          "type": "uint256"
        },
        {
          "internalType": "uint256",
          "name": "claimed",
          "type": "uint256"
        },
        {
          "internalType": "uint256",
          "name": "claimable",
          "type": "uint256"
        }
      ],
      "name": "updateParticipantClaims",
      "outputs": [],
      "stateMutability": "nonpayable",
      "type": "function"
    },
    {
      "inputs": [
        {
          "internalType": "uint256",
          "name": "index",
          "type": "uint256"
        },
        {
          "internalType": "string",
          "name": "uid",
          "type": "string"
        }
      ],
      "name": "updateParticipantId",
      "outputs": [],
      "stateMutability": "nonpayable",
      "type": "function"
    }
  ],
  "bytecode": "0x60806040526000805460ff19166001908117909155692a5a058fc295ed000000905567016345785d8a0000600455670de0b6b3a7640000600555600a60065534801561004a57600080fd5b5060038054336001600160a01b031991821681179092556008805460018181019092557ff3f7a9fe364faab93b216da50a3214154f22a0a2b415b23a84c8169e8b636ee301805490921683179091556000918252600b60205260408220805460ff191690911790556002556120f6806100c46000396000f3fe60806040526004361061020f5760003560e01c8063581b0f7011610118578063ac2c9c0f116100a0578063deaa8afd1161006f578063deaa8afd14610639578063e9523c971461064f578063eeb4a9c814610671578063f6a3325314610691578063fb7ed3c8146106b157600080fd5b8063ac2c9c0f146105b0578063c0bc2bdf146105e9578063c19d93fb14610609578063ddca3f431461062357600080fd5b806371ca337d116100e757806371ca337d14610545578063949fe3ae1461055b5780639753ba9a14610570578063a82dbaeb14610586578063a90cc4451461059b57600080fd5b8063581b0f70146104d05780635cdf76f8146104f057806362066eb314610510578063704802751461052557600080fd5b80631dd1bff11161019b578063268f11531161016a578063268f1153146104205780632d38c2ef1461044057806335c1d349146104605780634626402b14610490578063537c1ac7146104b057600080fd5b80631dd1bff1146103805780631f34556a146103b057806321c81c00146103d057806324d7806c146103f057600080fd5b806314bfd6d0116101e257806314bfd6d0146102b85780631785f53c146102f05780631865c57d14610310578063195ec9ee146103315780631b9db2ef1461035357600080fd5b80630c2171c3146102145780630ef306f41461026457806311a1933c14610279578063140ac06214610298575b600080fd5b34801561022057600080fd5b5061024f61022f366004611ba5565b8051602081830181018051600a8252928201919093012091525460ff1681565b60405190151581526020015b60405180910390f35b610277610272366004611be2565b6106c7565b005b34801561028557600080fd5b506004545b60405190815260200161025b565b3480156102a457600080fd5b506102776102b3366004611bfb565b6109ff565b3480156102c457600080fd5b506102d86102d3366004611be2565b610b0a565b6040516001600160a01b03909116815260200161025b565b3480156102fc57600080fd5b5061027761030b366004611c5a565b610b34565b34801561031c57600080fd5b5060005460ff165b60405161025b9190611c8d565b34801561033d57600080fd5b50610346610d6b565b60405161025b9190611d58565b34801561035f57600080fd5b5061037361036e366004611be2565b610e89565b60405161025b9190611dba565b34801561038c57600080fd5b5061024f61039b366004611c5a565b60096020526000908152604090205460ff1681565b3480156103bc57600080fd5b506102776103cb366004611be2565b610fa9565b3480156103dc57600080fd5b5061024f6103eb366004611ba5565b610fdd565b3480156103fc57600080fd5b5061024f61040b366004611c5a565b600b6020526000908152604090205460ff1681565b34801561042c57600080fd5b5061027761043b366004611dcd565b611008565b34801561044c57600080fd5b5061027761045b366004611df0565b6110fa565b34801561046c57600080fd5b5061048061047b366004611be2565b6112ab565b60405161025b9493929190611e12565b34801561049c57600080fd5b506003546102d8906001600160a01b031681565b3480156104bc57600080fd5b506102776104cb366004611c5a565b61137f565b3480156104dc57600080fd5b506102776104eb366004611e4a565b6113d0565b3480156104fc57600080fd5b5061027761050b366004611be2565b611467565b34801561051c57600080fd5b5060055461028a565b34801561053157600080fd5b50610277610540366004611c5a565b61149b565b34801561055157600080fd5b5061028a60065481565b34801561056757600080fd5b5060025461028a565b34801561057c57600080fd5b5061028a60055481565b34801561059257600080fd5b5060015461028a565b3480156105a757600080fd5b5060075461028a565b3480156105bc57600080fd5b5061024f6105cb366004611c5a565b6001600160a01b031660009081526009602052604090205460ff1690565b3480156105f557600080fd5b50610277610604366004611e76565b611603565b34801561061557600080fd5b506000546103249060ff1681565b34801561062f57600080fd5b5061028a60045481565b34801561064557600080fd5b5061028a60025481565b34801561065b57600080fd5b506106646118b8565b60405161025b9190611eb0565b34801561067d57600080fd5b5061027761068c366004611be2565b61191a565b34801561069d57600080fd5b506102776106ac366004611be2565b61194e565b3480156106bd57600080fd5b5061028a60015481565b336000908152600b602052604090205460ff166106ff5760405162461bcd60e51b81526004016106f690611efd565b60405180910390fd5b600260005460ff16600281111561071857610718611c77565b141561077a5760405162461bcd60e51b815260206004820152602b60248201527f436f6e74726163742069732066696e616c697a65642e20596f752063616e6e6f60448201526a742077697468647261772160a81b60648201526084016106f6565b6005543410156107f4576040805162461bcd60e51b81526020600482015260248101919091527f596f752063616e207769746864726177206d696e696d756d2031204d4154494360448201527f2e20416e797468696e672062656c6f77206973206e6f7420616c6c6f7765642e60648201526084016106f6565b600061080b6004543461198290919063ffffffff16565b90506001543460025461081e9190611f41565b11156108a55760405162461bcd60e51b815260206004820152604a60248201527f476976656e20616d6f756e7420657863656564732074686520746f74616c207260448201527f657761726420746f2062652064697374726962757465642066726f6d207468696064820152691cc818dbdb9d1c9858dd60b21b608482015260a4016106f6565b6000600783815481106108ba576108ba611f59565b9060005260206000209060040201905060006108e383836003015461198290919063ffffffff16565b10156109575760405162461bcd60e51b815260206004820152603e60248201527f576974686472617720616d6f756e742063616e6e6f742062652067726561746560448201527f72207468616e20746f74616c20636c61696d61626c6520616d6f756e7421000060648201526084016106f6565b60038101546109669034611982565b6003820155600281015461097a9034611995565b60028201556001810154610997906001600160a01b0316836119a1565b6003546004546109b0916001600160a01b0316906119a1565b6002546109bd9034611995565b60025560408051348152602081018590527f97ca5fc2126c470f78664e5b1f9c6e61d1b1a2acdb9c001cf9afa1c755126e1091015b60405180910390a1505050565b336000908152600b602052604090205460ff16610a2e5760405162461bcd60e51b81526004016106f690611efd565b600a81604051610a3e9190611f6f565b9081526040519081900360200190205460ff1615610a6e5760405162461bcd60e51b81526004016106f690611f8b565b600060078381548110610a8357610a83611f59565b600091825260209182902084516004909202019250610aa791839190850190611a69565b506001600a83604051610aba9190611f6f565b908152604051908190036020018120805492151560ff19909316929092179091557fbd784f74ed5d28b8aab99a817ab7c52f133cca0e05b99f5d0632ee0cdf337b9a906109f29085908590611fce565b60088181548110610b1a57600080fd5b6000918252602090912001546001600160a01b0316905081565b336000908152600b602052604090205460ff16610b635760405162461bcd60e51b81526004016106f690611efd565b6001600160a01b0381166000908152600b602052604090205460ff16610b8857600080fd5b600854600110610c005760405162461bcd60e51b815260206004820152603a60248201527f43616e206e6f742072656d6f766520616c6c2061646d696e732073696e63652060448201527f636f6e7472616374206265636f6d657320756e757361626c652e00000000000060648201526084016106f6565b60005b816001600160a01b031660088281548110610c2057610c20611f59565b6000918252602090912001546001600160a01b031614610caa57600854811415610c985760405162461bcd60e51b815260206004820152602360248201527f5061737365642061646d696e206164647265737320646f6573206e6f742065786044820152621a5cdd60ea1b60648201526084016106f6565b80610ca281611fe7565b915050610c03565b60088054610cba90600190612002565b81548110610cca57610cca611f59565b600091825260209091200154600880546001600160a01b039092169183908110610cf657610cf6611f59565b600091825260208083209190910180546001600160a01b0319166001600160a01b039485161790559184168152600b90915260409020805460ff191690556008805480610d4557610d45612019565b600082815260209020810160001990810180546001600160a01b03191690550190555050565b60606007805480602002602001604051908101604052809291908181526020016000905b82821015610e805783829060005260206000209060040201604051806080016040529081600082018054610dc29061202f565b80601f0160208091040260200160405190810160405280929190818152602001828054610dee9061202f565b8015610e3b5780601f10610e1057610100808354040283529160200191610e3b565b820191906000526020600020905b815481529060010190602001808311610e1e57829003601f168201915b50505091835250506001828101546001600160a01b03166020808401919091526002840154604084015260039093015460609092019190915291835292019101610d8f565b50505050905090565b610ebd60405180608001604052806060815260200160006001600160a01b0316815260200160008152602001600081525090565b60078281548110610ed057610ed0611f59565b9060005260206000209060040201604051806080016040529081600082018054610ef99061202f565b80601f0160208091040260200160405190810160405280929190818152602001828054610f259061202f565b8015610f725780601f10610f4757610100808354040283529160200191610f72565b820191906000526020600020905b815481529060010190602001808311610f5557829003601f168201915b505050918352505060018201546001600160a01b031660208201526002820154604082015260039091015460609091015292915050565b336000908152600b602052604090205460ff16610fd85760405162461bcd60e51b81526004016106f690611efd565b600155565b6000600a82604051610fef9190611f6f565b9081526040519081900360200190205460ff1692915050565b336000908152600b602052604090205460ff166110375760405162461bcd60e51b81526004016106f690611efd565b600260ff8216111561108b5760405162461bcd60e51b815260206004820181905260248201527f476976656e207374617465206973206e6f7420612076616c696420737461746560448201526064016106f6565b8060ff1660028111156110a0576110a0611c77565b6000805460ff191660018360028111156110bc576110bc611c77565b021790555060405160ff821681527f551dc40198cc79684bb69e4931dba4ac16e4598792ee1c0a5000aeea366d7bb69060200160405180910390a150565b336000908152600b602052604090205460ff166111295760405162461bcd60e51b81526004016106f690611efd565b600260005460ff16600281111561114257611142611c77565b14156111a05760405162461bcd60e51b815260206004820152602760248201527f436f6e74726163742069732066696e616c697a65642e20596f752063616e6e6f6044820152667420737761702160c81b60648201526084016106f6565b600082116112165760405162461bcd60e51b815260206004820152603c60248201527f5f4d5445506f696e74734974656d416d6f756e7420746f20626520737761707060448201527f65642068617320746f2062652067726561746572207468616e20302e0000000060648201526084016106f6565b60006007828154811061122b5761122b611f59565b90600052602060002090600402019050600061125260065485611a5d90919063ffffffff16565b60038301549091506112649082611995565b6003830181905560408051918252602082018590527f762eb2e0b8ccc6c14a3127cb66f7466070d289ba39755205ab99499fff9c506291015b60405180910390a150505050565b600781815481106112bb57600080fd5b90600052602060002090600402016000915090508060000180546112de9061202f565b80601f016020809104026020016040519081016040528092919081815260200182805461130a9061202f565b80156113575780601f1061132c57610100808354040283529160200191611357565b820191906000526020600020905b81548152906001019060200180831161133a57829003601f168201915b505050506001830154600284015460039094015492936001600160a01b039091169290915084565b336000908152600b602052604090205460ff166113ae5760405162461bcd60e51b81526004016106f690611efd565b600380546001600160a01b0319166001600160a01b0392909216919091179055565b336000908152600b602052604090205460ff166113ff5760405162461bcd60e51b81526004016106f690611efd565b60006007848154811061141457611414611f59565b906000526020600020906004020190508281600201819055508181600301819055507f84c823d9cfa99156db248aa33669ab681408dc5c65c033ca7a695e61e5925f9e8460405161129d91815260200190565b336000908152600b602052604090205460ff166114965760405162461bcd60e51b81526004016106f690611efd565b600455565b336000908152600b602052604090205460ff166114ca5760405162461bcd60e51b81526004016106f690611efd565b6001600160a01b0381166115335760405162461bcd60e51b815260206004820152602a60248201527f5b524241435d203a2041646d696e206d75737420626520213d207468616e20306044820152697830206164647265737360b01b60648201526084016106f6565b6001600160a01b0381166000908152600b602052604090205460ff161561159c5760405162461bcd60e51b815260206004820152601e60248201527f5b524241435d203a2041646d696e20616c7265616479206578697374732e000060448201526064016106f6565b6008805460018181019092557ff3f7a9fe364faab93b216da50a3214154f22a0a2b415b23a84c8169e8b636ee30180546001600160a01b039093166001600160a01b0319909316831790556000918252600b6020526040909120805460ff19169091179055565b336000908152600b602052604090205460ff166116325760405162461bcd60e51b81526004016106f690611efd565b6000805460ff16600281111561164a5761164a611c77565b146116ae5760405162461bcd60e51b815260206004820152602e60248201527f436f6e7472616374206973206e6f7420696e206163746976652073746174652060448201526d617420746865206d6f6d656e742160901b60648201526084016106f6565b6001600160a01b03821660009081526009602052604090205460ff161561172e5760405162461bcd60e51b815260206004820152602e60248201527f546869732077616c6c657420686173206265656e207573656420746f2072656760448201526d34b9ba32b91032b0b93634b2b91760911b60648201526084016106f6565b600a8160405161173e9190611f6f565b9081526040519081900360200190205460ff161561176e5760405162461bcd60e51b81526004016106f690611f8b565b6001600160a01b03821660009081526009602052604090819020805460ff191660019081179091559051600a906117a6908490611f6f565b9081526040805160209281900383018120805460ff1916941515949094179093556080830181528383526001600160a01b038516828401526000908301819052606083018190526007805460018101825591528251805184937fa66cc928b5edb82af9bd49922954155ab7b0942694bea4ce44661d9a8736c68860049094029390930192611838928492910190611a69565b506020820151600182810180546001600160a01b0319166001600160a01b0390931692909217909155604083015160028301556060909201516003909101556007547f180ca236964eb44f7a80db451e81e467b5de50df3f83d795d13e28cc609444d391859185916118a991612002565b6040516109f29392919061206a565b6060600880548060200260200160405190810160405280929190818152602001828054801561191057602002820191906000526020600020905b81546001600160a01b031681526001909101906020018083116118f2575b5050505050905090565b336000908152600b602052604090205460ff166119495760405162461bcd60e51b81526004016106f690611efd565b600555565b336000908152600b602052604090205460ff1661197d5760405162461bcd60e51b81526004016106f690611efd565b600655565b600061198e8284612002565b9392505050565b600061198e8284611f41565b6000826001600160a01b03168260405160006040518083038185875af1925050503d80600081146119ee576040519150601f19603f3d011682016040523d82523d6000602084013e6119f3565b606091505b5050905080611a585760405162461bcd60e51b815260206004820152602b60248201527f5472616e73666572206661696c656420647572696e672073656e64696e67204d60448201526a6174696320746f6b656e7360a81b60648201526084016106f6565b505050565b600061198e828461209e565b828054611a759061202f565b90600052602060002090601f016020900481019282611a975760008555611add565b82601f10611ab057805160ff1916838001178555611add565b82800160010185558215611add579182015b82811115611add578251825591602001919060010190611ac2565b50611ae9929150611aed565b5090565b5b80821115611ae95760008155600101611aee565b634e487b7160e01b600052604160045260246000fd5b600082601f830112611b2957600080fd5b813567ffffffffffffffff80821115611b4457611b44611b02565b604051601f8301601f19908116603f01168101908282118183101715611b6c57611b6c611b02565b81604052838152866020858801011115611b8557600080fd5b836020870160208301376000602085830101528094505050505092915050565b600060208284031215611bb757600080fd5b813567ffffffffffffffff811115611bce57600080fd5b611bda84828501611b18565b949350505050565b600060208284031215611bf457600080fd5b5035919050565b60008060408385031215611c0e57600080fd5b82359150602083013567ffffffffffffffff811115611c2c57600080fd5b611c3885828601611b18565b9150509250929050565b6001600160a01b0381168114611c5757600080fd5b50565b600060208284031215611c6c57600080fd5b813561198e81611c42565b634e487b7160e01b600052602160045260246000fd5b6020810160038310611caf57634e487b7160e01b600052602160045260246000fd5b91905290565b60005b83811015611cd0578181015183820152602001611cb8565b83811115611cdf576000848401525b50505050565b60008151808452611cfd816020860160208601611cb5565b601f01601f19169290920160200192915050565b6000815160808452611d266080850182611ce5565b6020848101516001600160a01b0316908601526040808501519086015260609384015193909401929092525090919050565b6000602080830181845280855180835260408601915060408160051b870101925083870160005b82811015611dad57603f19888603018452611d9b858351611d11565b94509285019290850190600101611d7f565b5092979650505050505050565b60208152600061198e6020830184611d11565b600060208284031215611ddf57600080fd5b813560ff8116811461198e57600080fd5b60008060408385031215611e0357600080fd5b50508035926020909101359150565b608081526000611e256080830187611ce5565b6001600160a01b03959095166020830152506040810192909252606090910152919050565b600080600060608486031215611e5f57600080fd5b505081359360208301359350604090920135919050565b60008060408385031215611e8957600080fd5b8235611e9481611c42565b9150602083013567ffffffffffffffff811115611c2c57600080fd5b6020808252825182820181905260009190848201906040850190845b81811015611ef15783516001600160a01b031683529284019291840191600101611ecc565b50909695505050505050565b60208082526014908201527327b7363c9030b236b4b71031b0b71031b0b6361760611b604082015260600190565b634e487b7160e01b600052601160045260246000fd5b60008219821115611f5457611f54611f2b565b500190565b634e487b7160e01b600052603260045260246000fd5b60008251611f81818460208701611cb5565b9190910192915050565b60208082526023908201527f5468697320757365722069642069732072656769737465726564206561726c6960408201526232b91760e91b606082015260800190565b828152604060208201526000611bda6040830184611ce5565b6000600019821415611ffb57611ffb611f2b565b5060010190565b60008282101561201457612014611f2b565b500390565b634e487b7160e01b600052603160045260246000fd5b600181811c9082168061204357607f821691505b6020821081141561206457634e487b7160e01b600052602260045260246000fd5b50919050565b6001600160a01b038416815260606020820181905260009061208e90830185611ce5565b9050826040830152949350505050565b6000826120bb57634e487b7160e01b600052601260045260246000fd5b50049056fea264697066735822122062c36fdb15ca93a69cbe86bccd57407ad560dc7aa65f3c042bdfcf2c61138e5b64736f6c634300080b0033",
  "immutableReferences": {},
  "source": "// SPDX-License-Identifier: GPL-3.0\n\npragma solidity >=0.7.0 <0.9.0;\n\nimport '@openzeppelin/contracts/utils/math/SafeMath.sol';\n\n/**\n * @title GoArtCampaign\n * @dev Distribute MATIC tokens in exchange for GoArt MTE Points collected within in the GoArt game.\n */\ncontract GoArtCampaign {\n\t// using SafeMath to prevent underflow & overflow bugs\n\tusing SafeMath for uint256;\n\n\t// contract's states are defined here.\n\tenum State {\n\t\tActive,\n\t\tClosed,\n\t\tFinalized\n\t}\n\n\tState public state = State.Closed;\n\n\tuint256 public maxRewardTotal = 200000 ether;\n\tuint256 public totalDistributedReward;\n\n\t// funding wallet of the contract\n\taddress payable public treasuryWallet;\n\n\t// service cost set by us\n\tuint256 public fee = 0.1 ether;\n\n\t// min amount\n\tuint256 public minimumAmountToWithdraw = 1 ether;\n\n\t// point to reward ratio\n\tuint256 public ratio = 10;\n\n\t// Participant structure for players\n\tstruct Participant {\n\t\tstring userId;\n\t\taddress payable walletAddress;\n\t\tuint256 claimed;\n\t\tuint256 claimable;\n\t}\n\n\t// Store the participants in an array\n\tParticipant[] public participants;\n\n\t// Listing all admins\n\taddress[] public admins;\n\n\t// mappings to store registered wallet addresses\n\tmapping(address => bool) public walletsRegistered;\n\n\t// mappings to store registered userIds to prevent same user joining the campaign multiple times.\n\tmapping(string => bool) public userIdsRegistered;\n\n\t// Modifier for easier checking if user is admin\n\tmapping(address => bool) public isAdmin;\n\n\t// event for EVM logging\n\tevent ParticipantRegistered(address walletAddress, string userId, uint256 participantIndex);\n\tevent MTEPointSwapped(uint256 totalAmount, uint256 participantIndex);\n\tevent MaticWithdrawn(uint256 amount, uint256 participantIndex);\n\tevent StateChanged(uint8 state);\n\tevent ParticipantCollectiblesUpdated(uint256 index);\n\tevent ParticipantIdUpdated(uint256 index, string uid);\n\n\t// Modifier restricting access to only admin\n\tmodifier onlyAdmin() {\n\t\trequire(isAdmin[msg.sender], 'Only admin can call.');\n\t\t_;\n\t}\n\n\t// Constructor to set initial admins during deployment\n\tconstructor() {\n\t\ttreasuryWallet = payable(msg.sender);\n\t\tadmins.push(msg.sender);\n\t\tisAdmin[msg.sender] = true;\n\t\ttotalDistributedReward = 0;\n\t}\n\n\t// register a new admin with the given wallet address\n\tfunction addAdmin(address _adminAddress) external onlyAdmin {\n\t\t// Can't add 0x address as an admin\n\t\trequire(_adminAddress != address(0x0), '[RBAC] : Admin must be != than 0x0 address');\n\t\t// Can't add existing admin\n\t\trequire(!isAdmin[_adminAddress], '[RBAC] : Admin already exists.');\n\t\t// Add admin to array of admins\n\t\tadmins.push(_adminAddress);\n\t\t// Set mapping\n\t\tisAdmin[_adminAddress] = true;\n\t}\n\n\t// remove an existing admin address\n\tfunction removeAdmin(address _adminAddress) external onlyAdmin {\n\t\t// Admin has to exist\n\t\trequire(isAdmin[_adminAddress]);\n\t\trequire(admins.length > 1, 'Can not remove all admins since contract becomes unusable.');\n\t\tuint256 i = 0;\n\n\t\twhile (admins[i] != _adminAddress) {\n\t\t\tif (i == admins.length) {\n\t\t\t\trevert('Passed admin address does not exist');\n\t\t\t}\n\t\t\ti++;\n\t\t}\n\n\t\t// Copy the last admin position to the current index\n\t\tadmins[i] = admins[admins.length - 1];\n\n\t\tisAdmin[_adminAddress] = false;\n\n\t\t// Remove the last admin, since it's double present\n\t\tadmins.pop();\n\t}\n\n\t// Fetch all admins\n\tfunction getAllAdmins() external view returns (address[] memory) {\n\t\treturn admins;\n\t}\n\n\t// Change the current state of the contract\n\tfunction changeState(uint8 _state) external onlyAdmin {\n\t\trequire(_state <= uint8(State.Finalized), 'Given state is not a valid state');\n\t\t// change the state to given state index.\n\t\tstate = State(_state);\n\t\t// emit the changed state.\n\t\temit StateChanged(_state);\n\t}\n\n\t// See the current state\n\tfunction getState() public view returns (State) {\n\t\treturn state;\n\t}\n\n\t// Change the contract's max reward amount\n\tfunction changeMaxReward(uint256 _maxReward) external onlyAdmin {\n\t\tmaxRewardTotal = _maxReward;\n\t}\n\n\t// change award ration\n\tfunction changeRatio(uint256 _ratio) external onlyAdmin {\n\t\tratio = _ratio;\n\t}\n\n\t// register a user's wallet address if the contract is in Active state.\n\tfunction registerWallet(address payable walletAddress, string memory userId)\n\t\texternal\n\t\tonlyAdmin\n\t{\n\t\trequire(state == State.Active, 'Contract is not in active state at the moment!');\n\t\trequire(\n\t\t\t!walletsRegistered[walletAddress],\n\t\t\t'This wallet has been used to register earlier.'\n\t\t);\n\t\trequire(!userIdsRegistered[userId], 'This user id is registered earlier.');\n\n\t\twalletsRegistered[walletAddress] = true;\n\t\tuserIdsRegistered[userId] = true;\n\n\t\tParticipant memory participant = Participant(userId, walletAddress, 0, 0);\n\t\tparticipants.push(participant);\n\n\t\temit ParticipantRegistered(walletAddress, userId, participants.length - 1);\n\t}\n\n\t// A user's MTE points can be swapped to MATIC through this function.\n\tfunction swapMTEPointsToMatic(uint256 _MTEPointsItemAmount, uint256 _participantIndex)\n\t\texternal\n\t\tonlyAdmin\n\t{\n\t\trequire(state != State.Finalized, 'Contract is finalized. You cannot swap!');\n\t\trequire(\n\t\t\t_MTEPointsItemAmount > 0,\n\t\t\t'_MTEPointsItemAmount to be swapped has to be greater than 0.'\n\t\t);\n\n\t\tParticipant storage participant = participants[_participantIndex];\n\t\tuint256 maticAmount = _MTEPointsItemAmount.div(ratio);\n\t\tparticipant.claimable = participant.claimable.add(maticAmount);\n\n\t\temit MTEPointSwapped(participant.claimable, _participantIndex);\n\t}\n\n\t// return all participants\n\tfunction getAllParticipants() public view returns (Participant[] memory) {\n\t\treturn participants;\n\t}\n\n\tfunction sendMatic(address payable wallet, uint256 amount) internal {\n\t\t(bool success, ) = wallet.call{value: amount}('');\n\t\trequire(success, 'Transfer failed during sending Matic tokens');\n\t}\n\n\tfunction withdrawMaticTokens(uint256 _participantIndex) external payable onlyAdmin {\n\t\trequire(state != State.Finalized, 'Contract is finalized. You cannot withdraw!');\n\t\trequire(\n\t\t\tmsg.value >= minimumAmountToWithdraw,\n\t\t\t'You can withdraw minimum 1 MATIC. Anything below is not allowed.'\n\t\t);\n\n\t\tuint256 amountToBeWithdrawn = msg.value.sub(fee);\n\n\t\trequire(\n\t\t\ttotalDistributedReward + msg.value <= maxRewardTotal,\n\t\t\t'Given amount exceeds the total reward to be distributed from this contract'\n\t\t);\n\n\t\tParticipant storage participant = participants[_participantIndex];\n\t\trequire(\n\t\t\tparticipant.claimable.sub(amountToBeWithdrawn) >= 0,\n\t\t\t'Withdraw amount cannot be greater than total claimable amount!'\n\t\t);\n\n\t\t// subtract from claimable amount\n\t\tparticipant.claimable = participant.claimable.sub(msg.value);\n\n\t\t// increase the claimed amount with _amount\n\t\tparticipant.claimed = participant.claimed.add(msg.value);\n\n\t\t// transfer the funds\n\t\tsendMatic(participant.walletAddress, amountToBeWithdrawn);\n\t\t// get the service fee\n\t\tsendMatic(treasuryWallet, fee);\n\n\t\ttotalDistributedReward = totalDistributedReward.add(msg.value);\n\n\t\temit MaticWithdrawn(msg.value, _participantIndex);\n\t}\n\n\t// set service fee\n\tfunction setServiceFee(uint256 _fee) external onlyAdmin {\n\t\tfee = _fee;\n\t}\n\n\t// get service fee\n\tfunction getServiceFee() public view returns (uint256) {\n\t\treturn fee;\n\t}\n\n\t// get maximum reward total\n\tfunction getMaxRewardTotal() public view returns (uint256) {\n\t\treturn maxRewardTotal;\n\t}\n\n\t// set minimumAmount\n\tfunction setMinimumAmount(uint256 _minimumAmount) external onlyAdmin {\n\t\tminimumAmountToWithdraw = _minimumAmount;\n\t}\n\n\t// get minimum amount\n\tfunction getMinimumAmount() public view returns (uint256) {\n\t\treturn minimumAmountToWithdraw;\n\t}\n\n\t// get total distributed reward\n\tfunction getTotalDisributedReward() public view returns (uint256) {\n\t\treturn totalDistributedReward;\n\t}\n\n\t// check if a wallet is registered\n\tfunction walletRegistered(address _walletAddress) public view returns (bool) {\n\t\treturn walletsRegistered[_walletAddress];\n\t}\n\n\t// check if userId is registered\n\tfunction userRegistered(string memory _uuid) public view returns (bool) {\n\t\treturn userIdsRegistered[_uuid];\n\t}\n\n\t// change the funding wallet\n\tfunction changeTreasuryWallet(address _walletAddress) external onlyAdmin {\n\t\ttreasuryWallet = payable(_walletAddress);\n\t}\n\n\t// Participant functions\n\n\t// get a single participant by index\n\tfunction getParticipant(uint256 index) public view returns (Participant memory) {\n\t\treturn participants[index];\n\t}\n\n\t// get number of participants\n\tfunction getTotalParticipants() public view returns (uint256) {\n\t\treturn participants.length;\n\t}\n\n\t// update the participant\n\tfunction updateParticipantClaims(\n\t\tuint256 index,\n\t\tuint256 claimed,\n\t\tuint256 claimable\n\t) external onlyAdmin {\n\t\tParticipant storage participant = participants[index];\n\t\tparticipant.claimed = claimed;\n\t\tparticipant.claimable = claimable;\n\t\temit ParticipantCollectiblesUpdated(index);\n\t}\n\n\t// update userId in case of an emergency\n\tfunction updateParticipantId(uint256 index, string memory uid) external onlyAdmin {\n\t\trequire(!userIdsRegistered[uid], 'This user id is registered earlier.');\n\t\tParticipant storage participant = participants[index];\n\t\tparticipant.userId = uid;\n\t\tuserIdsRegistered[uid] = true;\n\t\temit ParticipantIdUpdated(index, uid);\n\t}\n}\n",
  "sourcePath": "/Users/tunahandag/Documents/RoofStacks/move-to-earn-event-smart-contracts/contracts/GoArtCampaign.sol",
  "compiler": {
    "name": "solc",
    "version": "0.8.11+commit.d7f03943.Emscripten.clang"
  },
  "schemaVersion": "3.4.4",
  "updatedAt": "2022-03-14T06:52:06.574Z",
  "devdoc": {
    "details": "Distribute MATIC tokens in exchange for GoArt MTE Points collected within in the GoArt game.",
    "kind": "dev",
    "methods": {},
    "title": "GoArtCampaign",
    "version": 1
  },
  "userdoc": {
    "kind": "user",
    "methods": {},
    "version": 1
  }
}