{
  "contractName": "GoArtCampaign",
  "abi": [
    {
      "inputs": [],
      "stateMutability": "nonpayable",
      "type": "constructor"
    },
    {
      "anonymous": false,
      "inputs": [
        {
          "indexed": false,
          "internalType": "uint256",
          "name": "totalAmount",
          "type": "uint256"
        },
        {
          "indexed": false,
          "internalType": "uint256",
          "name": "participantIndex",
          "type": "uint256"
        }
      ],
      "name": "CollectibleItemSwapped",
      "type": "event"
    },
    {
      "anonymous": false,
      "inputs": [
        {
          "indexed": false,
          "internalType": "uint256",
          "name": "amount",
          "type": "uint256"
        },
        {
          "indexed": false,
          "internalType": "uint256",
          "name": "participantIndex",
          "type": "uint256"
        }
      ],
      "name": "MaticWithdrawn",
      "type": "event"
    },
    {
      "anonymous": false,
      "inputs": [
        {
          "indexed": false,
          "internalType": "address",
          "name": "walletAddress",
          "type": "address"
        },
        {
          "indexed": false,
          "internalType": "string",
          "name": "userId",
          "type": "string"
        },
        {
          "indexed": false,
          "internalType": "uint256",
          "name": "participantIndex",
          "type": "uint256"
        }
      ],
      "name": "ParticipantRegistered",
      "type": "event"
    },
    {
      "inputs": [
        {
          "internalType": "uint256",
          "name": "",
          "type": "uint256"
        }
      ],
      "name": "admins",
      "outputs": [
        {
          "internalType": "address",
          "name": "",
          "type": "address"
        }
      ],
      "stateMutability": "view",
      "type": "function"
    },
    {
      "inputs": [],
      "name": "fundingWallet",
      "outputs": [
        {
          "internalType": "address payable",
          "name": "",
          "type": "address"
        }
      ],
      "stateMutability": "view",
      "type": "function"
    },
    {
      "inputs": [
        {
          "internalType": "address",
          "name": "",
          "type": "address"
        }
      ],
      "name": "isAdmin",
      "outputs": [
        {
          "internalType": "bool",
          "name": "",
          "type": "bool"
        }
      ],
      "stateMutability": "view",
      "type": "function"
    },
    {
      "inputs": [],
      "name": "maxRewardTotal",
      "outputs": [
        {
          "internalType": "uint256",
          "name": "",
          "type": "uint256"
        }
      ],
      "stateMutability": "view",
      "type": "function"
    },
    {
      "inputs": [
        {
          "internalType": "uint256",
          "name": "",
          "type": "uint256"
        }
      ],
      "name": "participants",
      "outputs": [
        {
          "internalType": "string",
          "name": "userId",
          "type": "string"
        },
        {
          "internalType": "address payable",
          "name": "walletAddress",
          "type": "address"
        },
        {
          "internalType": "uint256",
          "name": "claimed",
          "type": "uint256"
        },
        {
          "internalType": "uint256",
          "name": "claimable",
          "type": "uint256"
        }
      ],
      "stateMutability": "view",
      "type": "function"
    },
    {
      "inputs": [],
      "name": "state",
      "outputs": [
        {
          "internalType": "enum GoArtCampaign.State",
          "name": "",
          "type": "uint8"
        }
      ],
      "stateMutability": "view",
      "type": "function"
    },
    {
      "inputs": [],
      "name": "totalDistributedReward",
      "outputs": [
        {
          "internalType": "uint256",
          "name": "",
          "type": "uint256"
        }
      ],
      "stateMutability": "view",
      "type": "function"
    },
    {
      "inputs": [
        {
          "internalType": "address",
          "name": "_adminAddress",
          "type": "address"
        }
      ],
      "name": "addAdmin",
      "outputs": [],
      "stateMutability": "nonpayable",
      "type": "function"
    },
    {
      "inputs": [
        {
          "internalType": "address",
          "name": "_adminAddress",
          "type": "address"
        }
      ],
      "name": "removeAdmin",
      "outputs": [],
      "stateMutability": "nonpayable",
      "type": "function"
    },
    {
      "inputs": [],
      "name": "getAllAdmins",
      "outputs": [
        {
          "internalType": "address[]",
          "name": "",
          "type": "address[]"
        }
      ],
      "stateMutability": "view",
      "type": "function"
    },
    {
      "inputs": [],
      "name": "setStateActive",
      "outputs": [],
      "stateMutability": "nonpayable",
      "type": "function"
    },
    {
      "inputs": [],
      "name": "setStateClosed",
      "outputs": [],
      "stateMutability": "nonpayable",
      "type": "function"
    },
    {
      "inputs": [
        {
          "internalType": "uint256",
          "name": "_maxReward",
          "type": "uint256"
        }
      ],
      "name": "changeMaxReward",
      "outputs": [],
      "stateMutability": "nonpayable",
      "type": "function"
    },
    {
      "inputs": [
        {
          "internalType": "address payable",
          "name": "walletAddress",
          "type": "address"
        },
        {
          "internalType": "string",
          "name": "userId",
          "type": "string"
        }
      ],
      "name": "registerWallet",
      "outputs": [],
      "stateMutability": "nonpayable",
      "type": "function"
    },
    {
      "inputs": [
        {
          "internalType": "uint256",
          "name": "_collectibleItemAmount",
          "type": "uint256"
        },
        {
          "internalType": "uint256",
          "name": "_participantIndex",
          "type": "uint256"
        }
      ],
      "name": "swapCollectibleItemsToMatic",
      "outputs": [],
      "stateMutability": "nonpayable",
      "type": "function"
    },
    {
      "inputs": [],
      "name": "getAllParticipants",
      "outputs": [
        {
          "components": [
            {
              "internalType": "string",
              "name": "userId",
              "type": "string"
            },
            {
              "internalType": "address payable",
              "name": "walletAddress",
              "type": "address"
            },
            {
              "internalType": "uint256",
              "name": "claimed",
              "type": "uint256"
            },
            {
              "internalType": "uint256",
              "name": "claimable",
              "type": "uint256"
            }
          ],
          "internalType": "struct GoArtCampaign.Participant[]",
          "name": "",
          "type": "tuple[]"
        }
      ],
      "stateMutability": "view",
      "type": "function"
    },
    {
      "inputs": [
        {
          "internalType": "uint256",
          "name": "_participantIndex",
          "type": "uint256"
        }
      ],
      "name": "withdrawMaticTokens",
      "outputs": [],
      "stateMutability": "payable",
      "type": "function"
    }
  ],
  "bytecode": "0x6080604052692a5a058fc295ed00000060015567016345785d8a0000600455670de0b6b3a7640000600555601460065534801561003b57600080fd5b5033600360006101000a81548173ffffffffffffffffffffffffffffffffffffffff021916908373ffffffffffffffffffffffffffffffffffffffff1602179055506008339080600181540180825580915050600190039060005260206000200160009091909190916101000a81548173ffffffffffffffffffffffffffffffffffffffff021916908373ffffffffffffffffffffffffffffffffffffffff1602179055506001600b60003373ffffffffffffffffffffffffffffffffffffffff1673ffffffffffffffffffffffffffffffffffffffff16815260200190815260200160002060006101000a81548160ff0219169083151502179055506000600281905550612ca88061014f6000396000f3fe6080604052600436106100fe5760003560e01c80633c4b40b811610095578063c19d93fb11610064578063c19d93fb14610313578063cea6d9771461033e578063deaa8afd14610355578063e9523c9714610380578063fb7ed3c8146103ab576100fe565b80633c4b40b81461027f5780635a3eec03146102aa57806370480275146102c1578063c0bc2bdf146102ea576100fe565b8063195ec9ee116100d1578063195ec9ee146101ae5780631f34556a146101d957806324d7806c1461020257806335c1d3491461023f576100fe565b8063014dd8af146101035780630ef306f41461012c57806314bfd6d0146101485780631785f53c14610185575b600080fd5b34801561010f57600080fd5b5061012a600480360381019061012591906119d3565b6103d6565b005b61014660048036038101906101419190611a13565b6105ba565b005b34801561015457600080fd5b5061016f600480360381019061016a9190611a13565b610919565b60405161017c9190611a81565b60405180910390f35b34801561019157600080fd5b506101ac60048036038101906101a79190611ac8565b610958565b005b3480156101ba57600080fd5b506101c3610ca0565b6040516101d09190611ce3565b60405180910390f35b3480156101e557600080fd5b5061020060048036038101906101fb9190611a13565b610dfb565b005b34801561020e57600080fd5b5061022960048036038101906102249190611ac8565b610e91565b6040516102369190611d20565b60405180910390f35b34801561024b57600080fd5b5061026660048036038101906102619190611a13565b610eb1565b6040516102769493929190611da3565b60405180910390f35b34801561028b57600080fd5b50610294610f99565b6040516102a19190611def565b60405180910390f35b3480156102b657600080fd5b506102bf610fbf565b005b3480156102cd57600080fd5b506102e860048036038101906102e39190611ac8565b611077565b005b3480156102f657600080fd5b50610311600480360381019061030c9190611f6b565b6112be565b005b34801561031f57600080fd5b5061032861167a565b604051610335919061203e565b60405180910390f35b34801561034a57600080fd5b5061035361168b565b005b34801561036157600080fd5b5061036a611743565b6040516103779190612059565b60405180910390f35b34801561038c57600080fd5b50610395611749565b6040516103a29190612132565b60405180910390f35b3480156103b757600080fd5b506103c06117d7565b6040516103cd9190612059565b60405180910390f35b600b60003373ffffffffffffffffffffffffffffffffffffffff1673ffffffffffffffffffffffffffffffffffffffff16815260200190815260200160002060009054906101000a900460ff16610462576040517f08c379a0000000000000000000000000000000000000000000000000000000008152600401610459906121a0565b60405180910390fd5b6000600181111561047657610475611fc7565b5b60008054906101000a900460ff16600181111561049657610495611fc7565b5b146104d6576040517f08c379a00000000000000000000000000000000000000000000000000000000081526004016104cd90612232565b60405180910390fd5b60008211610519576040517f08c379a0000000000000000000000000000000000000000000000000000000008152600401610510906122c4565b60405180910390fd5b60006007828154811061052f5761052e6122e4565b5b906000526020600020906004020190506000610556600654856117dd90919063ffffffff16565b905061056f8183600301546117f390919063ffffffff16565b82600301819055507f488d29b098b2ddcad8148748d0fa9c8963b9913e0f1e6cf346360bcd027fa1788260030154846040516105ac929190612313565b60405180910390a150505050565b600b60003373ffffffffffffffffffffffffffffffffffffffff1673ffffffffffffffffffffffffffffffffffffffff16815260200190815260200160002060009054906101000a900460ff16610646576040517f08c379a000000000000000000000000000000000000000000000000000000000815260040161063d906121a0565b60405180910390fd5b6000600181111561065a57610659611fc7565b5b60008054906101000a900460ff16600181111561067a57610679611fc7565b5b146106ba576040517f08c379a00000000000000000000000000000000000000000000000000000000081526004016106b190612232565b60405180910390fd5b6005543410156106ff576040517f08c379a00000000000000000000000000000000000000000000000000000000081526004016106f6906123ae565b60405180910390fd5b6000610728606361071a6064346117dd90919063ffffffff16565b61180990919063ffffffff16565b9050600061075360016107456064346117dd90919063ffffffff16565b61180990919063ffffffff16565b90506001543460025461076691906123fd565b11156107a7576040517f08c379a000000000000000000000000000000000000000000000000000000000815260040161079e906124eb565b60405180910390fd5b6000600784815481106107bd576107bc6122e4565b5b9060005260206000209060040201905060006107e684836003015461181f90919063ffffffff16565b1015610827576040517f08c379a000000000000000000000000000000000000000000000000000000000815260040161081e9061257d565b60405180910390fd5b61083e34826003015461181f90919063ffffffff16565b816003018190555061085d3482600201546117f390919063ffffffff16565b81600201819055506108938160010160009054906101000a900473ffffffffffffffffffffffffffffffffffffffff1684611835565b6108bf600360009054906101000a900473ffffffffffffffffffffffffffffffffffffffff1683611835565b6108d4346002546117f390919063ffffffff16565b6002819055507f97ca5fc2126c470f78664e5b1f9c6e61d1b1a2acdb9c001cf9afa1c755126e10348560405161090b929190612313565b60405180910390a150505050565b6008818154811061092957600080fd5b906000526020600020016000915054906101000a900473ffffffffffffffffffffffffffffffffffffffff1681565b600b60003373ffffffffffffffffffffffffffffffffffffffff1673ffffffffffffffffffffffffffffffffffffffff16815260200190815260200160002060009054906101000a900460ff166109e4576040517f08c379a00000000000000000000000000000000000000000000000000000000081526004016109db906121a0565b60405180910390fd5b600b60008273ffffffffffffffffffffffffffffffffffffffff1673ffffffffffffffffffffffffffffffffffffffff16815260200190815260200160002060009054906101000a900460ff16610a3a57600080fd5b600160088054905011610a82576040517f08c379a0000000000000000000000000000000000000000000000000000000008152600401610a799061260f565b60405180910390fd5b60005b8173ffffffffffffffffffffffffffffffffffffffff1660088281548110610ab057610aaf6122e4565b5b9060005260206000200160009054906101000a900473ffffffffffffffffffffffffffffffffffffffff1673ffffffffffffffffffffffffffffffffffffffff1614610b5157600880549050811415610b3e576040517f08c379a0000000000000000000000000000000000000000000000000000000008152600401610b35906126a1565b60405180910390fd5b8080610b49906126c1565b915050610a85565b60086001600880549050610b65919061270a565b81548110610b7657610b756122e4565b5b9060005260206000200160009054906101000a900473ffffffffffffffffffffffffffffffffffffffff1660088281548110610bb557610bb46122e4565b5b9060005260206000200160006101000a81548173ffffffffffffffffffffffffffffffffffffffff021916908373ffffffffffffffffffffffffffffffffffffffff1602179055506000600b60008473ffffffffffffffffffffffffffffffffffffffff1673ffffffffffffffffffffffffffffffffffffffff16815260200190815260200160002060006101000a81548160ff0219169083151502179055506008805480610c6757610c6661273e565b5b6001900381819060005260206000200160006101000a81549073ffffffffffffffffffffffffffffffffffffffff021916905590555050565b60606007805480602002602001604051908101604052809291908181526020016000905b82821015610df25783829060005260206000209060040201604051806080016040529081600082018054610cf79061279c565b80601f0160208091040260200160405190810160405280929190818152602001828054610d239061279c565b8015610d705780601f10610d4557610100808354040283529160200191610d70565b820191906000526020600020905b815481529060010190602001808311610d5357829003601f168201915b505050505081526020016001820160009054906101000a900473ffffffffffffffffffffffffffffffffffffffff1673ffffffffffffffffffffffffffffffffffffffff1673ffffffffffffffffffffffffffffffffffffffff1681526020016002820154815260200160038201548152505081526020019060010190610cc4565b50505050905090565b600b60003373ffffffffffffffffffffffffffffffffffffffff1673ffffffffffffffffffffffffffffffffffffffff16815260200190815260200160002060009054906101000a900460ff16610e87576040517f08c379a0000000000000000000000000000000000000000000000000000000008152600401610e7e906121a0565b60405180910390fd5b8060018190555050565b600b6020528060005260406000206000915054906101000a900460ff1681565b60078181548110610ec157600080fd5b9060005260206000209060040201600091509050806000018054610ee49061279c565b80601f0160208091040260200160405190810160405280929190818152602001828054610f109061279c565b8015610f5d5780601f10610f3257610100808354040283529160200191610f5d565b820191906000526020600020905b815481529060010190602001808311610f4057829003601f168201915b5050505050908060010160009054906101000a900473ffffffffffffffffffffffffffffffffffffffff16908060020154908060030154905084565b600360009054906101000a900473ffffffffffffffffffffffffffffffffffffffff1681565b600b60003373ffffffffffffffffffffffffffffffffffffffff1673ffffffffffffffffffffffffffffffffffffffff16815260200190815260200160002060009054906101000a900460ff1661104b576040517f08c379a0000000000000000000000000000000000000000000000000000000008152600401611042906121a0565b60405180910390fd5b60016000806101000a81548160ff021916908360018111156110705761106f611fc7565b5b0217905550565b600b60003373ffffffffffffffffffffffffffffffffffffffff1673ffffffffffffffffffffffffffffffffffffffff16815260200190815260200160002060009054906101000a900460ff16611103576040517f08c379a00000000000000000000000000000000000000000000000000000000081526004016110fa906121a0565b60405180910390fd5b600073ffffffffffffffffffffffffffffffffffffffff168173ffffffffffffffffffffffffffffffffffffffff161415611173576040517f08c379a000000000000000000000000000000000000000000000000000000000815260040161116a90612840565b60405180910390fd5b600b60008273ffffffffffffffffffffffffffffffffffffffff1673ffffffffffffffffffffffffffffffffffffffff16815260200190815260200160002060009054906101000a900460ff1615611200576040517f08c379a00000000000000000000000000000000000000000000000000000000081526004016111f7906128ac565b60405180910390fd5b6008819080600181540180825580915050600190039060005260206000200160009091909190916101000a81548173ffffffffffffffffffffffffffffffffffffffff021916908373ffffffffffffffffffffffffffffffffffffffff1602179055506001600b60008373ffffffffffffffffffffffffffffffffffffffff1673ffffffffffffffffffffffffffffffffffffffff16815260200190815260200160002060006101000a81548160ff02191690831515021790555050565b600b60003373ffffffffffffffffffffffffffffffffffffffff1673ffffffffffffffffffffffffffffffffffffffff16815260200190815260200160002060009054906101000a900460ff1661134a576040517f08c379a0000000000000000000000000000000000000000000000000000000008152600401611341906121a0565b60405180910390fd5b6000600181111561135e5761135d611fc7565b5b60008054906101000a900460ff16600181111561137e5761137d611fc7565b5b146113be576040517f08c379a00000000000000000000000000000000000000000000000000000000081526004016113b590612232565b60405180910390fd5b600960008373ffffffffffffffffffffffffffffffffffffffff1673ffffffffffffffffffffffffffffffffffffffff16815260200190815260200160002060009054906101000a900460ff161561144b576040517f08c379a00000000000000000000000000000000000000000000000000000000081526004016114429061293e565b60405180910390fd5b600a8160405161145b919061299a565b908152602001604051809103902060009054906101000a900460ff16156114b7576040517f08c379a00000000000000000000000000000000000000000000000000000000081526004016114ae90612a23565b60405180910390fd5b6001600960008473ffffffffffffffffffffffffffffffffffffffff1673ffffffffffffffffffffffffffffffffffffffff16815260200190815260200160002060006101000a81548160ff0219169083151502179055506001600a82604051611521919061299a565b908152602001604051809103902060006101000a81548160ff021916908315150217905550600060405180608001604052808381526020018473ffffffffffffffffffffffffffffffffffffffff1681526020016000815260200160008152509050600781908060018154018082558091505060019003906000526020600020906004020160009091909190915060008201518160000190805190602001906115cb9291906118e6565b5060208201518160010160006101000a81548173ffffffffffffffffffffffffffffffffffffffff021916908373ffffffffffffffffffffffffffffffffffffffff160217905550604082015181600201556060820151816003015550507f180ca236964eb44f7a80db451e81e467b5de50df3f83d795d13e28cc609444d38383600160078054905061165e919061270a565b60405161166d93929190612aa2565b60405180910390a1505050565b60008054906101000a900460ff1681565b600b60003373ffffffffffffffffffffffffffffffffffffffff1673ffffffffffffffffffffffffffffffffffffffff16815260200190815260200160002060009054906101000a900460ff16611717576040517f08c379a000000000000000000000000000000000000000000000000000000000815260040161170e906121a0565b60405180910390fd5b60008060006101000a81548160ff0219169083600181111561173c5761173b611fc7565b5b0217905550565b60025481565b606060088054806020026020016040519081016040528092919081815260200182805480156117cd57602002820191906000526020600020905b8160009054906101000a900473ffffffffffffffffffffffffffffffffffffffff1673ffffffffffffffffffffffffffffffffffffffff1681526020019060010190808311611783575b5050505050905090565b60015481565b600081836117eb9190612b0f565b905092915050565b6000818361180191906123fd565b905092915050565b600081836118179190612b40565b905092915050565b6000818361182d919061270a565b905092915050565b60008273ffffffffffffffffffffffffffffffffffffffff168260405161185b90612bcb565b60006040518083038185875af1925050503d8060008114611898576040519150601f19603f3d011682016040523d82523d6000602084013e61189d565b606091505b50509050806118e1576040517f08c379a00000000000000000000000000000000000000000000000000000000081526004016118d890612c52565b60405180910390fd5b505050565b8280546118f29061279c565b90600052602060002090601f016020900481019282611914576000855561195b565b82601f1061192d57805160ff191683800117855561195b565b8280016001018555821561195b579182015b8281111561195a57825182559160200191906001019061193f565b5b509050611968919061196c565b5090565b5b8082111561198557600081600090555060010161196d565b5090565b6000604051905090565b600080fd5b600080fd5b6000819050919050565b6119b08161199d565b81146119bb57600080fd5b50565b6000813590506119cd816119a7565b92915050565b600080604083850312156119ea576119e9611993565b5b60006119f8858286016119be565b9250506020611a09858286016119be565b9150509250929050565b600060208284031215611a2957611a28611993565b5b6000611a37848285016119be565b91505092915050565b600073ffffffffffffffffffffffffffffffffffffffff82169050919050565b6000611a6b82611a40565b9050919050565b611a7b81611a60565b82525050565b6000602082019050611a966000830184611a72565b92915050565b611aa581611a60565b8114611ab057600080fd5b50565b600081359050611ac281611a9c565b92915050565b600060208284031215611ade57611add611993565b5b6000611aec84828501611ab3565b91505092915050565b600081519050919050565b600082825260208201905092915050565b6000819050602082019050919050565b600081519050919050565b600082825260208201905092915050565b60005b83811015611b5b578082015181840152602081019050611b40565b83811115611b6a576000848401525b50505050565b6000601f19601f8301169050919050565b6000611b8c82611b21565b611b968185611b2c565b9350611ba6818560208601611b3d565b611baf81611b70565b840191505092915050565b6000611bc582611a40565b9050919050565b611bd581611bba565b82525050565b611be48161199d565b82525050565b60006080830160008301518482036000860152611c078282611b81565b9150506020830151611c1c6020860182611bcc565b506040830151611c2f6040860182611bdb565b506060830151611c426060860182611bdb565b508091505092915050565b6000611c598383611bea565b905092915050565b6000602082019050919050565b6000611c7982611af5565b611c838185611b00565b935083602082028501611c9585611b11565b8060005b85811015611cd15784840389528151611cb28582611c4d565b9450611cbd83611c61565b925060208a01995050600181019050611c99565b50829750879550505050505092915050565b60006020820190508181036000830152611cfd8184611c6e565b905092915050565b60008115159050919050565b611d1a81611d05565b82525050565b6000602082019050611d356000830184611d11565b92915050565b600082825260208201905092915050565b6000611d5782611b21565b611d618185611d3b565b9350611d71818560208601611b3d565b611d7a81611b70565b840191505092915050565b611d8e81611bba565b82525050565b611d9d8161199d565b82525050565b60006080820190508181036000830152611dbd8187611d4c565b9050611dcc6020830186611d85565b611dd96040830185611d94565b611de66060830184611d94565b95945050505050565b6000602082019050611e046000830184611d85565b92915050565b611e1381611bba565b8114611e1e57600080fd5b50565b600081359050611e3081611e0a565b92915050565b600080fd5b600080fd5b7f4e487b7100000000000000000000000000000000000000000000000000000000600052604160045260246000fd5b611e7882611b70565b810181811067ffffffffffffffff82111715611e9757611e96611e40565b5b80604052505050565b6000611eaa611989565b9050611eb68282611e6f565b919050565b600067ffffffffffffffff821115611ed657611ed5611e40565b5b611edf82611b70565b9050602081019050919050565b82818337600083830152505050565b6000611f0e611f0984611ebb565b611ea0565b905082815260208101848484011115611f2a57611f29611e3b565b5b611f35848285611eec565b509392505050565b600082601f830112611f5257611f51611e36565b5b8135611f62848260208601611efb565b91505092915050565b60008060408385031215611f8257611f81611993565b5b6000611f9085828601611e21565b925050602083013567ffffffffffffffff811115611fb157611fb0611998565b5b611fbd85828601611f3d565b9150509250929050565b7f4e487b7100000000000000000000000000000000000000000000000000000000600052602160045260246000fd5b6002811061200757612006611fc7565b5b50565b600081905061201882611ff6565b919050565b60006120288261200a565b9050919050565b6120388161201d565b82525050565b6000602082019050612053600083018461202f565b92915050565b600060208201905061206e6000830184611d94565b92915050565b600081519050919050565b600082825260208201905092915050565b6000819050602082019050919050565b6120a981611a60565b82525050565b60006120bb83836120a0565b60208301905092915050565b6000602082019050919050565b60006120df82612074565b6120e9818561207f565b93506120f483612090565b8060005b8381101561212557815161210c88826120af565b9750612117836120c7565b9250506001810190506120f8565b5085935050505092915050565b6000602082019050818103600083015261214c81846120d4565b905092915050565b7f4f6e6c792061646d696e2063616e2063616c6c2e000000000000000000000000600082015250565b600061218a601483611d3b565b915061219582612154565b602082019050919050565b600060208201905081810360008301526121b98161217d565b9050919050565b7f436f6e7472616374206973206e6f7420696e206163746976652073746174652060008201527f617420746865206d6f6d656e7421000000000000000000000000000000000000602082015250565b600061221c602e83611d3b565b9150612227826121c0565b604082019050919050565b6000602082019050818103600083015261224b8161220f565b9050919050565b7f5f636f6c6c65637469626c654974656d416d6f756e7420746f2062652073776160008201527f707065642068617320746f2062652067726561746572207468616e20302e0000602082015250565b60006122ae603e83611d3b565b91506122b982612252565b604082019050919050565b600060208201905081810360008301526122dd816122a1565b9050919050565b7f4e487b7100000000000000000000000000000000000000000000000000000000600052603260045260246000fd5b60006040820190506123286000830185611d94565b6123356020830184611d94565b9392505050565b7f596f752063616e207769746864726177206d696e696d756d2031204d4154494360008201527f2e20416e797468696e672062656c6f77206973206e6f7420616c6c6f7765642e602082015250565b6000612398604083611d3b565b91506123a38261233c565b604082019050919050565b600060208201905081810360008301526123c78161238b565b9050919050565b7f4e487b7100000000000000000000000000000000000000000000000000000000600052601160045260246000fd5b60006124088261199d565b91506124138361199d565b9250827fffffffffffffffffffffffffffffffffffffffffffffffffffffffffffffffff03821115612448576124476123ce565b5b828201905092915050565b7f476976656e20616d6f756e7420657863656564732074686520746f74616c207260008201527f657761726420746f2062652064697374726962757465642066726f6d2074686960208201527f7320636f6e747261637400000000000000000000000000000000000000000000604082015250565b60006124d5604a83611d3b565b91506124e082612453565b606082019050919050565b60006020820190508181036000830152612504816124c8565b9050919050565b7f576974686472617720616d6f756e742063616e6e6f742062652067726561746560008201527f72207468616e20746f74616c20636c61696d61626c6520616d6f756e74210000602082015250565b6000612567603e83611d3b565b91506125728261250b565b604082019050919050565b600060208201905081810360008301526125968161255a565b9050919050565b7f43616e206e6f742072656d6f766520616c6c2061646d696e732073696e63652060008201527f636f6e7472616374206265636f6d657320756e757361626c652e000000000000602082015250565b60006125f9603a83611d3b565b91506126048261259d565b604082019050919050565b60006020820190508181036000830152612628816125ec565b9050919050565b7f5061737365642061646d696e206164647265737320646f6573206e6f7420657860008201527f6973740000000000000000000000000000000000000000000000000000000000602082015250565b600061268b602383611d3b565b91506126968261262f565b604082019050919050565b600060208201905081810360008301526126ba8161267e565b9050919050565b60006126cc8261199d565b91507fffffffffffffffffffffffffffffffffffffffffffffffffffffffffffffffff8214156126ff576126fe6123ce565b5b600182019050919050565b60006127158261199d565b91506127208361199d565b925082821015612733576127326123ce565b5b828203905092915050565b7f4e487b7100000000000000000000000000000000000000000000000000000000600052603160045260246000fd5b7f4e487b7100000000000000000000000000000000000000000000000000000000600052602260045260246000fd5b600060028204905060018216806127b457607f821691505b602082108114156127c8576127c761276d565b5b50919050565b7f5b524241435d203a2041646d696e206d75737420626520213d207468616e203060008201527f7830206164647265737300000000000000000000000000000000000000000000602082015250565b600061282a602a83611d3b565b9150612835826127ce565b604082019050919050565b600060208201905081810360008301526128598161281d565b9050919050565b7f5b524241435d203a2041646d696e20616c7265616479206578697374732e0000600082015250565b6000612896601e83611d3b565b91506128a182612860565b602082019050919050565b600060208201905081810360008301526128c581612889565b9050919050565b7f546869732077616c6c657420686173206265656e207573656420746f2072656760008201527f6973746572206561726c6965722e000000000000000000000000000000000000602082015250565b6000612928602e83611d3b565b9150612933826128cc565b604082019050919050565b600060208201905081810360008301526129578161291b565b9050919050565b600081905092915050565b600061297482611b21565b61297e818561295e565b935061298e818560208601611b3d565b80840191505092915050565b60006129a68284612969565b915081905092915050565b7f5468697320757365722069642069732072656769737465726564206561726c6960008201527f65722e0000000000000000000000000000000000000000000000000000000000602082015250565b6000612a0d602383611d3b565b9150612a18826129b1565b604082019050919050565b60006020820190508181036000830152612a3c81612a00565b9050919050565b6000819050919050565b6000612a68612a63612a5e84611a40565b612a43565b611a40565b9050919050565b6000612a7a82612a4d565b9050919050565b6000612a8c82612a6f565b9050919050565b612a9c81612a81565b82525050565b6000606082019050612ab76000830186612a93565b8181036020830152612ac98185611d4c565b9050612ad86040830184611d94565b949350505050565b7f4e487b7100000000000000000000000000000000000000000000000000000000600052601260045260246000fd5b6000612b1a8261199d565b9150612b258361199d565b925082612b3557612b34612ae0565b5b828204905092915050565b6000612b4b8261199d565b9150612b568361199d565b9250817fffffffffffffffffffffffffffffffffffffffffffffffffffffffffffffffff0483118215151615612b8f57612b8e6123ce565b5b828202905092915050565b600081905092915050565b50565b6000612bb5600083612b9a565b9150612bc082612ba5565b600082019050919050565b6000612bd682612ba8565b9150819050919050565b7f5472616e73666572206661696c656420647572696e672073656e64696e67204d60008201527f6174696320746f6b656e73000000000000000000000000000000000000000000602082015250565b6000612c3c602b83611d3b565b9150612c4782612be0565b604082019050919050565b60006020820190508181036000830152612c6b81612c2f565b905091905056fea2646970667358221220397df6acbc280f1b8e8e85c032da016e1fda6bdd4228cdef16a8238cdfd1e02f64736f6c634300080b0033",
  "immutableReferences": {},
  "source": "// SPDX-License-Identifier: GPL-3.0\n\npragma solidity >=0.7.0 <0.9.0;\n\nimport '@openzeppelin/contracts/utils/math/SafeMath.sol';\n\n/**\n * @title GoArtCampaign\n * @dev Distribute MATIC tokens in exchange for GoArt Colletible Items collected within in the GoArt game.\n */\ncontract GoArtCampaign {\n\t// using SafeMath to prevent underflow & overflow bugs\n\tusing SafeMath for uint256;\n\n\t// contract's states are defined here.\n\tenum State {\n\t\tActive,\n\t\tClosed\n\t}\n\n\tState public state;\n\n\tuint256 public maxRewardTotal = 200000 ether;\n\tuint256 public totalDistributedReward;\n\n\t// funding wallet of the contract\n\taddress payable public fundingWallet;\n\n\t// service cost set by us\n\tuint256 fee = 0.1 ether;\n\n\t// min amount\n\tuint256 minimumAmountToWithdraw = 1 ether;\n\n\t// point to reward ratio\n\tuint256 ratio = 20;\n\n\t// Participant structure for players\n\tstruct Participant {\n\t\tstring userId;\n\t\taddress payable walletAddress;\n\t\tuint256 claimed;\n\t\tuint256 claimable;\n\t}\n\n\t// Store the participants in an array\n\tParticipant[] public participants;\n\n\t// Listing all admins\n\taddress[] public admins;\n\n\t// mappings to store registered wallet addresses\n\tmapping(address => bool) walletsRegistered;\n\n\t// mappings to store registered userIds to prevent same user joining the campaign multiple times.\n\tmapping(string => bool) userIdsRegistered;\n\n\t// Modifier for easier checking if user is admin\n\tmapping(address => bool) public isAdmin;\n\n\t// event for EVM logging\n\tevent ParticipantRegistered(address walletAddress, string userId, uint256 participantIndex);\n\tevent CollectibleItemSwapped(uint256 totalAmount, uint256 participantIndex);\n\tevent MaticWithdrawn(uint256 amount, uint256 participantIndex);\n\n\t// Modifier restricting access to only admin\n\tmodifier onlyAdmin() {\n\t\trequire(isAdmin[msg.sender], 'Only admin can call.');\n\t\t_;\n\t}\n\n\t// Constructor to set initial admins during deployment\n\tconstructor() {\n\t\tfundingWallet = payable(msg.sender);\n\t\tadmins.push(msg.sender);\n\t\tisAdmin[msg.sender] = true;\n\t\ttotalDistributedReward = 0;\n\t}\n\n\t// register a new admin with the given wallet address\n\tfunction addAdmin(address _adminAddress) external onlyAdmin {\n\t\t// Can't add 0x address as an admin\n\t\trequire(_adminAddress != address(0x0), '[RBAC] : Admin must be != than 0x0 address');\n\t\t// Can't add existing admin\n\t\trequire(!isAdmin[_adminAddress], '[RBAC] : Admin already exists.');\n\t\t// Add admin to array of admins\n\t\tadmins.push(_adminAddress);\n\t\t// Set mapping\n\t\tisAdmin[_adminAddress] = true;\n\t}\n\n\t// remove an existing admin address\n\tfunction removeAdmin(address _adminAddress) external onlyAdmin {\n\t\t// Admin has to exist\n\t\trequire(isAdmin[_adminAddress]);\n\t\trequire(admins.length > 1, 'Can not remove all admins since contract becomes unusable.');\n\t\tuint256 i = 0;\n\n\t\twhile (admins[i] != _adminAddress) {\n\t\t\tif (i == admins.length) {\n\t\t\t\trevert('Passed admin address does not exist');\n\t\t\t}\n\t\t\ti++;\n\t\t}\n\n\t\t// Copy the last admin position to the current index\n\t\tadmins[i] = admins[admins.length - 1];\n\n\t\tisAdmin[_adminAddress] = false;\n\n\t\t// Remove the last admin, since it's double present\n\t\tadmins.pop();\n\t}\n\n\t// Fetch all admins\n\tfunction getAllAdmins() external view returns (address[] memory) {\n\t\treturn admins;\n\t}\n\n\t// Set contract State as Active\n\tfunction setStateActive() external onlyAdmin {\n\t\tstate = State.Active;\n\t}\n\n\t// Set contract State as Closed\n\tfunction setStateClosed() external onlyAdmin {\n\t\tstate = State.Closed;\n\t}\n\n\t// Change the contract's max reward amount\n\tfunction changeMaxReward(uint256 _maxReward) external onlyAdmin {\n\t\tmaxRewardTotal = _maxReward;\n\t}\n\n\t// register a user's wallet address if the contract is in Active state.\n\tfunction registerWallet(address payable walletAddress, string memory userId)\n\t\texternal\n\t\tonlyAdmin\n\t{\n\t\trequire(state == State.Active, 'Contract is not in active state at the moment!');\n\t\trequire(\n\t\t\t!walletsRegistered[walletAddress],\n\t\t\t'This wallet has been used to register earlier.'\n\t\t);\n\t\trequire(!userIdsRegistered[userId], 'This user id is registered earlier.');\n\n\t\twalletsRegistered[walletAddress] = true;\n\t\tuserIdsRegistered[userId] = true;\n\n\t\tParticipant memory participant = Participant(userId, walletAddress, 0, 0);\n\t\tparticipants.push(participant);\n\n\t\temit ParticipantRegistered(walletAddress, userId, participants.length - 1);\n\t}\n\n\t// A user's collectible items can be swapped to MATIC through this function.\n\tfunction swapCollectibleItemsToMatic(uint256 _collectibleItemAmount, uint256 _participantIndex)\n\t\texternal\n\t\tonlyAdmin\n\t{\n\t\trequire(state == State.Active, 'Contract is not in active state at the moment!');\n\t\trequire(\n\t\t\t_collectibleItemAmount > 0,\n\t\t\t'_collectibleItemAmount to be swapped has to be greater than 0.'\n\t\t);\n\n\t\tParticipant storage participant = participants[_participantIndex];\n\t\tuint256 maticAmount = _collectibleItemAmount.div(ratio);\n\t\tparticipant.claimable = participant.claimable.add(maticAmount);\n\n\t\temit CollectibleItemSwapped(participant.claimable, _participantIndex);\n\t}\n\n\t// return all participants\n\tfunction getAllParticipants() public view returns (Participant[] memory) {\n\t\treturn participants;\n\t}\n\n\tfunction sendMatic(address payable wallet, uint256 amount) internal {\n\t\t(bool success, ) = wallet.call{value: amount}('');\n\t\trequire(success, 'Transfer failed during sending Matic tokens');\n\t}\n\n\tfunction withdrawMaticTokens(uint256 _participantIndex) external payable onlyAdmin {\n\t\trequire(state == State.Active, 'Contract is not in active state at the moment!');\n\t\trequire(\n\t\t\tmsg.value >= minimumAmountToWithdraw,\n\t\t\t'You can withdraw minimum 1 MATIC. Anything below is not allowed.'\n\t\t);\n\n\t\tuint256 amountToBeWithdrawn = (msg.value.div(100).mul(99)); // 99% of the price will go to the participant.\n\n\t\t// 1% is deducted as service fee\n\t\tuint256 feePortion = (msg.value.div(100).mul(1)); // 1% is deducted.\n\n\t\trequire(\n\t\t\ttotalDistributedReward + msg.value <= maxRewardTotal,\n\t\t\t'Given amount exceeds the total reward to be distributed from this contract'\n\t\t);\n\n\t\tParticipant storage participant = participants[_participantIndex];\n\t\trequire(\n\t\t\tparticipant.claimable.sub(amountToBeWithdrawn) >= 0,\n\t\t\t'Withdraw amount cannot be greater than total claimable amount!'\n\t\t);\n\n\t\t// subtract from claimable amount\n\t\tparticipant.claimable = participant.claimable.sub(msg.value);\n\n\t\t// increase the claimed amount with _amount\n\t\tparticipant.claimed = participant.claimed.add(msg.value);\n\n\t\t// transfer the funds\n\t\tsendMatic(participant.walletAddress, amountToBeWithdrawn);\n\t\t// get the service fee\n\t\tsendMatic(fundingWallet, feePortion);\n\n\t\ttotalDistributedReward = totalDistributedReward.add(msg.value);\n\n\t\temit MaticWithdrawn(msg.value, _participantIndex);\n\t}\n}\n",
  "sourcePath": "/Users/tunahandag/Documents/RoofStacks/move-to-earn-event-smart-contracts/contracts/GoArtCampaign.sol",
  "compiler": {
    "name": "solc",
    "version": "0.8.11+commit.d7f03943.Emscripten.clang"
  },
  "schemaVersion": "3.4.4",
  "updatedAt": "2022-02-16T11:17:59.234Z",
  "devdoc": {
    "details": "Distribute MATIC tokens in exchange for GoArt Colletible Items collected within in the GoArt game.",
    "kind": "dev",
    "methods": {},
    "title": "GoArtCampaign",
    "version": 1
  },
  "userdoc": {
    "kind": "user",
    "methods": {},
    "version": 1
  }
}