{
  "contractName": "GoArtCampaign",
  "abi": [
    {
      "inputs": [],
      "stateMutability": "nonpayable",
      "type": "constructor"
    },
    {
      "anonymous": false,
      "inputs": [
        {
          "indexed": false,
          "internalType": "uint256",
          "name": "totalAmount",
          "type": "uint256"
        },
        {
          "indexed": false,
          "internalType": "uint256",
          "name": "participantIndex",
          "type": "uint256"
        }
      ],
      "name": "MTEPointSwapped",
      "type": "event"
    },
    {
      "anonymous": false,
      "inputs": [
        {
          "indexed": false,
          "internalType": "uint256",
          "name": "amount",
          "type": "uint256"
        },
        {
          "indexed": false,
          "internalType": "uint256",
          "name": "participantIndex",
          "type": "uint256"
        }
      ],
      "name": "MaticWithdrawn",
      "type": "event"
    },
    {
      "anonymous": false,
      "inputs": [
        {
          "indexed": false,
          "internalType": "address",
          "name": "walletAddress",
          "type": "address"
        },
        {
          "indexed": false,
          "internalType": "string",
          "name": "userId",
          "type": "string"
        },
        {
          "indexed": false,
          "internalType": "uint256",
          "name": "participantIndex",
          "type": "uint256"
        }
      ],
      "name": "ParticipantRegistered",
      "type": "event"
    },
    {
      "anonymous": false,
      "inputs": [
        {
          "indexed": false,
          "internalType": "uint8",
          "name": "state",
          "type": "uint8"
        }
      ],
      "name": "StateChanged",
      "type": "event"
    },
    {
      "inputs": [
        {
          "internalType": "uint256",
          "name": "",
          "type": "uint256"
        }
      ],
      "name": "admins",
      "outputs": [
        {
          "internalType": "address",
          "name": "",
          "type": "address"
        }
      ],
      "stateMutability": "view",
      "type": "function"
    },
    {
      "inputs": [],
      "name": "fee",
      "outputs": [
        {
          "internalType": "uint256",
          "name": "",
          "type": "uint256"
        }
      ],
      "stateMutability": "view",
      "type": "function"
    },
    {
      "inputs": [
        {
          "internalType": "address",
          "name": "",
          "type": "address"
        }
      ],
      "name": "isAdmin",
      "outputs": [
        {
          "internalType": "bool",
          "name": "",
          "type": "bool"
        }
      ],
      "stateMutability": "view",
      "type": "function"
    },
    {
      "inputs": [],
      "name": "maxRewardTotal",
      "outputs": [
        {
          "internalType": "uint256",
          "name": "",
          "type": "uint256"
        }
      ],
      "stateMutability": "view",
      "type": "function"
    },
    {
      "inputs": [],
      "name": "minimumAmountToWithdraw",
      "outputs": [
        {
          "internalType": "uint256",
          "name": "",
          "type": "uint256"
        }
      ],
      "stateMutability": "view",
      "type": "function"
    },
    {
      "inputs": [
        {
          "internalType": "uint256",
          "name": "",
          "type": "uint256"
        }
      ],
      "name": "participants",
      "outputs": [
        {
          "internalType": "string",
          "name": "userId",
          "type": "string"
        },
        {
          "internalType": "address payable",
          "name": "walletAddress",
          "type": "address"
        },
        {
          "internalType": "uint256",
          "name": "claimed",
          "type": "uint256"
        },
        {
          "internalType": "uint256",
          "name": "claimable",
          "type": "uint256"
        }
      ],
      "stateMutability": "view",
      "type": "function"
    },
    {
      "inputs": [],
      "name": "ratio",
      "outputs": [
        {
          "internalType": "uint256",
          "name": "",
          "type": "uint256"
        }
      ],
      "stateMutability": "view",
      "type": "function"
    },
    {
      "inputs": [],
      "name": "state",
      "outputs": [
        {
          "internalType": "enum GoArtCampaign.State",
          "name": "",
          "type": "uint8"
        }
      ],
      "stateMutability": "view",
      "type": "function"
    },
    {
      "inputs": [],
      "name": "totalDistributedReward",
      "outputs": [
        {
          "internalType": "uint256",
          "name": "",
          "type": "uint256"
        }
      ],
      "stateMutability": "view",
      "type": "function"
    },
    {
      "inputs": [],
      "name": "treasuryWallet",
      "outputs": [
        {
          "internalType": "address payable",
          "name": "",
          "type": "address"
        }
      ],
      "stateMutability": "view",
      "type": "function"
    },
    {
      "inputs": [
        {
          "internalType": "string",
          "name": "",
          "type": "string"
        }
      ],
      "name": "userIdsRegistered",
      "outputs": [
        {
          "internalType": "bool",
          "name": "",
          "type": "bool"
        }
      ],
      "stateMutability": "view",
      "type": "function"
    },
    {
      "inputs": [
        {
          "internalType": "address",
          "name": "",
          "type": "address"
        }
      ],
      "name": "walletsRegistered",
      "outputs": [
        {
          "internalType": "bool",
          "name": "",
          "type": "bool"
        }
      ],
      "stateMutability": "view",
      "type": "function"
    },
    {
      "inputs": [
        {
          "internalType": "address",
          "name": "_adminAddress",
          "type": "address"
        }
      ],
      "name": "addAdmin",
      "outputs": [],
      "stateMutability": "nonpayable",
      "type": "function"
    },
    {
      "inputs": [
        {
          "internalType": "address",
          "name": "_adminAddress",
          "type": "address"
        }
      ],
      "name": "removeAdmin",
      "outputs": [],
      "stateMutability": "nonpayable",
      "type": "function"
    },
    {
      "inputs": [],
      "name": "getAllAdmins",
      "outputs": [
        {
          "internalType": "address[]",
          "name": "",
          "type": "address[]"
        }
      ],
      "stateMutability": "view",
      "type": "function"
    },
    {
      "inputs": [
        {
          "internalType": "uint8",
          "name": "_state",
          "type": "uint8"
        }
      ],
      "name": "changeState",
      "outputs": [],
      "stateMutability": "nonpayable",
      "type": "function"
    },
    {
      "inputs": [],
      "name": "getState",
      "outputs": [
        {
          "internalType": "enum GoArtCampaign.State",
          "name": "",
          "type": "uint8"
        }
      ],
      "stateMutability": "view",
      "type": "function"
    },
    {
      "inputs": [
        {
          "internalType": "uint256",
          "name": "_maxReward",
          "type": "uint256"
        }
      ],
      "name": "changeMaxReward",
      "outputs": [],
      "stateMutability": "nonpayable",
      "type": "function"
    },
    {
      "inputs": [
        {
          "internalType": "uint256",
          "name": "_ratio",
          "type": "uint256"
        }
      ],
      "name": "changeRatio",
      "outputs": [],
      "stateMutability": "nonpayable",
      "type": "function"
    },
    {
      "inputs": [
        {
          "internalType": "address payable",
          "name": "walletAddress",
          "type": "address"
        },
        {
          "internalType": "string",
          "name": "userId",
          "type": "string"
        }
      ],
      "name": "registerWallet",
      "outputs": [],
      "stateMutability": "nonpayable",
      "type": "function"
    },
    {
      "inputs": [
        {
          "internalType": "uint256",
          "name": "_MTEPointsItemAmount",
          "type": "uint256"
        },
        {
          "internalType": "uint256",
          "name": "_participantIndex",
          "type": "uint256"
        }
      ],
      "name": "swapMTEPointsToMatic",
      "outputs": [],
      "stateMutability": "nonpayable",
      "type": "function"
    },
    {
      "inputs": [],
      "name": "getAllParticipants",
      "outputs": [
        {
          "components": [
            {
              "internalType": "string",
              "name": "userId",
              "type": "string"
            },
            {
              "internalType": "address payable",
              "name": "walletAddress",
              "type": "address"
            },
            {
              "internalType": "uint256",
              "name": "claimed",
              "type": "uint256"
            },
            {
              "internalType": "uint256",
              "name": "claimable",
              "type": "uint256"
            }
          ],
          "internalType": "struct GoArtCampaign.Participant[]",
          "name": "",
          "type": "tuple[]"
        }
      ],
      "stateMutability": "view",
      "type": "function"
    },
    {
      "inputs": [
        {
          "internalType": "uint256",
          "name": "_participantIndex",
          "type": "uint256"
        }
      ],
      "name": "withdrawMaticTokens",
      "outputs": [],
      "stateMutability": "payable",
      "type": "function"
    },
    {
      "inputs": [
        {
          "internalType": "uint256",
          "name": "_fee",
          "type": "uint256"
        }
      ],
      "name": "setServiceFee",
      "outputs": [],
      "stateMutability": "nonpayable",
      "type": "function"
    },
    {
      "inputs": [],
      "name": "getServiceFee",
      "outputs": [
        {
          "internalType": "uint256",
          "name": "",
          "type": "uint256"
        }
      ],
      "stateMutability": "view",
      "type": "function"
    },
    {
      "inputs": [],
      "name": "getMaxRewardTotal",
      "outputs": [
        {
          "internalType": "uint256",
          "name": "",
          "type": "uint256"
        }
      ],
      "stateMutability": "view",
      "type": "function"
    },
    {
      "inputs": [
        {
          "internalType": "uint256",
          "name": "_minimumAmount",
          "type": "uint256"
        }
      ],
      "name": "setMinimumAmount",
      "outputs": [],
      "stateMutability": "nonpayable",
      "type": "function"
    },
    {
      "inputs": [],
      "name": "getMinimumAmount",
      "outputs": [
        {
          "internalType": "uint256",
          "name": "",
          "type": "uint256"
        }
      ],
      "stateMutability": "view",
      "type": "function"
    },
    {
      "inputs": [],
      "name": "getTotalDisributedReward",
      "outputs": [
        {
          "internalType": "uint256",
          "name": "",
          "type": "uint256"
        }
      ],
      "stateMutability": "view",
      "type": "function"
    },
    {
      "inputs": [
        {
          "internalType": "address",
          "name": "_walletAddress",
          "type": "address"
        }
      ],
      "name": "walletRegistered",
      "outputs": [
        {
          "internalType": "bool",
          "name": "",
          "type": "bool"
        }
      ],
      "stateMutability": "view",
      "type": "function"
    },
    {
      "inputs": [
        {
          "internalType": "string",
          "name": "_uuid",
          "type": "string"
        }
      ],
      "name": "userRegistered",
      "outputs": [
        {
          "internalType": "bool",
          "name": "",
          "type": "bool"
        }
      ],
      "stateMutability": "view",
      "type": "function"
    },
    {
      "inputs": [
        {
          "internalType": "address",
          "name": "_walletAddress",
          "type": "address"
        }
      ],
      "name": "changeTreasuryWallet",
      "outputs": [],
      "stateMutability": "nonpayable",
      "type": "function"
    }
  ],
  "bytecode": "0x60806040526000805460ff19166001908117909155692a5a058fc295ed000000905567016345785d8a0000600455670de0b6b3a7640000600555600a60065534801561004a57600080fd5b5060038054336001600160a01b031991821681179092556008805460018181019092557ff3f7a9fe364faab93b216da50a3214154f22a0a2b415b23a84c8169e8b636ee301805490921683179091556000918252600b60205260408220805460ff19169091179055600255611ce0806100c46000396000f3fe6080604052600436106101e35760003560e01c80635cdf76f811610102578063c0bc2bdf11610095578063e9523c9711610064578063e9523c97146105a1578063eeb4a9c8146105c3578063f6a33253146105e3578063fb7ed3c81461060357600080fd5b8063c0bc2bdf1461053b578063c19d93fb1461055b578063ddca3f4314610575578063deaa8afd1461058b57600080fd5b8063949fe3ae116100d1578063949fe3ae146104c25780639753ba9a146104d7578063a82dbaeb146104ed578063ac2c9c0f1461050257600080fd5b80635cdf76f81461045757806362066eb314610477578063704802751461048c57806371ca337d146104ac57600080fd5b80631f34556a1161017a5780632d38c2ef116101495780632d38c2ef146103c757806335c1d349146103e75780634626402b14610417578063537c1ac71461043757600080fd5b80631f34556a1461033757806321c81c001461035757806324d7806c14610377578063268f1153146103a757600080fd5b80631785f53c116101b65780631785f53c146102a45780631865c57d146102c4578063195ec9ee146102e55780631dd1bff11461030757600080fd5b80630c2171c3146101e85780630ef306f41461023857806311a1933c1461024d57806314bfd6d01461026c575b600080fd5b3480156101f457600080fd5b50610223610203366004611870565b8051602081830181018051600a8252928201919093012091525460ff1681565b60405190151581526020015b60405180910390f35b61024b6102463660046118ad565b610619565b005b34801561025957600080fd5b506004545b60405190815260200161022f565b34801561027857600080fd5b5061028c6102873660046118ad565b610951565b6040516001600160a01b03909116815260200161022f565b3480156102b057600080fd5b5061024b6102bf3660046118de565b61097b565b3480156102d057600080fd5b5060005460ff165b60405161022f9190611911565b3480156102f157600080fd5b506102fa610bb2565b60405161022f9190611995565b34801561031357600080fd5b506102236103223660046118de565b60096020526000908152604090205460ff1681565b34801561034357600080fd5b5061024b6103523660046118ad565b610cd0565b34801561036357600080fd5b50610223610372366004611870565b610d04565b34801561038357600080fd5b506102236103923660046118de565b600b6020526000908152604090205460ff1681565b3480156103b357600080fd5b5061024b6103c2366004611a29565b610d2f565b3480156103d357600080fd5b5061024b6103e2366004611a4c565b610e21565b3480156103f357600080fd5b506104076104023660046118ad565b610fd1565b60405161022f9493929190611a6e565b34801561042357600080fd5b5060035461028c906001600160a01b031681565b34801561044357600080fd5b5061024b6104523660046118de565b6110a5565b34801561046357600080fd5b5061024b6104723660046118ad565b6110f6565b34801561048357600080fd5b5060055461025e565b34801561049857600080fd5b5061024b6104a73660046118de565b61112a565b3480156104b857600080fd5b5061025e60065481565b3480156104ce57600080fd5b5060025461025e565b3480156104e357600080fd5b5061025e60055481565b3480156104f957600080fd5b5060015461025e565b34801561050e57600080fd5b5061022361051d3660046118de565b6001600160a01b031660009081526009602052604090205460ff1690565b34801561054757600080fd5b5061024b610556366004611aa6565b611292565b34801561056757600080fd5b506000546102d89060ff1681565b34801561058157600080fd5b5061025e60045481565b34801561059757600080fd5b5061025e60025481565b3480156105ad57600080fd5b506105b6611583565b60405161022f9190611af6565b3480156105cf57600080fd5b5061024b6105de3660046118ad565b6115e5565b3480156105ef57600080fd5b5061024b6105fe3660046118ad565b611619565b34801561060f57600080fd5b5061025e60015481565b336000908152600b602052604090205460ff166106515760405162461bcd60e51b815260040161064890611b43565b60405180910390fd5b600260005460ff16600281111561066a5761066a6118fb565b14156106cc5760405162461bcd60e51b815260206004820152602b60248201527f436f6e74726163742069732066696e616c697a65642e20596f752063616e6e6f60448201526a742077697468647261772160a81b6064820152608401610648565b600554341015610746576040805162461bcd60e51b81526020600482015260248101919091527f596f752063616e207769746864726177206d696e696d756d2031204d4154494360448201527f2e20416e797468696e672062656c6f77206973206e6f7420616c6c6f7765642e6064820152608401610648565b600061075d6004543461164d90919063ffffffff16565b9050600154346002546107709190611b87565b11156107f75760405162461bcd60e51b815260206004820152604a60248201527f476976656e20616d6f756e7420657863656564732074686520746f74616c207260448201527f657761726420746f2062652064697374726962757465642066726f6d207468696064820152691cc818dbdb9d1c9858dd60b21b608482015260a401610648565b60006007838154811061080c5761080c611b9f565b90600052602060002090600402019050600061083583836003015461164d90919063ffffffff16565b10156108a95760405162461bcd60e51b815260206004820152603e60248201527f576974686472617720616d6f756e742063616e6e6f742062652067726561746560448201527f72207468616e20746f74616c20636c61696d61626c6520616d6f756e742100006064820152608401610648565b60038101546108b8903461164d565b600382015560028101546108cc9034611660565b600282015560018101546108e9906001600160a01b03168361166c565b600354600454610902916001600160a01b03169061166c565b60025461090f9034611660565b60025560408051348152602081018590527f97ca5fc2126c470f78664e5b1f9c6e61d1b1a2acdb9c001cf9afa1c755126e1091015b60405180910390a1505050565b6008818154811061096157600080fd5b6000918252602090912001546001600160a01b0316905081565b336000908152600b602052604090205460ff166109aa5760405162461bcd60e51b815260040161064890611b43565b6001600160a01b0381166000908152600b602052604090205460ff166109cf57600080fd5b600854600110610a475760405162461bcd60e51b815260206004820152603a60248201527f43616e206e6f742072656d6f766520616c6c2061646d696e732073696e63652060448201527f636f6e7472616374206265636f6d657320756e757361626c652e0000000000006064820152608401610648565b60005b816001600160a01b031660088281548110610a6757610a67611b9f565b6000918252602090912001546001600160a01b031614610af157600854811415610adf5760405162461bcd60e51b815260206004820152602360248201527f5061737365642061646d696e206164647265737320646f6573206e6f742065786044820152621a5cdd60ea1b6064820152608401610648565b80610ae981611bb5565b915050610a4a565b60088054610b0190600190611bd0565b81548110610b1157610b11611b9f565b600091825260209091200154600880546001600160a01b039092169183908110610b3d57610b3d611b9f565b600091825260208083209190910180546001600160a01b0319166001600160a01b039485161790559184168152600b90915260409020805460ff191690556008805480610b8c57610b8c611be7565b600082815260209020810160001990810180546001600160a01b03191690550190555050565b60606007805480602002602001604051908101604052809291908181526020016000905b82821015610cc75783829060005260206000209060040201604051806080016040529081600082018054610c0990611bfd565b80601f0160208091040260200160405190810160405280929190818152602001828054610c3590611bfd565b8015610c825780601f10610c5757610100808354040283529160200191610c82565b820191906000526020600020905b815481529060010190602001808311610c6557829003601f168201915b50505091835250506001828101546001600160a01b03166020808401919091526002840154604084015260039093015460609092019190915291835292019101610bd6565b50505050905090565b336000908152600b602052604090205460ff16610cff5760405162461bcd60e51b815260040161064890611b43565b600155565b6000600a82604051610d169190611c38565b9081526040519081900360200190205460ff1692915050565b336000908152600b602052604090205460ff16610d5e5760405162461bcd60e51b815260040161064890611b43565b600260ff82161115610db25760405162461bcd60e51b815260206004820181905260248201527f476976656e207374617465206973206e6f7420612076616c69642073746174656044820152606401610648565b8060ff166002811115610dc757610dc76118fb565b6000805460ff19166001836002811115610de357610de36118fb565b021790555060405160ff821681527f551dc40198cc79684bb69e4931dba4ac16e4598792ee1c0a5000aeea366d7bb69060200160405180910390a150565b336000908152600b602052604090205460ff16610e505760405162461bcd60e51b815260040161064890611b43565b600260005460ff166002811115610e6957610e696118fb565b1415610ec75760405162461bcd60e51b815260206004820152602760248201527f436f6e74726163742069732066696e616c697a65642e20596f752063616e6e6f6044820152667420737761702160c81b6064820152608401610648565b60008211610f3d5760405162461bcd60e51b815260206004820152603c60248201527f5f4d5445506f696e74734974656d416d6f756e7420746f20626520737761707060448201527f65642068617320746f2062652067726561746572207468616e20302e000000006064820152608401610648565b600060078281548110610f5257610f52611b9f565b906000526020600020906004020190506000610f796006548561172890919063ffffffff16565b6003830154909150610f8b9082611660565b6003830181905560408051918252602082018590527f762eb2e0b8ccc6c14a3127cb66f7466070d289ba39755205ab99499fff9c5062910160405180910390a150505050565b60078181548110610fe157600080fd5b906000526020600020906004020160009150905080600001805461100490611bfd565b80601f016020809104026020016040519081016040528092919081815260200182805461103090611bfd565b801561107d5780601f106110525761010080835404028352916020019161107d565b820191906000526020600020905b81548152906001019060200180831161106057829003601f168201915b505050506001830154600284015460039094015492936001600160a01b039091169290915084565b336000908152600b602052604090205460ff166110d45760405162461bcd60e51b815260040161064890611b43565b600380546001600160a01b0319166001600160a01b0392909216919091179055565b336000908152600b602052604090205460ff166111255760405162461bcd60e51b815260040161064890611b43565b600455565b336000908152600b602052604090205460ff166111595760405162461bcd60e51b815260040161064890611b43565b6001600160a01b0381166111c25760405162461bcd60e51b815260206004820152602a60248201527f5b524241435d203a2041646d696e206d75737420626520213d207468616e20306044820152697830206164647265737360b01b6064820152608401610648565b6001600160a01b0381166000908152600b602052604090205460ff161561122b5760405162461bcd60e51b815260206004820152601e60248201527f5b524241435d203a2041646d696e20616c7265616479206578697374732e00006044820152606401610648565b6008805460018181019092557ff3f7a9fe364faab93b216da50a3214154f22a0a2b415b23a84c8169e8b636ee30180546001600160a01b039093166001600160a01b0319909316831790556000918252600b6020526040909120805460ff19169091179055565b336000908152600b602052604090205460ff166112c15760405162461bcd60e51b815260040161064890611b43565b6000805460ff1660028111156112d9576112d96118fb565b1461133d5760405162461bcd60e51b815260206004820152602e60248201527f436f6e7472616374206973206e6f7420696e206163746976652073746174652060448201526d617420746865206d6f6d656e742160901b6064820152608401610648565b6001600160a01b03821660009081526009602052604090205460ff16156113bd5760405162461bcd60e51b815260206004820152602e60248201527f546869732077616c6c657420686173206265656e207573656420746f2072656760448201526d34b9ba32b91032b0b93634b2b91760911b6064820152608401610648565b600a816040516113cd9190611c38565b9081526040519081900360200190205460ff16156114395760405162461bcd60e51b815260206004820152602360248201527f5468697320757365722069642069732072656769737465726564206561726c6960448201526232b91760e91b6064820152608401610648565b6001600160a01b03821660009081526009602052604090819020805460ff191660019081179091559051600a90611471908490611c38565b9081526040805160209281900383018120805460ff1916941515949094179093556080830181528383526001600160a01b038516828401526000908301819052606083018190526007805460018101825591528251805184937fa66cc928b5edb82af9bd49922954155ab7b0942694bea4ce44661d9a8736c68860049094029390930192611503928492910190611734565b506020820151600182810180546001600160a01b0319166001600160a01b0390931692909217909155604083015160028301556060909201516003909101556007547f180ca236964eb44f7a80db451e81e467b5de50df3f83d795d13e28cc609444d3918591859161157491611bd0565b60405161094493929190611c54565b606060088054806020026020016040519081016040528092919081815260200182805480156115db57602002820191906000526020600020905b81546001600160a01b031681526001909101906020018083116115bd575b5050505050905090565b336000908152600b602052604090205460ff166116145760405162461bcd60e51b815260040161064890611b43565b600555565b336000908152600b602052604090205460ff166116485760405162461bcd60e51b815260040161064890611b43565b600655565b60006116598284611bd0565b9392505050565b60006116598284611b87565b6000826001600160a01b03168260405160006040518083038185875af1925050503d80600081146116b9576040519150601f19603f3d011682016040523d82523d6000602084013e6116be565b606091505b50509050806117235760405162461bcd60e51b815260206004820152602b60248201527f5472616e73666572206661696c656420647572696e672073656e64696e67204d60448201526a6174696320746f6b656e7360a81b6064820152608401610648565b505050565b60006116598284611c88565b82805461174090611bfd565b90600052602060002090601f01602090048101928261176257600085556117a8565b82601f1061177b57805160ff19168380011785556117a8565b828001600101855582156117a8579182015b828111156117a857825182559160200191906001019061178d565b506117b49291506117b8565b5090565b5b808211156117b457600081556001016117b9565b634e487b7160e01b600052604160045260246000fd5b600082601f8301126117f457600080fd5b813567ffffffffffffffff8082111561180f5761180f6117cd565b604051601f8301601f19908116603f01168101908282118183101715611837576118376117cd565b8160405283815286602085880101111561185057600080fd5b836020870160208301376000602085830101528094505050505092915050565b60006020828403121561188257600080fd5b813567ffffffffffffffff81111561189957600080fd5b6118a5848285016117e3565b949350505050565b6000602082840312156118bf57600080fd5b5035919050565b6001600160a01b03811681146118db57600080fd5b50565b6000602082840312156118f057600080fd5b8135611659816118c6565b634e487b7160e01b600052602160045260246000fd5b602081016003831061193357634e487b7160e01b600052602160045260246000fd5b91905290565b60005b8381101561195457818101518382015260200161193c565b83811115611963576000848401525b50505050565b60008151808452611981816020860160208601611939565b601f01601f19169290920160200192915050565b60006020808301818452808551808352604092508286019150828160051b87010184880160005b83811015611a1b57603f198984030185528151608081518186526119e282870182611969565b838b01516001600160a01b0316878c0152898401518a8801526060938401519390960192909252505093860193908601906001016119bc565b509098975050505050505050565b600060208284031215611a3b57600080fd5b813560ff8116811461165957600080fd5b60008060408385031215611a5f57600080fd5b50508035926020909101359150565b608081526000611a816080830187611969565b6001600160a01b03959095166020830152506040810192909252606090910152919050565b60008060408385031215611ab957600080fd5b8235611ac4816118c6565b9150602083013567ffffffffffffffff811115611ae057600080fd5b611aec858286016117e3565b9150509250929050565b6020808252825182820181905260009190848201906040850190845b81811015611b375783516001600160a01b031683529284019291840191600101611b12565b50909695505050505050565b60208082526014908201527327b7363c9030b236b4b71031b0b71031b0b6361760611b604082015260600190565b634e487b7160e01b600052601160045260246000fd5b60008219821115611b9a57611b9a611b71565b500190565b634e487b7160e01b600052603260045260246000fd5b6000600019821415611bc957611bc9611b71565b5060010190565b600082821015611be257611be2611b71565b500390565b634e487b7160e01b600052603160045260246000fd5b600181811c90821680611c1157607f821691505b60208210811415611c3257634e487b7160e01b600052602260045260246000fd5b50919050565b60008251611c4a818460208701611939565b9190910192915050565b6001600160a01b0384168152606060208201819052600090611c7890830185611969565b9050826040830152949350505050565b600082611ca557634e487b7160e01b600052601260045260246000fd5b50049056fea26469706673582212202e0573ff061f1c58d034b549ce9c38044c068ba8ad8b88217043dbd43ebdc4a264736f6c634300080b0033",
  "immutableReferences": {},
  "source": "// SPDX-License-Identifier: GPL-3.0\n\npragma solidity >=0.7.0 <0.9.0;\n\nimport '@openzeppelin/contracts/utils/math/SafeMath.sol';\n\n/**\n * @title GoArtCampaign\n * @dev Distribute MATIC tokens in exchange for GoArt MTE Points collected within in the GoArt game.\n */\ncontract GoArtCampaign {\n\t// using SafeMath to prevent underflow & overflow bugs\n\tusing SafeMath for uint256;\n\n\t// contract's states are defined here.\n\tenum State {\n\t\tActive,\n\t\tClosed,\n\t\tFinalized\n\t}\n\n\tState public state = State.Closed;\n\n\tuint256 public maxRewardTotal = 200000 ether;\n\tuint256 public totalDistributedReward;\n\n\t// funding wallet of the contract\n\taddress payable public treasuryWallet;\n\n\t// service cost set by us\n\tuint256 public fee = 0.1 ether;\n\n\t// min amount\n\tuint256 public minimumAmountToWithdraw = 1 ether;\n\n\t// point to reward ratio\n\tuint256 public ratio = 10;\n\n\t// Participant structure for players\n\tstruct Participant {\n\t\tstring userId;\n\t\taddress payable walletAddress;\n\t\tuint256 claimed;\n\t\tuint256 claimable;\n\t}\n\n\t// Store the participants in an array\n\tParticipant[] public participants;\n\n\t// Listing all admins\n\taddress[] public admins;\n\n\t// mappings to store registered wallet addresses\n\tmapping(address => bool) public walletsRegistered;\n\n\t// mappings to store registered userIds to prevent same user joining the campaign multiple times.\n\tmapping(string => bool) public userIdsRegistered;\n\n\t// Modifier for easier checking if user is admin\n\tmapping(address => bool) public isAdmin;\n\n\t// event for EVM logging\n\tevent ParticipantRegistered(address walletAddress, string userId, uint256 participantIndex);\n\tevent MTEPointSwapped(uint256 totalAmount, uint256 participantIndex);\n\tevent MaticWithdrawn(uint256 amount, uint256 participantIndex);\n\tevent StateChanged(uint8 state);\n\n\t// Modifier restricting access to only admin\n\tmodifier onlyAdmin() {\n\t\trequire(isAdmin[msg.sender], 'Only admin can call.');\n\t\t_;\n\t}\n\n\t// Constructor to set initial admins during deployment\n\tconstructor() {\n\t\ttreasuryWallet = payable(msg.sender);\n\t\tadmins.push(msg.sender);\n\t\tisAdmin[msg.sender] = true;\n\t\ttotalDistributedReward = 0;\n\t}\n\n\t// register a new admin with the given wallet address\n\tfunction addAdmin(address _adminAddress) external onlyAdmin {\n\t\t// Can't add 0x address as an admin\n\t\trequire(_adminAddress != address(0x0), '[RBAC] : Admin must be != than 0x0 address');\n\t\t// Can't add existing admin\n\t\trequire(!isAdmin[_adminAddress], '[RBAC] : Admin already exists.');\n\t\t// Add admin to array of admins\n\t\tadmins.push(_adminAddress);\n\t\t// Set mapping\n\t\tisAdmin[_adminAddress] = true;\n\t}\n\n\t// remove an existing admin address\n\tfunction removeAdmin(address _adminAddress) external onlyAdmin {\n\t\t// Admin has to exist\n\t\trequire(isAdmin[_adminAddress]);\n\t\trequire(admins.length > 1, 'Can not remove all admins since contract becomes unusable.');\n\t\tuint256 i = 0;\n\n\t\twhile (admins[i] != _adminAddress) {\n\t\t\tif (i == admins.length) {\n\t\t\t\trevert('Passed admin address does not exist');\n\t\t\t}\n\t\t\ti++;\n\t\t}\n\n\t\t// Copy the last admin position to the current index\n\t\tadmins[i] = admins[admins.length - 1];\n\n\t\tisAdmin[_adminAddress] = false;\n\n\t\t// Remove the last admin, since it's double present\n\t\tadmins.pop();\n\t}\n\n\t// Fetch all admins\n\tfunction getAllAdmins() external view returns (address[] memory) {\n\t\treturn admins;\n\t}\n\n\t// Change the current state of the contract\n\tfunction changeState(uint8 _state) external onlyAdmin {\n\t\trequire(_state <= uint8(State.Finalized), 'Given state is not a valid state');\n\t\t// change the state to given state index.\n\t\tstate = State(_state);\n\t\t// emit the changed state.\n\t\temit StateChanged(_state);\n\t}\n\n\t// See the current state\n\tfunction getState() public view returns (State) {\n\t\treturn state;\n\t}\n\n\t// Change the contract's max reward amount\n\tfunction changeMaxReward(uint256 _maxReward) external onlyAdmin {\n\t\tmaxRewardTotal = _maxReward;\n\t}\n\n\t// change award ration\n\tfunction changeRatio(uint256 _ratio) external onlyAdmin {\n\t\tratio = _ratio;\n\t}\n\n\t// register a user's wallet address if the contract is in Active state.\n\tfunction registerWallet(address payable walletAddress, string memory userId)\n\t\texternal\n\t\tonlyAdmin\n\t{\n\t\trequire(state == State.Active, 'Contract is not in active state at the moment!');\n\t\trequire(\n\t\t\t!walletsRegistered[walletAddress],\n\t\t\t'This wallet has been used to register earlier.'\n\t\t);\n\t\trequire(!userIdsRegistered[userId], 'This user id is registered earlier.');\n\n\t\twalletsRegistered[walletAddress] = true;\n\t\tuserIdsRegistered[userId] = true;\n\n\t\tParticipant memory participant = Participant(userId, walletAddress, 0, 0);\n\t\tparticipants.push(participant);\n\n\t\temit ParticipantRegistered(walletAddress, userId, participants.length - 1);\n\t}\n\n\t// A user's MTE points can be swapped to MATIC through this function.\n\tfunction swapMTEPointsToMatic(uint256 _MTEPointsItemAmount, uint256 _participantIndex)\n\t\texternal\n\t\tonlyAdmin\n\t{\n\t\trequire(state != State.Finalized, 'Contract is finalized. You cannot swap!');\n\t\trequire(\n\t\t\t_MTEPointsItemAmount > 0,\n\t\t\t'_MTEPointsItemAmount to be swapped has to be greater than 0.'\n\t\t);\n\n\t\tParticipant storage participant = participants[_participantIndex];\n\t\tuint256 maticAmount = _MTEPointsItemAmount.div(ratio);\n\t\tparticipant.claimable = participant.claimable.add(maticAmount);\n\n\t\temit MTEPointSwapped(participant.claimable, _participantIndex);\n\t}\n\n\t// return all participants\n\tfunction getAllParticipants() public view returns (Participant[] memory) {\n\t\treturn participants;\n\t}\n\n\tfunction sendMatic(address payable wallet, uint256 amount) internal {\n\t\t(bool success, ) = wallet.call{value: amount}('');\n\t\trequire(success, 'Transfer failed during sending Matic tokens');\n\t}\n\n\tfunction withdrawMaticTokens(uint256 _participantIndex) external payable onlyAdmin {\n\t\trequire(state != State.Finalized, 'Contract is finalized. You cannot withdraw!');\n\t\trequire(\n\t\t\tmsg.value >= minimumAmountToWithdraw,\n\t\t\t'You can withdraw minimum 1 MATIC. Anything below is not allowed.'\n\t\t);\n\n\t\tuint256 amountToBeWithdrawn = msg.value.sub(fee);\n\n\t\trequire(\n\t\t\ttotalDistributedReward + msg.value <= maxRewardTotal,\n\t\t\t'Given amount exceeds the total reward to be distributed from this contract'\n\t\t);\n\n\t\tParticipant storage participant = participants[_participantIndex];\n\t\trequire(\n\t\t\tparticipant.claimable.sub(amountToBeWithdrawn) >= 0,\n\t\t\t'Withdraw amount cannot be greater than total claimable amount!'\n\t\t);\n\n\t\t// subtract from claimable amount\n\t\tparticipant.claimable = participant.claimable.sub(msg.value);\n\n\t\t// increase the claimed amount with _amount\n\t\tparticipant.claimed = participant.claimed.add(msg.value);\n\n\t\t// transfer the funds\n\t\tsendMatic(participant.walletAddress, amountToBeWithdrawn);\n\t\t// get the service fee\n\t\tsendMatic(treasuryWallet, fee);\n\n\t\ttotalDistributedReward = totalDistributedReward.add(msg.value);\n\n\t\temit MaticWithdrawn(msg.value, _participantIndex);\n\t}\n\n\t// set service fee\n\tfunction setServiceFee(uint256 _fee) external onlyAdmin {\n\t\tfee = _fee;\n\t}\n\n\t// get service fee\n\tfunction getServiceFee() public view returns (uint256) {\n\t\treturn fee;\n\t}\n\n\t// get maximum reward total\n\tfunction getMaxRewardTotal() public view returns (uint256) {\n\t\treturn maxRewardTotal;\n\t}\n\n\t// set minimumAmount\n\tfunction setMinimumAmount(uint256 _minimumAmount) external onlyAdmin {\n\t\tminimumAmountToWithdraw = _minimumAmount;\n\t}\n\n\t// get minimum amount\n\tfunction getMinimumAmount() public view returns (uint256) {\n\t\treturn minimumAmountToWithdraw;\n\t}\n\n\t// get total distributed reward\n\tfunction getTotalDisributedReward() public view returns (uint256) {\n\t\treturn totalDistributedReward;\n\t}\n\n\t// check if a wallet is registered\n\tfunction walletRegistered(address _walletAddress) public view returns (bool) {\n\t\treturn walletsRegistered[_walletAddress];\n\t}\n\n\t// check if userId is registered\n\tfunction userRegistered(string memory _uuid) public view returns (bool) {\n\t\treturn userIdsRegistered[_uuid];\n\t}\n\n\t// change the funding wallet\n\tfunction changeTreasuryWallet(address _walletAddress) external onlyAdmin {\n\t\ttreasuryWallet = payable(_walletAddress);\n\t}\n}\n",
  "sourcePath": "/Users/tunahandag/Documents/RoofStacks/move-to-earn-event-smart-contracts/contracts/GoArtCampaign.sol",
  "compiler": {
    "name": "solc",
    "version": "0.8.11+commit.d7f03943.Emscripten.clang"
  },
  "schemaVersion": "3.4.4",
  "updatedAt": "2022-03-09T08:52:17.487Z",
  "devdoc": {
    "details": "Distribute MATIC tokens in exchange for GoArt MTE Points collected within in the GoArt game.",
    "kind": "dev",
    "methods": {},
    "title": "GoArtCampaign",
    "version": 1
  },
  "userdoc": {
    "kind": "user",
    "methods": {},
    "version": 1
  }
}