{
  "contractName": "GoArtCampaign",
  "abi": [
    {
      "inputs": [],
      "stateMutability": "nonpayable",
      "type": "constructor"
    },
    {
      "anonymous": false,
      "inputs": [
        {
          "indexed": false,
          "internalType": "uint256",
          "name": "totalAmount",
          "type": "uint256"
        },
        {
          "indexed": false,
          "internalType": "uint256",
          "name": "participantIndex",
          "type": "uint256"
        }
      ],
      "name": "MTEPointSwapped",
      "type": "event"
    },
    {
      "anonymous": false,
      "inputs": [
        {
          "indexed": false,
          "internalType": "uint256",
          "name": "amount",
          "type": "uint256"
        },
        {
          "indexed": false,
          "internalType": "uint256",
          "name": "participantIndex",
          "type": "uint256"
        }
      ],
      "name": "MaticWithdrawn",
      "type": "event"
    },
    {
      "anonymous": false,
      "inputs": [
        {
          "indexed": false,
          "internalType": "uint256",
          "name": "maxReward",
          "type": "uint256"
        }
      ],
      "name": "MaxRewardUpdated",
      "type": "event"
    },
    {
      "anonymous": false,
      "inputs": [
        {
          "indexed": false,
          "internalType": "uint256",
          "name": "minimumAmount",
          "type": "uint256"
        }
      ],
      "name": "MinimumAmountUpdated",
      "type": "event"
    },
    {
      "anonymous": false,
      "inputs": [
        {
          "indexed": false,
          "internalType": "uint256",
          "name": "index",
          "type": "uint256"
        }
      ],
      "name": "ParticipantCollectiblesUpdated",
      "type": "event"
    },
    {
      "anonymous": false,
      "inputs": [
        {
          "indexed": false,
          "internalType": "uint256",
          "name": "index",
          "type": "uint256"
        },
        {
          "indexed": false,
          "internalType": "string",
          "name": "uid",
          "type": "string"
        }
      ],
      "name": "ParticipantIdUpdated",
      "type": "event"
    },
    {
      "anonymous": false,
      "inputs": [
        {
          "indexed": false,
          "internalType": "address",
          "name": "walletAddress",
          "type": "address"
        },
        {
          "indexed": false,
          "internalType": "string",
          "name": "userId",
          "type": "string"
        },
        {
          "indexed": false,
          "internalType": "uint256",
          "name": "participantIndex",
          "type": "uint256"
        }
      ],
      "name": "ParticipantRegistered",
      "type": "event"
    },
    {
      "anonymous": false,
      "inputs": [
        {
          "indexed": false,
          "internalType": "uint256",
          "name": "ratio",
          "type": "uint256"
        }
      ],
      "name": "RatioUpdated",
      "type": "event"
    },
    {
      "anonymous": false,
      "inputs": [
        {
          "indexed": false,
          "internalType": "uint256",
          "name": "fee",
          "type": "uint256"
        }
      ],
      "name": "ServiceFeeUpdated",
      "type": "event"
    },
    {
      "anonymous": false,
      "inputs": [
        {
          "indexed": false,
          "internalType": "uint8",
          "name": "state",
          "type": "uint8"
        }
      ],
      "name": "StateChanged",
      "type": "event"
    },
    {
      "anonymous": false,
      "inputs": [
        {
          "indexed": false,
          "internalType": "address",
          "name": "walletAddress",
          "type": "address"
        }
      ],
      "name": "TreasuryWalletUpdated",
      "type": "event"
    },
    {
      "inputs": [
        {
          "internalType": "uint256",
          "name": "",
          "type": "uint256"
        }
      ],
      "name": "admins",
      "outputs": [
        {
          "internalType": "address",
          "name": "",
          "type": "address"
        }
      ],
      "stateMutability": "view",
      "type": "function"
    },
    {
      "inputs": [],
      "name": "fee",
      "outputs": [
        {
          "internalType": "uint256",
          "name": "",
          "type": "uint256"
        }
      ],
      "stateMutability": "view",
      "type": "function"
    },
    {
      "inputs": [
        {
          "internalType": "address",
          "name": "",
          "type": "address"
        }
      ],
      "name": "isAdmin",
      "outputs": [
        {
          "internalType": "bool",
          "name": "",
          "type": "bool"
        }
      ],
      "stateMutability": "view",
      "type": "function"
    },
    {
      "inputs": [],
      "name": "maxRewardTotal",
      "outputs": [
        {
          "internalType": "uint256",
          "name": "",
          "type": "uint256"
        }
      ],
      "stateMutability": "view",
      "type": "function"
    },
    {
      "inputs": [],
      "name": "minimumAmountToWithdraw",
      "outputs": [
        {
          "internalType": "uint256",
          "name": "",
          "type": "uint256"
        }
      ],
      "stateMutability": "view",
      "type": "function"
    },
    {
      "inputs": [
        {
          "internalType": "uint256",
          "name": "",
          "type": "uint256"
        }
      ],
      "name": "participants",
      "outputs": [
        {
          "internalType": "string",
          "name": "userId",
          "type": "string"
        },
        {
          "internalType": "address payable",
          "name": "walletAddress",
          "type": "address"
        },
        {
          "internalType": "uint256",
          "name": "claimed",
          "type": "uint256"
        },
        {
          "internalType": "uint256",
          "name": "claimable",
          "type": "uint256"
        }
      ],
      "stateMutability": "view",
      "type": "function"
    },
    {
      "inputs": [],
      "name": "ratio",
      "outputs": [
        {
          "internalType": "uint256",
          "name": "",
          "type": "uint256"
        }
      ],
      "stateMutability": "view",
      "type": "function"
    },
    {
      "inputs": [],
      "name": "state",
      "outputs": [
        {
          "internalType": "enum GoArtCampaign.State",
          "name": "",
          "type": "uint8"
        }
      ],
      "stateMutability": "view",
      "type": "function"
    },
    {
      "inputs": [],
      "name": "totalDistributedReward",
      "outputs": [
        {
          "internalType": "uint256",
          "name": "",
          "type": "uint256"
        }
      ],
      "stateMutability": "view",
      "type": "function"
    },
    {
      "inputs": [],
      "name": "treasuryWallet",
      "outputs": [
        {
          "internalType": "address payable",
          "name": "",
          "type": "address"
        }
      ],
      "stateMutability": "view",
      "type": "function"
    },
    {
      "inputs": [
        {
          "internalType": "string",
          "name": "",
          "type": "string"
        }
      ],
      "name": "userIdsRegistered",
      "outputs": [
        {
          "internalType": "bool",
          "name": "",
          "type": "bool"
        }
      ],
      "stateMutability": "view",
      "type": "function"
    },
    {
      "inputs": [
        {
          "internalType": "address",
          "name": "",
          "type": "address"
        }
      ],
      "name": "walletsRegistered",
      "outputs": [
        {
          "internalType": "bool",
          "name": "",
          "type": "bool"
        }
      ],
      "stateMutability": "view",
      "type": "function"
    },
    {
      "inputs": [
        {
          "internalType": "address",
          "name": "_adminAddress",
          "type": "address"
        }
      ],
      "name": "addAdmin",
      "outputs": [],
      "stateMutability": "nonpayable",
      "type": "function"
    },
    {
      "inputs": [
        {
          "internalType": "address",
          "name": "_adminAddress",
          "type": "address"
        }
      ],
      "name": "removeAdmin",
      "outputs": [],
      "stateMutability": "nonpayable",
      "type": "function"
    },
    {
      "inputs": [],
      "name": "getAllAdmins",
      "outputs": [
        {
          "internalType": "address[]",
          "name": "",
          "type": "address[]"
        }
      ],
      "stateMutability": "view",
      "type": "function"
    },
    {
      "inputs": [
        {
          "internalType": "uint8",
          "name": "_state",
          "type": "uint8"
        }
      ],
      "name": "changeState",
      "outputs": [],
      "stateMutability": "nonpayable",
      "type": "function"
    },
    {
      "inputs": [],
      "name": "getState",
      "outputs": [
        {
          "internalType": "enum GoArtCampaign.State",
          "name": "",
          "type": "uint8"
        }
      ],
      "stateMutability": "view",
      "type": "function"
    },
    {
      "inputs": [
        {
          "internalType": "uint256",
          "name": "_maxReward",
          "type": "uint256"
        }
      ],
      "name": "changeMaxReward",
      "outputs": [],
      "stateMutability": "nonpayable",
      "type": "function"
    },
    {
      "inputs": [
        {
          "internalType": "uint256",
          "name": "_ratio",
          "type": "uint256"
        }
      ],
      "name": "changeRatio",
      "outputs": [],
      "stateMutability": "nonpayable",
      "type": "function"
    },
    {
      "inputs": [
        {
          "internalType": "address payable",
          "name": "walletAddress",
          "type": "address"
        },
        {
          "internalType": "string",
          "name": "userId",
          "type": "string"
        }
      ],
      "name": "registerWallet",
      "outputs": [],
      "stateMutability": "nonpayable",
      "type": "function"
    },
    {
      "inputs": [
        {
          "internalType": "uint256",
          "name": "_MTEPointsItemAmount",
          "type": "uint256"
        },
        {
          "internalType": "uint256",
          "name": "_participantIndex",
          "type": "uint256"
        }
      ],
      "name": "swapMTEPointsToMatic",
      "outputs": [],
      "stateMutability": "nonpayable",
      "type": "function"
    },
    {
      "inputs": [],
      "name": "getAllParticipants",
      "outputs": [
        {
          "components": [
            {
              "internalType": "string",
              "name": "userId",
              "type": "string"
            },
            {
              "internalType": "address payable",
              "name": "walletAddress",
              "type": "address"
            },
            {
              "internalType": "uint256",
              "name": "claimed",
              "type": "uint256"
            },
            {
              "internalType": "uint256",
              "name": "claimable",
              "type": "uint256"
            }
          ],
          "internalType": "struct GoArtCampaign.Participant[]",
          "name": "",
          "type": "tuple[]"
        }
      ],
      "stateMutability": "view",
      "type": "function"
    },
    {
      "inputs": [
        {
          "internalType": "uint256",
          "name": "_participantIndex",
          "type": "uint256"
        }
      ],
      "name": "withdrawMaticTokens",
      "outputs": [],
      "stateMutability": "payable",
      "type": "function"
    },
    {
      "inputs": [
        {
          "internalType": "uint256",
          "name": "_fee",
          "type": "uint256"
        }
      ],
      "name": "setServiceFee",
      "outputs": [],
      "stateMutability": "nonpayable",
      "type": "function"
    },
    {
      "inputs": [],
      "name": "getServiceFee",
      "outputs": [
        {
          "internalType": "uint256",
          "name": "",
          "type": "uint256"
        }
      ],
      "stateMutability": "view",
      "type": "function"
    },
    {
      "inputs": [],
      "name": "getMaxRewardTotal",
      "outputs": [
        {
          "internalType": "uint256",
          "name": "",
          "type": "uint256"
        }
      ],
      "stateMutability": "view",
      "type": "function"
    },
    {
      "inputs": [
        {
          "internalType": "uint256",
          "name": "_minimumAmount",
          "type": "uint256"
        }
      ],
      "name": "setMinimumAmount",
      "outputs": [],
      "stateMutability": "nonpayable",
      "type": "function"
    },
    {
      "inputs": [],
      "name": "getMinimumAmount",
      "outputs": [
        {
          "internalType": "uint256",
          "name": "",
          "type": "uint256"
        }
      ],
      "stateMutability": "view",
      "type": "function"
    },
    {
      "inputs": [],
      "name": "getTotalDisributedReward",
      "outputs": [
        {
          "internalType": "uint256",
          "name": "",
          "type": "uint256"
        }
      ],
      "stateMutability": "view",
      "type": "function"
    },
    {
      "inputs": [
        {
          "internalType": "address",
          "name": "_walletAddress",
          "type": "address"
        }
      ],
      "name": "walletRegistered",
      "outputs": [
        {
          "internalType": "bool",
          "name": "",
          "type": "bool"
        }
      ],
      "stateMutability": "view",
      "type": "function"
    },
    {
      "inputs": [
        {
          "internalType": "string",
          "name": "_uuid",
          "type": "string"
        }
      ],
      "name": "userRegistered",
      "outputs": [
        {
          "internalType": "bool",
          "name": "",
          "type": "bool"
        }
      ],
      "stateMutability": "view",
      "type": "function"
    },
    {
      "inputs": [
        {
          "internalType": "address",
          "name": "_walletAddress",
          "type": "address"
        }
      ],
      "name": "changeTreasuryWallet",
      "outputs": [],
      "stateMutability": "nonpayable",
      "type": "function"
    },
    {
      "inputs": [
        {
          "internalType": "uint256",
          "name": "index",
          "type": "uint256"
        }
      ],
      "name": "getParticipant",
      "outputs": [
        {
          "components": [
            {
              "internalType": "string",
              "name": "userId",
              "type": "string"
            },
            {
              "internalType": "address payable",
              "name": "walletAddress",
              "type": "address"
            },
            {
              "internalType": "uint256",
              "name": "claimed",
              "type": "uint256"
            },
            {
              "internalType": "uint256",
              "name": "claimable",
              "type": "uint256"
            }
          ],
          "internalType": "struct GoArtCampaign.Participant",
          "name": "",
          "type": "tuple"
        }
      ],
      "stateMutability": "view",
      "type": "function"
    },
    {
      "inputs": [],
      "name": "getTotalParticipants",
      "outputs": [
        {
          "internalType": "uint256",
          "name": "",
          "type": "uint256"
        }
      ],
      "stateMutability": "view",
      "type": "function"
    },
    {
      "inputs": [
        {
          "internalType": "uint256",
          "name": "index",
          "type": "uint256"
        },
        {
          "internalType": "uint256",
          "name": "claimed",
          "type": "uint256"
        },
        {
          "internalType": "uint256",
          "name": "claimable",
          "type": "uint256"
        }
      ],
      "name": "updateParticipantClaims",
      "outputs": [],
      "stateMutability": "nonpayable",
      "type": "function"
    },
    {
      "inputs": [
        {
          "internalType": "uint256",
          "name": "index",
          "type": "uint256"
        },
        {
          "internalType": "string",
          "name": "uid",
          "type": "string"
        }
      ],
      "name": "updateParticipantId",
      "outputs": [],
      "stateMutability": "nonpayable",
      "type": "function"
    }
  ],
  "bytecode": "0x60806040526000805460ff19166001908117909155692a5a058fc295ed000000905567016345785d8a0000600455670de0b6b3a7640000600555600a60065534801561004a57600080fd5b5060038054336001600160a01b031991821681179092556008805460018181019092557ff3f7a9fe364faab93b216da50a3214154f22a0a2b415b23a84c8169e8b636ee301805490921683179091556000918252600b60205260408220805460ff191690911790556002556122aa806100c46000396000f3fe60806040526004361061020f5760003560e01c8063581b0f7011610118578063ac2c9c0f116100a0578063deaa8afd1161006f578063deaa8afd14610639578063e9523c971461064f578063eeb4a9c814610671578063f6a3325314610691578063fb7ed3c8146106b157600080fd5b8063ac2c9c0f146105b0578063c0bc2bdf146105e9578063c19d93fb14610609578063ddca3f431461062357600080fd5b806371ca337d116100e757806371ca337d14610545578063949fe3ae1461055b5780639753ba9a14610570578063a82dbaeb14610586578063a90cc4451461059b57600080fd5b8063581b0f70146104d05780635cdf76f8146104f057806362066eb314610510578063704802751461052557600080fd5b80631dd1bff11161019b578063268f11531161016a578063268f1153146104205780632d38c2ef1461044057806335c1d349146104605780634626402b14610490578063537c1ac7146104b057600080fd5b80631dd1bff1146103805780631f34556a146103b057806321c81c00146103d057806324d7806c146103f057600080fd5b806314bfd6d0116101e257806314bfd6d0146102b85780631785f53c146102f05780631865c57d14610310578063195ec9ee146103315780631b9db2ef1461035357600080fd5b80630c2171c3146102145780630ef306f41461026457806311a1933c14610279578063140ac06214610298575b600080fd5b34801561022057600080fd5b5061024f61022f366004611d16565b8051602081830181018051600a8252928201919093012091525460ff1681565b60405190151581526020015b60405180910390f35b610277610272366004611d53565b6106c7565b005b34801561028557600080fd5b506004545b60405190815260200161025b565b3480156102a457600080fd5b506102776102b3366004611d6c565b610a20565b3480156102c457600080fd5b506102d86102d3366004611d53565b610b4c565b6040516001600160a01b03909116815260200161025b565b3480156102fc57600080fd5b5061027761030b366004611dcb565b610b76565b34801561031c57600080fd5b5060005460ff165b60405161025b9190611dfe565b34801561033d57600080fd5b50610346610dad565b60405161025b9190611ec9565b34801561035f57600080fd5b5061037361036e366004611d53565b610ecb565b60405161025b9190611f2b565b34801561038c57600080fd5b5061024f61039b366004611dcb565b60096020526000908152604090205460ff1681565b3480156103bc57600080fd5b506102776103cb366004611d53565b610feb565b3480156103dc57600080fd5b5061024f6103eb366004611d16565b611056565b3480156103fc57600080fd5b5061024f61040b366004611dcb565b600b6020526000908152604090205460ff1681565b34801561042c57600080fd5b5061027761043b366004611f3e565b611081565b34801561044c57600080fd5b5061027761045b366004611f61565b61116d565b34801561046c57600080fd5b5061048061047b366004611d53565b61133f565b60405161025b9493929190611f83565b34801561049c57600080fd5b506003546102d8906001600160a01b031681565b3480156104bc57600080fd5b506102776104cb366004611dcb565b611413565b3480156104dc57600080fd5b506102776104eb366004611fbb565b611490565b3480156104fc57600080fd5b5061027761050b366004611d53565b611548565b34801561051c57600080fd5b5060055461028a565b34801561053157600080fd5b50610277610540366004611dcb565b6115ac565b34801561055157600080fd5b5061028a60065481565b34801561056757600080fd5b5060025461028a565b34801561057c57600080fd5b5061028a60055481565b34801561059257600080fd5b5060015461028a565b3480156105a757600080fd5b5060075461028a565b3480156105bc57600080fd5b5061024f6105cb366004611dcb565b6001600160a01b031660009081526009602052604090205460ff1690565b3480156105f557600080fd5b50610277610604366004611fe7565b611714565b34801561061557600080fd5b506000546103249060ff1681565b34801561062f57600080fd5b5061028a60045481565b34801561064557600080fd5b5061028a60025481565b34801561065b57600080fd5b506106646119c9565b60405161025b9190612021565b34801561067d57600080fd5b5061027761068c366004611d53565b611a2b565b34801561069d57600080fd5b506102776106ac366004611d53565b611a8f565b3480156106bd57600080fd5b5061028a60015481565b336000908152600b602052604090205460ff166106ff5760405162461bcd60e51b81526004016106f69061206e565b60405180910390fd5b600260005460ff16600281111561071857610718611de8565b141561077a5760405162461bcd60e51b815260206004820152602b60248201527f436f6e74726163742069732066696e616c697a65642e20596f752063616e6e6f60448201526a742077697468647261772160a81b60648201526084016106f6565b600754811061079b5760405162461bcd60e51b81526004016106f69061209c565b600554341015610815576040805162461bcd60e51b81526020600482015260248101919091527f596f752063616e207769746864726177206d696e696d756d2031204d4154494360448201527f2e20416e797468696e672062656c6f77206973206e6f7420616c6c6f7765642e60648201526084016106f6565b600061082c60045434611af390919063ffffffff16565b90506001543460025461083f91906120f5565b11156108c65760405162461bcd60e51b815260206004820152604a60248201527f476976656e20616d6f756e7420657863656564732074686520746f74616c207260448201527f657761726420746f2062652064697374726962757465642066726f6d207468696064820152691cc818dbdb9d1c9858dd60b21b608482015260a4016106f6565b6000600783815481106108db576108db61210d565b906000526020600020906004020190506000610904838360030154611af390919063ffffffff16565b10156109785760405162461bcd60e51b815260206004820152603e60248201527f576974686472617720616d6f756e742063616e6e6f742062652067726561746560448201527f72207468616e20746f74616c20636c61696d61626c6520616d6f756e7421000060648201526084016106f6565b60038101546109879034611af3565b6003820155600281015461099b9034611b06565b600282015560018101546109b8906001600160a01b031683611b12565b6003546004546109d1916001600160a01b031690611b12565b6002546109de9034611b06565b60025560408051348152602081018590527f97ca5fc2126c470f78664e5b1f9c6e61d1b1a2acdb9c001cf9afa1c755126e1091015b60405180910390a1505050565b336000908152600b602052604090205460ff16610a4f5760405162461bcd60e51b81526004016106f69061206e565b600a81604051610a5f9190612123565b9081526040519081900360200190205460ff1615610a8f5760405162461bcd60e51b81526004016106f69061213f565b6007548210610ab05760405162461bcd60e51b81526004016106f69061209c565b600060078381548110610ac557610ac561210d565b600091825260209182902084516004909202019250610ae991839190850190611bda565b506001600a83604051610afc9190612123565b908152604051908190036020018120805492151560ff19909316929092179091557fbd784f74ed5d28b8aab99a817ab7c52f133cca0e05b99f5d0632ee0cdf337b9a90610a139085908590612182565b60088181548110610b5c57600080fd5b6000918252602090912001546001600160a01b0316905081565b336000908152600b602052604090205460ff16610ba55760405162461bcd60e51b81526004016106f69061206e565b6001600160a01b0381166000908152600b602052604090205460ff16610bca57600080fd5b600854600110610c425760405162461bcd60e51b815260206004820152603a60248201527f43616e206e6f742072656d6f766520616c6c2061646d696e732073696e63652060448201527f636f6e7472616374206265636f6d657320756e757361626c652e00000000000060648201526084016106f6565b60005b816001600160a01b031660088281548110610c6257610c6261210d565b6000918252602090912001546001600160a01b031614610cec57600854811415610cda5760405162461bcd60e51b815260206004820152602360248201527f5061737365642061646d696e206164647265737320646f6573206e6f742065786044820152621a5cdd60ea1b60648201526084016106f6565b80610ce48161219b565b915050610c45565b60088054610cfc906001906121b6565b81548110610d0c57610d0c61210d565b600091825260209091200154600880546001600160a01b039092169183908110610d3857610d3861210d565b600091825260208083209190910180546001600160a01b0319166001600160a01b039485161790559184168152600b90915260409020805460ff191690556008805480610d8757610d876121cd565b600082815260209020810160001990810180546001600160a01b03191690550190555050565b60606007805480602002602001604051908101604052809291908181526020016000905b82821015610ec25783829060005260206000209060040201604051806080016040529081600082018054610e04906121e3565b80601f0160208091040260200160405190810160405280929190818152602001828054610e30906121e3565b8015610e7d5780601f10610e5257610100808354040283529160200191610e7d565b820191906000526020600020905b815481529060010190602001808311610e6057829003601f168201915b50505091835250506001828101546001600160a01b03166020808401919091526002840154604084015260039093015460609092019190915291835292019101610dd1565b50505050905090565b610eff60405180608001604052806060815260200160006001600160a01b0316815260200160008152602001600081525090565b60078281548110610f1257610f1261210d565b9060005260206000209060040201604051806080016040529081600082018054610f3b906121e3565b80601f0160208091040260200160405190810160405280929190818152602001828054610f67906121e3565b8015610fb45780601f10610f8957610100808354040283529160200191610fb4565b820191906000526020600020905b815481529060010190602001808311610f9757829003601f168201915b505050918352505060018201546001600160a01b031660208201526002820154604082015260039091015460609091015292915050565b336000908152600b602052604090205460ff1661101a5760405162461bcd60e51b81526004016106f69061206e565b60018190556040518181527f710fe9c916e93b1ade632240c1207ef6f84a7b62be58bd48c773b4435a842d14906020015b60405180910390a150565b6000600a826040516110689190612123565b9081526040519081900360200190205460ff1692915050565b336000908152600b602052604090205460ff166110b05760405162461bcd60e51b81526004016106f69061206e565b600260ff821611156111045760405162461bcd60e51b815260206004820181905260248201527f476976656e207374617465206973206e6f7420612076616c696420737461746560448201526064016106f6565b8060ff16600281111561111957611119611de8565b6000805460ff1916600183600281111561113557611135611de8565b021790555060405160ff821681527f551dc40198cc79684bb69e4931dba4ac16e4598792ee1c0a5000aeea366d7bb69060200161104b565b336000908152600b602052604090205460ff1661119c5760405162461bcd60e51b81526004016106f69061206e565b600260005460ff1660028111156111b5576111b5611de8565b14156112135760405162461bcd60e51b815260206004820152602760248201527f436f6e74726163742069732066696e616c697a65642e20596f752063616e6e6f6044820152667420737761702160c81b60648201526084016106f6565b60075481106112345760405162461bcd60e51b81526004016106f69061209c565b600082116112aa5760405162461bcd60e51b815260206004820152603c60248201527f5f4d5445506f696e74734974656d416d6f756e7420746f20626520737761707060448201527f65642068617320746f2062652067726561746572207468616e20302e0000000060648201526084016106f6565b6000600782815481106112bf576112bf61210d565b9060005260206000209060040201905060006112e660065485611bce90919063ffffffff16565b60038301549091506112f89082611b06565b6003830181905560408051918252602082018590527f762eb2e0b8ccc6c14a3127cb66f7466070d289ba39755205ab99499fff9c506291015b60405180910390a150505050565b6007818154811061134f57600080fd5b9060005260206000209060040201600091509050806000018054611372906121e3565b80601f016020809104026020016040519081016040528092919081815260200182805461139e906121e3565b80156113eb5780601f106113c0576101008083540402835291602001916113eb565b820191906000526020600020905b8154815290600101906020018083116113ce57829003601f168201915b505050506001830154600284015460039094015492936001600160a01b039091169290915084565b336000908152600b602052604090205460ff166114425760405162461bcd60e51b81526004016106f69061206e565b600380546001600160a01b0319166001600160a01b0383169081179091556040519081527f97c79b3848e51f57983ac89e4403452655c8d83ceba8199011de63a74f60d1a79060200161104b565b336000908152600b602052604090205460ff166114bf5760405162461bcd60e51b81526004016106f69061206e565b60075483106114e05760405162461bcd60e51b81526004016106f69061209c565b6000600784815481106114f5576114f561210d565b906000526020600020906004020190508281600201819055508181600301819055507f84c823d9cfa99156db248aa33669ab681408dc5c65c033ca7a695e61e5925f9e8460405161133191815260200190565b336000908152600b602052604090205460ff166115775760405162461bcd60e51b81526004016106f69061206e565b60048190556040518181527fcb6d7cd9a715c819bc5a96c171f645b81d4d65b57cfe7d6b5e8a12f78022995d9060200161104b565b336000908152600b602052604090205460ff166115db5760405162461bcd60e51b81526004016106f69061206e565b6001600160a01b0381166116445760405162461bcd60e51b815260206004820152602a60248201527f5b524241435d203a2041646d696e206d75737420626520213d207468616e20306044820152697830206164647265737360b01b60648201526084016106f6565b6001600160a01b0381166000908152600b602052604090205460ff16156116ad5760405162461bcd60e51b815260206004820152601e60248201527f5b524241435d203a2041646d696e20616c7265616479206578697374732e000060448201526064016106f6565b6008805460018181019092557ff3f7a9fe364faab93b216da50a3214154f22a0a2b415b23a84c8169e8b636ee30180546001600160a01b039093166001600160a01b0319909316831790556000918252600b6020526040909120805460ff19169091179055565b336000908152600b602052604090205460ff166117435760405162461bcd60e51b81526004016106f69061206e565b6000805460ff16600281111561175b5761175b611de8565b146117bf5760405162461bcd60e51b815260206004820152602e60248201527f436f6e7472616374206973206e6f7420696e206163746976652073746174652060448201526d617420746865206d6f6d656e742160901b60648201526084016106f6565b6001600160a01b03821660009081526009602052604090205460ff161561183f5760405162461bcd60e51b815260206004820152602e60248201527f546869732077616c6c657420686173206265656e207573656420746f2072656760448201526d34b9ba32b91032b0b93634b2b91760911b60648201526084016106f6565b600a8160405161184f9190612123565b9081526040519081900360200190205460ff161561187f5760405162461bcd60e51b81526004016106f69061213f565b6001600160a01b03821660009081526009602052604090819020805460ff191660019081179091559051600a906118b7908490612123565b9081526040805160209281900383018120805460ff1916941515949094179093556080830181528383526001600160a01b038516828401526000908301819052606083018190526007805460018101825591528251805184937fa66cc928b5edb82af9bd49922954155ab7b0942694bea4ce44661d9a8736c68860049094029390930192611949928492910190611bda565b506020820151600182810180546001600160a01b0319166001600160a01b0390931692909217909155604083015160028301556060909201516003909101556007547f180ca236964eb44f7a80db451e81e467b5de50df3f83d795d13e28cc609444d391859185916119ba916121b6565b604051610a139392919061221e565b60606008805480602002602001604051908101604052809291908181526020018280548015611a2157602002820191906000526020600020905b81546001600160a01b03168152600190910190602001808311611a03575b5050505050905090565b336000908152600b602052604090205460ff16611a5a5760405162461bcd60e51b81526004016106f69061206e565b60058190556040518181527f6ea576632a91ef2f8d4ee43600561b386f3c0254692977f0d33e17742bc535589060200161104b565b336000908152600b602052604090205460ff16611abe5760405162461bcd60e51b81526004016106f69061206e565b60068190556040518181527f8bfafad5cbd7165952ec3370b6dcf547a709f2dad989ecb117d6d361038dd8c59060200161104b565b6000611aff82846121b6565b9392505050565b6000611aff82846120f5565b6000826001600160a01b03168260405160006040518083038185875af1925050503d8060008114611b5f576040519150601f19603f3d011682016040523d82523d6000602084013e611b64565b606091505b5050905080611bc95760405162461bcd60e51b815260206004820152602b60248201527f5472616e73666572206661696c656420647572696e672073656e64696e67204d60448201526a6174696320746f6b656e7360a81b60648201526084016106f6565b505050565b6000611aff8284612252565b828054611be6906121e3565b90600052602060002090601f016020900481019282611c085760008555611c4e565b82601f10611c2157805160ff1916838001178555611c4e565b82800160010185558215611c4e579182015b82811115611c4e578251825591602001919060010190611c33565b50611c5a929150611c5e565b5090565b5b80821115611c5a5760008155600101611c5f565b634e487b7160e01b600052604160045260246000fd5b600082601f830112611c9a57600080fd5b813567ffffffffffffffff80821115611cb557611cb5611c73565b604051601f8301601f19908116603f01168101908282118183101715611cdd57611cdd611c73565b81604052838152866020858801011115611cf657600080fd5b836020870160208301376000602085830101528094505050505092915050565b600060208284031215611d2857600080fd5b813567ffffffffffffffff811115611d3f57600080fd5b611d4b84828501611c89565b949350505050565b600060208284031215611d6557600080fd5b5035919050565b60008060408385031215611d7f57600080fd5b82359150602083013567ffffffffffffffff811115611d9d57600080fd5b611da985828601611c89565b9150509250929050565b6001600160a01b0381168114611dc857600080fd5b50565b600060208284031215611ddd57600080fd5b8135611aff81611db3565b634e487b7160e01b600052602160045260246000fd5b6020810160038310611e2057634e487b7160e01b600052602160045260246000fd5b91905290565b60005b83811015611e41578181015183820152602001611e29565b83811115611e50576000848401525b50505050565b60008151808452611e6e816020860160208601611e26565b601f01601f19169290920160200192915050565b6000815160808452611e976080850182611e56565b6020848101516001600160a01b0316908601526040808501519086015260609384015193909401929092525090919050565b6000602080830181845280855180835260408601915060408160051b870101925083870160005b82811015611f1e57603f19888603018452611f0c858351611e82565b94509285019290850190600101611ef0565b5092979650505050505050565b602081526000611aff6020830184611e82565b600060208284031215611f5057600080fd5b813560ff81168114611aff57600080fd5b60008060408385031215611f7457600080fd5b50508035926020909101359150565b608081526000611f966080830187611e56565b6001600160a01b03959095166020830152506040810192909252606090910152919050565b600080600060608486031215611fd057600080fd5b505081359360208301359350604090920135919050565b60008060408385031215611ffa57600080fd5b823561200581611db3565b9150602083013567ffffffffffffffff811115611d9d57600080fd5b6020808252825182820181905260009190848201906040850190845b818110156120625783516001600160a01b03168352928401929184019160010161203d565b50909695505050505050565b60208082526014908201527327b7363c9030b236b4b71031b0b71031b0b6361760611b604082015260600190565b60208082526023908201527f5061727469636970616e7420496e646578206973206f7574206f6620626f756e60408201526232399760e91b606082015260800190565b634e487b7160e01b600052601160045260246000fd5b60008219821115612108576121086120df565b500190565b634e487b7160e01b600052603260045260246000fd5b60008251612135818460208701611e26565b9190910192915050565b60208082526023908201527f5468697320757365722069642069732072656769737465726564206561726c6960408201526232b91760e91b606082015260800190565b828152604060208201526000611d4b6040830184611e56565b60006000198214156121af576121af6120df565b5060010190565b6000828210156121c8576121c86120df565b500390565b634e487b7160e01b600052603160045260246000fd5b600181811c908216806121f757607f821691505b6020821081141561221857634e487b7160e01b600052602260045260246000fd5b50919050565b6001600160a01b038416815260606020820181905260009061224290830185611e56565b9050826040830152949350505050565b60008261226f57634e487b7160e01b600052601260045260246000fd5b50049056fea2646970667358221220692094e6632ab77d73a751d85b016cacf17933611a4337ef56aa1f2378fef79764736f6c634300080b0033",
  "immutableReferences": {},
  "source": "// SPDX-License-Identifier: GPL-3.0\n\npragma solidity >=0.7.0 <0.9.0;\n\nimport '@openzeppelin/contracts/utils/math/SafeMath.sol';\n\n/**\n * @title GoArtCampaign\n * @dev Distribute MATIC tokens in exchange for GoArt MTE Points collected within in the GoArt game.\n */\ncontract GoArtCampaign {\n\t// using SafeMath to prevent underflow & overflow bugs\n\tusing SafeMath for uint256;\n\n\t// contract's states are defined here.\n\tenum State {\n\t\tActive,\n\t\tClosed,\n\t\tFinalized\n\t}\n\n\tState public state = State.Closed;\n\n\tuint256 public maxRewardTotal = 200000 ether;\n\tuint256 public totalDistributedReward;\n\n\t// funding wallet of the contract\n\taddress payable public treasuryWallet;\n\n\t// service cost set by us\n\tuint256 public fee = 0.1 ether;\n\n\t// min amount\n\tuint256 public minimumAmountToWithdraw = 1 ether;\n\n\t// point to reward ratio\n\tuint256 public ratio = 10;\n\n\t// Participant structure for players\n\tstruct Participant {\n\t\tstring userId;\n\t\taddress payable walletAddress;\n\t\tuint256 claimed;\n\t\tuint256 claimable;\n\t}\n\n\t// Store the participants in an array\n\tParticipant[] public participants;\n\n\t// Listing all admins\n\taddress[] public admins;\n\n\t// mappings to store registered wallet addresses\n\tmapping(address => bool) public walletsRegistered;\n\n\t// mappings to store registered userIds to prevent same user joining the campaign multiple times.\n\tmapping(string => bool) public userIdsRegistered;\n\n\t// Modifier for easier checking if user is admin\n\tmapping(address => bool) public isAdmin;\n\n\t// event for EVM logging\n\tevent ParticipantRegistered(address walletAddress, string userId, uint256 participantIndex);\n\tevent MTEPointSwapped(uint256 totalAmount, uint256 participantIndex);\n\tevent MaticWithdrawn(uint256 amount, uint256 participantIndex);\n\tevent StateChanged(uint8 state);\n\tevent MaxRewardUpdated(uint256 maxReward);\n\tevent RatioUpdated(uint256 ratio);\n\tevent ServiceFeeUpdated(uint256 fee);\n\tevent TreasuryWalletUpdated(address walletAddress);\n\tevent MinimumAmountUpdated(uint256 minimumAmount);\n\tevent ParticipantCollectiblesUpdated(uint256 index);\n\tevent ParticipantIdUpdated(uint256 index, string uid);\n\n\t// Modifier restricting access to only admin\n\tmodifier onlyAdmin() {\n\t\trequire(isAdmin[msg.sender], 'Only admin can call.');\n\t\t_;\n\t}\n\n\t/**\n\t * @dev Constructor to set initial admins during deployment\n\t *\n\t */\n\tconstructor() {\n\t\ttreasuryWallet = payable(msg.sender);\n\t\tadmins.push(msg.sender);\n\t\tisAdmin[msg.sender] = true;\n\t\ttotalDistributedReward = 0;\n\t}\n\n\t/**\n\t * @dev register a new admin with the given wallet address\n\t *\n\t * @param _adminAddress admin address to be added\n\t */\n\tfunction addAdmin(address _adminAddress) external onlyAdmin {\n\t\t// Can't add 0x address as an admin\n\t\trequire(_adminAddress != address(0x0), '[RBAC] : Admin must be != than 0x0 address');\n\t\t// Can't add existing admin\n\t\trequire(!isAdmin[_adminAddress], '[RBAC] : Admin already exists.');\n\t\t// Add admin to array of admins\n\t\tadmins.push(_adminAddress);\n\t\t// Set mapping\n\t\tisAdmin[_adminAddress] = true;\n\t}\n\n\t/**\n\t * @dev remove an existing admin address\n\t *\n\t * @param _adminAddress admin address to be removed\n\t */\n\tfunction removeAdmin(address _adminAddress) external onlyAdmin {\n\t\t// Admin has to exist\n\t\trequire(isAdmin[_adminAddress]);\n\t\trequire(admins.length > 1, 'Can not remove all admins since contract becomes unusable.');\n\t\tuint256 i = 0;\n\n\t\twhile (admins[i] != _adminAddress) {\n\t\t\tif (i == admins.length) {\n\t\t\t\trevert('Passed admin address does not exist');\n\t\t\t}\n\t\t\ti++;\n\t\t}\n\n\t\t// Copy the last admin position to the current index\n\t\tadmins[i] = admins[admins.length - 1];\n\n\t\tisAdmin[_adminAddress] = false;\n\n\t\t// Remove the last admin, since it's double present\n\t\tadmins.pop();\n\t}\n\n\t// Fetch all admins\n\tfunction getAllAdmins() external view returns (address[] memory) {\n\t\treturn admins;\n\t}\n\n\t/**\n\t * @dev Change the current state of the contractregister a new admin with the given wallet address\n\t *\n\t * @param _state new state to be set\n\t */\n\tfunction changeState(uint8 _state) external onlyAdmin {\n\t\trequire(_state <= uint8(State.Finalized), 'Given state is not a valid state');\n\t\t// change the state to given state index.\n\t\tstate = State(_state);\n\t\t// emit the changed state.\n\t\temit StateChanged(_state);\n\t}\n\n\t// See the current state\n\tfunction getState() public view returns (State) {\n\t\treturn state;\n\t}\n\n\t/**\n\t * @dev Change the contract's max reward amount\n\t *\n\t * @param _maxReward new max reward\n\t */\n\tfunction changeMaxReward(uint256 _maxReward) external onlyAdmin {\n\t\tmaxRewardTotal = _maxReward;\n\t\temit MaxRewardUpdated(_maxReward);\n\t}\n\n\t/**\n\t * @dev Change award ratio\n\t *\n\t * @param _ratio new award ratio\n\t */\n\tfunction changeRatio(uint256 _ratio) external onlyAdmin {\n\t\tratio = _ratio;\n\t\temit RatioUpdated(_ratio);\n\t}\n\n\t/**\n\t * @dev Register a user's wallet address if the contract is in Active state.\n\t *\n\t * @param walletAddress wallet address to be registered\n\t * @param userId userId of the new user to be registered\n\t */\n\tfunction registerWallet(address payable walletAddress, string memory userId)\n\t\texternal\n\t\tonlyAdmin\n\t{\n\t\trequire(state == State.Active, 'Contract is not in active state at the moment!');\n\t\trequire(\n\t\t\t!walletsRegistered[walletAddress],\n\t\t\t'This wallet has been used to register earlier.'\n\t\t);\n\t\trequire(!userIdsRegistered[userId], 'This user id is registered earlier.');\n\n\t\twalletsRegistered[walletAddress] = true;\n\t\tuserIdsRegistered[userId] = true;\n\n\t\tParticipant memory participant = Participant(userId, walletAddress, 0, 0);\n\t\tparticipants.push(participant);\n\n\t\temit ParticipantRegistered(walletAddress, userId, participants.length - 1);\n\t}\n\n\t/**\n\t * @dev A user's MTE points can be swapped to MATIC through this function.\n\t *\n\t * @param _MTEPointsItemAmount Amount of MTE points to be swapped\n\t * @param _participantIndex Participant index\n\t */\n\tfunction swapMTEPointsToMatic(uint256 _MTEPointsItemAmount, uint256 _participantIndex)\n\t\texternal\n\t\tonlyAdmin\n\t{\n\t\trequire(state != State.Finalized, 'Contract is finalized. You cannot swap!');\n\t\trequire(_participantIndex < participants.length, 'Participant Index is out of bounds.');\n\t\trequire(\n\t\t\t_MTEPointsItemAmount > 0,\n\t\t\t'_MTEPointsItemAmount to be swapped has to be greater than 0.'\n\t\t);\n\n\t\tParticipant storage participant = participants[_participantIndex];\n\t\tuint256 maticAmount = _MTEPointsItemAmount.div(ratio);\n\t\tparticipant.claimable = participant.claimable.add(maticAmount);\n\n\t\temit MTEPointSwapped(participant.claimable, _participantIndex);\n\t}\n\n\t// return all participants\n\tfunction getAllParticipants() public view returns (Participant[] memory) {\n\t\treturn participants;\n\t}\n\n\t/**\n\t * @dev Transfer MATIC to given address.\n\t *\n\t * @param wallet recepient\n\t * @param amount amount to be sent\n\t */\n\tfunction sendMatic(address payable wallet, uint256 amount) internal {\n\t\t(bool success, ) = wallet.call{value: amount}('');\n\t\trequire(success, 'Transfer failed during sending Matic tokens');\n\t}\n\n\t/**\n\t * @dev Withdraw MATIC tokens for the given user\n\t *\n\t * @param _participantIndex Participant index of the user for withdrawal\n\t */\n\tfunction withdrawMaticTokens(uint256 _participantIndex) external payable onlyAdmin {\n\t\trequire(state != State.Finalized, 'Contract is finalized. You cannot withdraw!');\n\t\trequire(_participantIndex < participants.length, 'Participant Index is out of bounds.');\n\n\t\trequire(\n\t\t\tmsg.value >= minimumAmountToWithdraw,\n\t\t\t'You can withdraw minimum 1 MATIC. Anything below is not allowed.'\n\t\t);\n\n\t\tuint256 amountToBeWithdrawn = msg.value.sub(fee);\n\n\t\trequire(\n\t\t\ttotalDistributedReward + msg.value <= maxRewardTotal,\n\t\t\t'Given amount exceeds the total reward to be distributed from this contract'\n\t\t);\n\n\t\tParticipant storage participant = participants[_participantIndex];\n\t\trequire(\n\t\t\tparticipant.claimable.sub(amountToBeWithdrawn) >= 0,\n\t\t\t'Withdraw amount cannot be greater than total claimable amount!'\n\t\t);\n\n\t\t// subtract from claimable amount\n\t\tparticipant.claimable = participant.claimable.sub(msg.value);\n\n\t\t// increase the claimed amount with _amount\n\t\tparticipant.claimed = participant.claimed.add(msg.value);\n\n\t\t// transfer the funds\n\t\tsendMatic(participant.walletAddress, amountToBeWithdrawn);\n\t\t// get the service fee\n\t\tsendMatic(treasuryWallet, fee);\n\n\t\ttotalDistributedReward = totalDistributedReward.add(msg.value);\n\n\t\temit MaticWithdrawn(msg.value, _participantIndex);\n\t}\n\n\t/**\n\t * @dev Set new service fee\n\t *\n\t * @param _fee New fee\n\t */\n\tfunction setServiceFee(uint256 _fee) external onlyAdmin {\n\t\tfee = _fee;\n\t\temit ServiceFeeUpdated(_fee);\n\t}\n\n\t// get service fee\n\tfunction getServiceFee() public view returns (uint256) {\n\t\treturn fee;\n\t}\n\n\t// get maximum reward total\n\tfunction getMaxRewardTotal() public view returns (uint256) {\n\t\treturn maxRewardTotal;\n\t}\n\n\t/**\n\t * @dev Set minimum amount to withdraw\n\t *\n\t * @param _minimumAmount New minimum amount for withdrawal\n\t */\n\tfunction setMinimumAmount(uint256 _minimumAmount) external onlyAdmin {\n\t\tminimumAmountToWithdraw = _minimumAmount;\n\t\temit MinimumAmountUpdated(_minimumAmount);\n\t}\n\n\t// get minimum amount\n\tfunction getMinimumAmount() public view returns (uint256) {\n\t\treturn minimumAmountToWithdraw;\n\t}\n\n\t// get total distributed reward\n\tfunction getTotalDisributedReward() public view returns (uint256) {\n\t\treturn totalDistributedReward;\n\t}\n\n\t/**\n\t * @dev check if a wallet is registered\n\t *\n\t * @param _walletAddress Wallet address of the user\n\t * @return bool true if _walletAddress is registered.\n\t */\n\tfunction walletRegistered(address _walletAddress) public view returns (bool) {\n\t\treturn walletsRegistered[_walletAddress];\n\t}\n\n\t/**\n\t * @dev check if userId is registered\n\t *\n\t * @param _uuid userId of the user\n\t * @return bool true if _uuid is registered.\n\t */\n\tfunction userRegistered(string memory _uuid) public view returns (bool) {\n\t\treturn userIdsRegistered[_uuid];\n\t}\n\n\t/**\n\t * @dev change the treasury wallet\n\t *\n\t * @param _walletAddress new treasury wallet address\n\t */\n\tfunction changeTreasuryWallet(address _walletAddress) external onlyAdmin {\n\t\ttreasuryWallet = payable(_walletAddress);\n\t\temit TreasuryWalletUpdated(_walletAddress);\n\t}\n\n\t/**\n\t * @dev Get a single participany by index\n\t *\n\t * @param index Participant index\n\t * @return Participant the corresponding participant struct\n\t */\n\tfunction getParticipant(uint256 index) public view returns (Participant memory) {\n\t\treturn participants[index];\n\t}\n\n\t// get number of participants\n\tfunction getTotalParticipants() public view returns (uint256) {\n\t\treturn participants.length;\n\t}\n\n\t/**\n\t * @dev Update the participant\n\t *\n\t * @param index Participant index\n\t * @param claimed New claimed value\n\t * @param claimable New claimable value\n\t */\n\tfunction updateParticipantClaims(\n\t\tuint256 index,\n\t\tuint256 claimed,\n\t\tuint256 claimable\n\t) external onlyAdmin {\n\t\trequire(index < participants.length, 'Participant Index is out of bounds.');\n\t\tParticipant storage participant = participants[index];\n\t\tparticipant.claimed = claimed;\n\t\tparticipant.claimable = claimable;\n\t\temit ParticipantCollectiblesUpdated(index);\n\t}\n\n\t/**\n\t * @dev Update userId in case of an emergency\n\t *\n\t * @param index Participant index\n\t * @param uid New userId\n\t */\n\tfunction updateParticipantId(uint256 index, string memory uid) external onlyAdmin {\n\t\trequire(!userIdsRegistered[uid], 'This user id is registered earlier.');\n\t\trequire(index < participants.length, 'Participant Index is out of bounds.');\n\t\tParticipant storage participant = participants[index];\n\t\tparticipant.userId = uid;\n\t\tuserIdsRegistered[uid] = true;\n\t\temit ParticipantIdUpdated(index, uid);\n\t}\n}\n",
  "sourcePath": "/Users/tunahandag/Documents/RoofStacks/move-to-earn-event-smart-contracts/contracts/GoArtCampaign.sol",
  "compiler": {
    "name": "solc",
    "version": "0.8.11+commit.d7f03943.Emscripten.clang"
  },
  "schemaVersion": "3.4.4",
  "updatedAt": "2022-03-21T08:24:32.797Z",
  "devdoc": {
    "details": "Distribute MATIC tokens in exchange for GoArt MTE Points collected within in the GoArt game.",
    "kind": "dev",
    "methods": {
      "addAdmin(address)": {
        "details": "register a new admin with the given wallet address",
        "params": {
          "_adminAddress": "admin address to be added"
        }
      },
      "changeMaxReward(uint256)": {
        "details": "Change the contract's max reward amount",
        "params": {
          "_maxReward": "new max reward"
        }
      },
      "changeRatio(uint256)": {
        "details": "Change award ratio",
        "params": {
          "_ratio": "new award ratio"
        }
      },
      "changeState(uint8)": {
        "details": "Change the current state of the contractregister a new admin with the given wallet address",
        "params": {
          "_state": "new state to be set"
        }
      },
      "changeTreasuryWallet(address)": {
        "details": "change the treasury wallet",
        "params": {
          "_walletAddress": "new treasury wallet address"
        }
      },
      "constructor": {
        "details": "Constructor to set initial admins during deployment"
      },
      "getParticipant(uint256)": {
        "details": "Get a single participany by index",
        "params": {
          "index": "Participant index"
        },
        "returns": {
          "_0": "Participant the corresponding participant struct"
        }
      },
      "registerWallet(address,string)": {
        "details": "Register a user's wallet address if the contract is in Active state.",
        "params": {
          "userId": "userId of the new user to be registered",
          "walletAddress": "wallet address to be registered"
        }
      },
      "removeAdmin(address)": {
        "details": "remove an existing admin address",
        "params": {
          "_adminAddress": "admin address to be removed"
        }
      },
      "setMinimumAmount(uint256)": {
        "details": "Set minimum amount to withdraw",
        "params": {
          "_minimumAmount": "New minimum amount for withdrawal"
        }
      },
      "setServiceFee(uint256)": {
        "details": "Set new service fee",
        "params": {
          "_fee": "New fee"
        }
      },
      "swapMTEPointsToMatic(uint256,uint256)": {
        "details": "A user's MTE points can be swapped to MATIC through this function.",
        "params": {
          "_MTEPointsItemAmount": "Amount of MTE points to be swapped",
          "_participantIndex": "Participant index"
        }
      },
      "updateParticipantClaims(uint256,uint256,uint256)": {
        "details": "Update the participant",
        "params": {
          "claimable": "New claimable value",
          "claimed": "New claimed value",
          "index": "Participant index"
        }
      },
      "updateParticipantId(uint256,string)": {
        "details": "Update userId in case of an emergency",
        "params": {
          "index": "Participant index",
          "uid": "New userId"
        }
      },
      "userRegistered(string)": {
        "details": "check if userId is registered",
        "params": {
          "_uuid": "userId of the user"
        },
        "returns": {
          "_0": "bool true if _uuid is registered."
        }
      },
      "walletRegistered(address)": {
        "details": "check if a wallet is registered",
        "params": {
          "_walletAddress": "Wallet address of the user"
        },
        "returns": {
          "_0": "bool true if _walletAddress is registered."
        }
      },
      "withdrawMaticTokens(uint256)": {
        "details": "Withdraw MATIC tokens for the given user",
        "params": {
          "_participantIndex": "Participant index of the user for withdrawal"
        }
      }
    },
    "title": "GoArtCampaign",
    "version": 1
  },
  "userdoc": {
    "kind": "user",
    "methods": {},
    "version": 1
  }
}