{
  "contractName": "GoArtCampaign",
  "abi": [
    {
      "inputs": [],
      "stateMutability": "nonpayable",
      "type": "constructor"
    },
    {
      "anonymous": false,
      "inputs": [
        {
          "indexed": false,
          "internalType": "uint256",
          "name": "totalAmount",
          "type": "uint256"
        },
        {
          "indexed": false,
          "internalType": "uint256",
          "name": "participantIndex",
          "type": "uint256"
        }
      ],
      "name": "CollectibleItemSwapped",
      "type": "event"
    },
    {
      "anonymous": false,
      "inputs": [
        {
          "indexed": false,
          "internalType": "uint256",
          "name": "amount",
          "type": "uint256"
        },
        {
          "indexed": false,
          "internalType": "uint256",
          "name": "participantIndex",
          "type": "uint256"
        }
      ],
      "name": "MaticWithdrawn",
      "type": "event"
    },
    {
      "anonymous": false,
      "inputs": [
        {
          "indexed": false,
          "internalType": "address",
          "name": "walletAddress",
          "type": "address"
        },
        {
          "indexed": false,
          "internalType": "string",
          "name": "userId",
          "type": "string"
        },
        {
          "indexed": false,
          "internalType": "uint256",
          "name": "participantIndex",
          "type": "uint256"
        }
      ],
      "name": "ParticipantRegistered",
      "type": "event"
    },
    {
      "inputs": [
        {
          "internalType": "uint256",
          "name": "",
          "type": "uint256"
        }
      ],
      "name": "admins",
      "outputs": [
        {
          "internalType": "address",
          "name": "",
          "type": "address"
        }
      ],
      "stateMutability": "view",
      "type": "function"
    },
    {
      "inputs": [],
      "name": "fee",
      "outputs": [
        {
          "internalType": "uint256",
          "name": "",
          "type": "uint256"
        }
      ],
      "stateMutability": "view",
      "type": "function"
    },
    {
      "inputs": [],
      "name": "fundingWallet",
      "outputs": [
        {
          "internalType": "address payable",
          "name": "",
          "type": "address"
        }
      ],
      "stateMutability": "view",
      "type": "function"
    },
    {
      "inputs": [
        {
          "internalType": "address",
          "name": "",
          "type": "address"
        }
      ],
      "name": "isAdmin",
      "outputs": [
        {
          "internalType": "bool",
          "name": "",
          "type": "bool"
        }
      ],
      "stateMutability": "view",
      "type": "function"
    },
    {
      "inputs": [],
      "name": "maxRewardTotal",
      "outputs": [
        {
          "internalType": "uint256",
          "name": "",
          "type": "uint256"
        }
      ],
      "stateMutability": "view",
      "type": "function"
    },
    {
      "inputs": [],
      "name": "minimumAmountToWithdraw",
      "outputs": [
        {
          "internalType": "uint256",
          "name": "",
          "type": "uint256"
        }
      ],
      "stateMutability": "view",
      "type": "function"
    },
    {
      "inputs": [
        {
          "internalType": "uint256",
          "name": "",
          "type": "uint256"
        }
      ],
      "name": "participants",
      "outputs": [
        {
          "internalType": "string",
          "name": "userId",
          "type": "string"
        },
        {
          "internalType": "address payable",
          "name": "walletAddress",
          "type": "address"
        },
        {
          "internalType": "uint256",
          "name": "claimed",
          "type": "uint256"
        },
        {
          "internalType": "uint256",
          "name": "claimable",
          "type": "uint256"
        }
      ],
      "stateMutability": "view",
      "type": "function"
    },
    {
      "inputs": [],
      "name": "ratio",
      "outputs": [
        {
          "internalType": "uint256",
          "name": "",
          "type": "uint256"
        }
      ],
      "stateMutability": "view",
      "type": "function"
    },
    {
      "inputs": [],
      "name": "state",
      "outputs": [
        {
          "internalType": "enum GoArtCampaign.State",
          "name": "",
          "type": "uint8"
        }
      ],
      "stateMutability": "view",
      "type": "function"
    },
    {
      "inputs": [],
      "name": "totalDistributedReward",
      "outputs": [
        {
          "internalType": "uint256",
          "name": "",
          "type": "uint256"
        }
      ],
      "stateMutability": "view",
      "type": "function"
    },
    {
      "inputs": [
        {
          "internalType": "string",
          "name": "",
          "type": "string"
        }
      ],
      "name": "userIdsRegistered",
      "outputs": [
        {
          "internalType": "bool",
          "name": "",
          "type": "bool"
        }
      ],
      "stateMutability": "view",
      "type": "function"
    },
    {
      "inputs": [
        {
          "internalType": "address",
          "name": "",
          "type": "address"
        }
      ],
      "name": "walletsRegistered",
      "outputs": [
        {
          "internalType": "bool",
          "name": "",
          "type": "bool"
        }
      ],
      "stateMutability": "view",
      "type": "function"
    },
    {
      "inputs": [
        {
          "internalType": "address",
          "name": "_adminAddress",
          "type": "address"
        }
      ],
      "name": "addAdmin",
      "outputs": [],
      "stateMutability": "nonpayable",
      "type": "function"
    },
    {
      "inputs": [
        {
          "internalType": "address",
          "name": "_adminAddress",
          "type": "address"
        }
      ],
      "name": "removeAdmin",
      "outputs": [],
      "stateMutability": "nonpayable",
      "type": "function"
    },
    {
      "inputs": [],
      "name": "getAllAdmins",
      "outputs": [
        {
          "internalType": "address[]",
          "name": "",
          "type": "address[]"
        }
      ],
      "stateMutability": "view",
      "type": "function"
    },
    {
      "inputs": [],
      "name": "setStateActive",
      "outputs": [],
      "stateMutability": "nonpayable",
      "type": "function"
    },
    {
      "inputs": [],
      "name": "setStateClosed",
      "outputs": [],
      "stateMutability": "nonpayable",
      "type": "function"
    },
    {
      "inputs": [],
      "name": "getState",
      "outputs": [
        {
          "internalType": "enum GoArtCampaign.State",
          "name": "",
          "type": "uint8"
        }
      ],
      "stateMutability": "view",
      "type": "function"
    },
    {
      "inputs": [
        {
          "internalType": "uint256",
          "name": "_maxReward",
          "type": "uint256"
        }
      ],
      "name": "changeMaxReward",
      "outputs": [],
      "stateMutability": "nonpayable",
      "type": "function"
    },
    {
      "inputs": [
        {
          "internalType": "uint256",
          "name": "_ratio",
          "type": "uint256"
        }
      ],
      "name": "changeRatio",
      "outputs": [],
      "stateMutability": "nonpayable",
      "type": "function"
    },
    {
      "inputs": [
        {
          "internalType": "address payable",
          "name": "walletAddress",
          "type": "address"
        },
        {
          "internalType": "string",
          "name": "userId",
          "type": "string"
        }
      ],
      "name": "registerWallet",
      "outputs": [],
      "stateMutability": "nonpayable",
      "type": "function"
    },
    {
      "inputs": [
        {
          "internalType": "uint256",
          "name": "_collectibleItemAmount",
          "type": "uint256"
        },
        {
          "internalType": "uint256",
          "name": "_participantIndex",
          "type": "uint256"
        }
      ],
      "name": "swapCollectibleItemsToMatic",
      "outputs": [],
      "stateMutability": "nonpayable",
      "type": "function"
    },
    {
      "inputs": [],
      "name": "getAllParticipants",
      "outputs": [
        {
          "components": [
            {
              "internalType": "string",
              "name": "userId",
              "type": "string"
            },
            {
              "internalType": "address payable",
              "name": "walletAddress",
              "type": "address"
            },
            {
              "internalType": "uint256",
              "name": "claimed",
              "type": "uint256"
            },
            {
              "internalType": "uint256",
              "name": "claimable",
              "type": "uint256"
            }
          ],
          "internalType": "struct GoArtCampaign.Participant[]",
          "name": "",
          "type": "tuple[]"
        }
      ],
      "stateMutability": "view",
      "type": "function"
    },
    {
      "inputs": [
        {
          "internalType": "uint256",
          "name": "_participantIndex",
          "type": "uint256"
        }
      ],
      "name": "withdrawMaticTokens",
      "outputs": [],
      "stateMutability": "payable",
      "type": "function"
    },
    {
      "inputs": [
        {
          "internalType": "uint256",
          "name": "_fee",
          "type": "uint256"
        }
      ],
      "name": "setServiceFee",
      "outputs": [],
      "stateMutability": "nonpayable",
      "type": "function"
    },
    {
      "inputs": [],
      "name": "getServiceFee",
      "outputs": [
        {
          "internalType": "uint256",
          "name": "",
          "type": "uint256"
        }
      ],
      "stateMutability": "view",
      "type": "function"
    },
    {
      "inputs": [],
      "name": "getMaxRewardTotal",
      "outputs": [
        {
          "internalType": "uint256",
          "name": "",
          "type": "uint256"
        }
      ],
      "stateMutability": "view",
      "type": "function"
    },
    {
      "inputs": [
        {
          "internalType": "uint256",
          "name": "_minimumAmount",
          "type": "uint256"
        }
      ],
      "name": "setMinimumAmount",
      "outputs": [],
      "stateMutability": "nonpayable",
      "type": "function"
    },
    {
      "inputs": [],
      "name": "getMinimumAmount",
      "outputs": [
        {
          "internalType": "uint256",
          "name": "",
          "type": "uint256"
        }
      ],
      "stateMutability": "view",
      "type": "function"
    },
    {
      "inputs": [],
      "name": "getTotalDisributedReward",
      "outputs": [
        {
          "internalType": "uint256",
          "name": "",
          "type": "uint256"
        }
      ],
      "stateMutability": "view",
      "type": "function"
    },
    {
      "inputs": [
        {
          "internalType": "address",
          "name": "_walletAddress",
          "type": "address"
        }
      ],
      "name": "walletRegistered",
      "outputs": [
        {
          "internalType": "bool",
          "name": "",
          "type": "bool"
        }
      ],
      "stateMutability": "view",
      "type": "function"
    },
    {
      "inputs": [
        {
          "internalType": "string",
          "name": "_uuid",
          "type": "string"
        }
      ],
      "name": "userRegistered",
      "outputs": [
        {
          "internalType": "bool",
          "name": "",
          "type": "bool"
        }
      ],
      "stateMutability": "view",
      "type": "function"
    },
    {
      "inputs": [],
      "name": "changeFundingWallet",
      "outputs": [],
      "stateMutability": "nonpayable",
      "type": "function"
    }
  ],
  "bytecode": "0x608060405260016000806101000a81548160ff021916908360018111156200002c576200002b62000174565b5b0217905550692a5a058fc295ed00000060015567016345785d8a0000600455670de0b6b3a7640000600555600a6006553480156200006957600080fd5b5033600360006101000a81548173ffffffffffffffffffffffffffffffffffffffff021916908373ffffffffffffffffffffffffffffffffffffffff1602179055506008339080600181540180825580915050600190039060005260206000200160009091909190916101000a81548173ffffffffffffffffffffffffffffffffffffffff021916908373ffffffffffffffffffffffffffffffffffffffff1602179055506001600b60003373ffffffffffffffffffffffffffffffffffffffff1673ffffffffffffffffffffffffffffffffffffffff16815260200190815260200160002060006101000a81548160ff0219169083151502179055506000600281905550620001a3565b7f4e487b7100000000000000000000000000000000000000000000000000000000600052602160045260246000fd5b6133d580620001b36000396000f3fe6080604052600436106101ee5760003560e01c806362066eb31161010d578063c0bc2bdf116100a0578063deaa8afd1161006f578063deaa8afd146106d1578063e9523c97146106fc578063eeb4a9c814610727578063f6a3325314610750578063fb7ed3c814610779576101ee565b8063c0bc2bdf1461063b578063c19d93fb14610664578063cea6d9771461068f578063ddca3f43146106a6576101ee565b80639753ba9a116100dc5780639753ba9a14610591578063a0e1604a146105bc578063a82dbaeb146105d3578063ac2c9c0f146105fe576101ee565b806362066eb3146104e7578063704802751461051257806371ca337d1461053b578063949fe3ae14610566576101ee565b80631dd1bff11161018557806335c1d3491161015457806335c1d3491461043c5780633c4b40b81461047c5780635a3eec03146104a75780635cdf76f8146104be576101ee565b80631dd1bff11461035c5780631f34556a1461039957806321c81c00146103c257806324d7806c146103ff576101ee565b806314bfd6d0116101c157806314bfd6d0146102a05780631785f53c146102dd5780631865c57d14610306578063195ec9ee14610331576101ee565b8063014dd8af146101f35780630c2171c31461021c5780630ef306f41461025957806311a1933c14610275575b600080fd5b3480156101ff57600080fd5b5061021a60048036038101906102159190612111565b6107a4565b005b34801561022857600080fd5b50610243600480360381019061023e9190612297565b610988565b60405161025091906122fb565b60405180910390f35b610273600480360381019061026e9190612316565b6109be565b005b34801561028157600080fd5b5061028a610ce1565b6040516102979190612352565b60405180910390f35b3480156102ac57600080fd5b506102c760048036038101906102c29190612316565b610ceb565b6040516102d491906123ae565b60405180910390f35b3480156102e957600080fd5b5061030460048036038101906102ff91906123f5565b610d2a565b005b34801561031257600080fd5b5061031b611072565b6040516103289190612499565b60405180910390f35b34801561033d57600080fd5b50610346611088565b6040516103539190612691565b60405180910390f35b34801561036857600080fd5b50610383600480360381019061037e91906123f5565b6111e3565b60405161039091906122fb565b60405180910390f35b3480156103a557600080fd5b506103c060048036038101906103bb9190612316565b611203565b005b3480156103ce57600080fd5b506103e960048036038101906103e49190612297565b611299565b6040516103f691906122fb565b60405180910390f35b34801561040b57600080fd5b50610426600480360381019061042191906123f5565b6112ce565b60405161043391906122fb565b60405180910390f35b34801561044857600080fd5b50610463600480360381019061045e9190612316565b6112ee565b604051610473949392919061270c565b60405180910390f35b34801561048857600080fd5b506104916113d6565b60405161049e9190612758565b60405180910390f35b3480156104b357600080fd5b506104bc6113fc565b005b3480156104ca57600080fd5b506104e560048036038101906104e09190612316565b6114b4565b005b3480156104f357600080fd5b506104fc61154a565b6040516105099190612352565b60405180910390f35b34801561051e57600080fd5b50610539600480360381019061053491906123f5565b611554565b005b34801561054757600080fd5b5061055061179b565b60405161055d9190612352565b60405180910390f35b34801561057257600080fd5b5061057b6117a1565b6040516105889190612352565b60405180910390f35b34801561059d57600080fd5b506105a66117ab565b6040516105b39190612352565b60405180910390f35b3480156105c857600080fd5b506105d16117b1565b005b3480156105df57600080fd5b506105e8611880565b6040516105f59190612352565b60405180910390f35b34801561060a57600080fd5b50610625600480360381019061062091906123f5565b61188a565b60405161063291906122fb565b60405180910390f35b34801561064757600080fd5b50610662600480360381019061065d919061279f565b6118e0565b005b34801561067057600080fd5b50610679611c9c565b6040516106869190612499565b60405180910390f35b34801561069b57600080fd5b506106a4611cad565b005b3480156106b257600080fd5b506106bb611d65565b6040516106c89190612352565b60405180910390f35b3480156106dd57600080fd5b506106e6611d6b565b6040516106f39190612352565b60405180910390f35b34801561070857600080fd5b50610711611d71565b60405161071e91906128b9565b60405180910390f35b34801561073357600080fd5b5061074e60048036038101906107499190612316565b611dff565b005b34801561075c57600080fd5b5061077760048036038101906107729190612316565b611e95565b005b34801561078557600080fd5b5061078e611f2b565b60405161079b9190612352565b60405180910390f35b600b60003373ffffffffffffffffffffffffffffffffffffffff1673ffffffffffffffffffffffffffffffffffffffff16815260200190815260200160002060009054906101000a900460ff16610830576040517f08c379a000000000000000000000000000000000000000000000000000000000815260040161082790612927565b60405180910390fd5b6000600181111561084457610843612422565b5b60008054906101000a900460ff16600181111561086457610863612422565b5b146108a4576040517f08c379a000000000000000000000000000000000000000000000000000000000815260040161089b906129b9565b60405180910390fd5b600082116108e7576040517f08c379a00000000000000000000000000000000000000000000000000000000081526004016108de90612a4b565b60405180910390fd5b6000600782815481106108fd576108fc612a6b565b5b90600052602060002090600402019050600061092460065485611f3190919063ffffffff16565b905061093d818360030154611f4790919063ffffffff16565b82600301819055507f488d29b098b2ddcad8148748d0fa9c8963b9913e0f1e6cf346360bcd027fa17882600301548460405161097a929190612a9a565b60405180910390a150505050565b600a818051602081018201805184825260208301602085012081835280955050505050506000915054906101000a900460ff1681565b600b60003373ffffffffffffffffffffffffffffffffffffffff1673ffffffffffffffffffffffffffffffffffffffff16815260200190815260200160002060009054906101000a900460ff16610a4a576040517f08c379a0000000000000000000000000000000000000000000000000000000008152600401610a4190612927565b60405180910390fd5b60006001811115610a5e57610a5d612422565b5b60008054906101000a900460ff166001811115610a7e57610a7d612422565b5b14610abe576040517f08c379a0000000000000000000000000000000000000000000000000000000008152600401610ab5906129b9565b60405180910390fd5b600554341015610b03576040517f08c379a0000000000000000000000000000000000000000000000000000000008152600401610afa90612b35565b60405180910390fd5b6000610b1a60045434611f5d90919063ffffffff16565b905060015434600254610b2d9190612b84565b1115610b6e576040517f08c379a0000000000000000000000000000000000000000000000000000000008152600401610b6590612c72565b60405180910390fd5b600060078381548110610b8457610b83612a6b565b5b906000526020600020906004020190506000610bad838360030154611f5d90919063ffffffff16565b1015610bee576040517f08c379a0000000000000000000000000000000000000000000000000000000008152600401610be590612d04565b60405180910390fd5b610c05348260030154611f5d90919063ffffffff16565b8160030181905550610c24348260020154611f4790919063ffffffff16565b8160020181905550610c5a8160010160009054906101000a900473ffffffffffffffffffffffffffffffffffffffff1683611f73565b610c88600360009054906101000a900473ffffffffffffffffffffffffffffffffffffffff16600454611f73565b610c9d34600254611f4790919063ffffffff16565b6002819055507f97ca5fc2126c470f78664e5b1f9c6e61d1b1a2acdb9c001cf9afa1c755126e103484604051610cd4929190612a9a565b60405180910390a1505050565b6000600454905090565b60088181548110610cfb57600080fd5b906000526020600020016000915054906101000a900473ffffffffffffffffffffffffffffffffffffffff1681565b600b60003373ffffffffffffffffffffffffffffffffffffffff1673ffffffffffffffffffffffffffffffffffffffff16815260200190815260200160002060009054906101000a900460ff16610db6576040517f08c379a0000000000000000000000000000000000000000000000000000000008152600401610dad90612927565b60405180910390fd5b600b60008273ffffffffffffffffffffffffffffffffffffffff1673ffffffffffffffffffffffffffffffffffffffff16815260200190815260200160002060009054906101000a900460ff16610e0c57600080fd5b600160088054905011610e54576040517f08c379a0000000000000000000000000000000000000000000000000000000008152600401610e4b90612d96565b60405180910390fd5b60005b8173ffffffffffffffffffffffffffffffffffffffff1660088281548110610e8257610e81612a6b565b5b9060005260206000200160009054906101000a900473ffffffffffffffffffffffffffffffffffffffff1673ffffffffffffffffffffffffffffffffffffffff1614610f2357600880549050811415610f10576040517f08c379a0000000000000000000000000000000000000000000000000000000008152600401610f0790612e28565b60405180910390fd5b8080610f1b90612e48565b915050610e57565b60086001600880549050610f379190612e91565b81548110610f4857610f47612a6b565b5b9060005260206000200160009054906101000a900473ffffffffffffffffffffffffffffffffffffffff1660088281548110610f8757610f86612a6b565b5b9060005260206000200160006101000a81548173ffffffffffffffffffffffffffffffffffffffff021916908373ffffffffffffffffffffffffffffffffffffffff1602179055506000600b60008473ffffffffffffffffffffffffffffffffffffffff1673ffffffffffffffffffffffffffffffffffffffff16815260200190815260200160002060006101000a81548160ff021916908315150217905550600880548061103957611038612ec5565b5b6001900381819060005260206000200160006101000a81549073ffffffffffffffffffffffffffffffffffffffff021916905590555050565b60008060009054906101000a900460ff16905090565b60606007805480602002602001604051908101604052809291908181526020016000905b828210156111da57838290600052602060002090600402016040518060800160405290816000820180546110df90612f23565b80601f016020809104026020016040519081016040528092919081815260200182805461110b90612f23565b80156111585780601f1061112d57610100808354040283529160200191611158565b820191906000526020600020905b81548152906001019060200180831161113b57829003601f168201915b505050505081526020016001820160009054906101000a900473ffffffffffffffffffffffffffffffffffffffff1673ffffffffffffffffffffffffffffffffffffffff1673ffffffffffffffffffffffffffffffffffffffff16815260200160028201548152602001600382015481525050815260200190600101906110ac565b50505050905090565b60096020528060005260406000206000915054906101000a900460ff1681565b600b60003373ffffffffffffffffffffffffffffffffffffffff1673ffffffffffffffffffffffffffffffffffffffff16815260200190815260200160002060009054906101000a900460ff1661128f576040517f08c379a000000000000000000000000000000000000000000000000000000000815260040161128690612927565b60405180910390fd5b8060018190555050565b6000600a826040516112ab9190612f91565b908152602001604051809103902060009054906101000a900460ff169050919050565b600b6020528060005260406000206000915054906101000a900460ff1681565b600781815481106112fe57600080fd5b906000526020600020906004020160009150905080600001805461132190612f23565b80601f016020809104026020016040519081016040528092919081815260200182805461134d90612f23565b801561139a5780601f1061136f5761010080835404028352916020019161139a565b820191906000526020600020905b81548152906001019060200180831161137d57829003601f168201915b5050505050908060010160009054906101000a900473ffffffffffffffffffffffffffffffffffffffff16908060020154908060030154905084565b600360009054906101000a900473ffffffffffffffffffffffffffffffffffffffff1681565b600b60003373ffffffffffffffffffffffffffffffffffffffff1673ffffffffffffffffffffffffffffffffffffffff16815260200190815260200160002060009054906101000a900460ff16611488576040517f08c379a000000000000000000000000000000000000000000000000000000000815260040161147f90612927565b60405180910390fd5b60016000806101000a81548160ff021916908360018111156114ad576114ac612422565b5b0217905550565b600b60003373ffffffffffffffffffffffffffffffffffffffff1673ffffffffffffffffffffffffffffffffffffffff16815260200190815260200160002060009054906101000a900460ff16611540576040517f08c379a000000000000000000000000000000000000000000000000000000000815260040161153790612927565b60405180910390fd5b8060048190555050565b6000600554905090565b600b60003373ffffffffffffffffffffffffffffffffffffffff1673ffffffffffffffffffffffffffffffffffffffff16815260200190815260200160002060009054906101000a900460ff166115e0576040517f08c379a00000000000000000000000000000000000000000000000000000000081526004016115d790612927565b60405180910390fd5b600073ffffffffffffffffffffffffffffffffffffffff168173ffffffffffffffffffffffffffffffffffffffff161415611650576040517f08c379a00000000000000000000000000000000000000000000000000000000081526004016116479061301a565b60405180910390fd5b600b60008273ffffffffffffffffffffffffffffffffffffffff1673ffffffffffffffffffffffffffffffffffffffff16815260200190815260200160002060009054906101000a900460ff16156116dd576040517f08c379a00000000000000000000000000000000000000000000000000000000081526004016116d490613086565b60405180910390fd5b6008819080600181540180825580915050600190039060005260206000200160009091909190916101000a81548173ffffffffffffffffffffffffffffffffffffffff021916908373ffffffffffffffffffffffffffffffffffffffff1602179055506001600b60008373ffffffffffffffffffffffffffffffffffffffff1673ffffffffffffffffffffffffffffffffffffffff16815260200190815260200160002060006101000a81548160ff02191690831515021790555050565b60065481565b6000600254905090565b60055481565b600b60003373ffffffffffffffffffffffffffffffffffffffff1673ffffffffffffffffffffffffffffffffffffffff16815260200190815260200160002060009054906101000a900460ff1661183d576040517f08c379a000000000000000000000000000000000000000000000000000000000815260040161183490612927565b60405180910390fd5b33600360006101000a81548173ffffffffffffffffffffffffffffffffffffffff021916908373ffffffffffffffffffffffffffffffffffffffff160217905550565b6000600154905090565b6000600960008373ffffffffffffffffffffffffffffffffffffffff1673ffffffffffffffffffffffffffffffffffffffff16815260200190815260200160002060009054906101000a900460ff169050919050565b600b60003373ffffffffffffffffffffffffffffffffffffffff1673ffffffffffffffffffffffffffffffffffffffff16815260200190815260200160002060009054906101000a900460ff1661196c576040517f08c379a000000000000000000000000000000000000000000000000000000000815260040161196390612927565b60405180910390fd5b600060018111156119805761197f612422565b5b60008054906101000a900460ff1660018111156119a05761199f612422565b5b146119e0576040517f08c379a00000000000000000000000000000000000000000000000000000000081526004016119d7906129b9565b60405180910390fd5b600960008373ffffffffffffffffffffffffffffffffffffffff1673ffffffffffffffffffffffffffffffffffffffff16815260200190815260200160002060009054906101000a900460ff1615611a6d576040517f08c379a0000000000000000000000000000000000000000000000000000000008152600401611a6490613118565b60405180910390fd5b600a81604051611a7d9190612f91565b908152602001604051809103902060009054906101000a900460ff1615611ad9576040517f08c379a0000000000000000000000000000000000000000000000000000000008152600401611ad0906131aa565b60405180910390fd5b6001600960008473ffffffffffffffffffffffffffffffffffffffff1673ffffffffffffffffffffffffffffffffffffffff16815260200190815260200160002060006101000a81548160ff0219169083151502179055506001600a82604051611b439190612f91565b908152602001604051809103902060006101000a81548160ff021916908315150217905550600060405180608001604052808381526020018473ffffffffffffffffffffffffffffffffffffffff168152602001600081526020016000815250905060078190806001815401808255809150506001900390600052602060002090600402016000909190919091506000820151816000019080519060200190611bed929190612024565b5060208201518160010160006101000a81548173ffffffffffffffffffffffffffffffffffffffff021916908373ffffffffffffffffffffffffffffffffffffffff160217905550604082015181600201556060820151816003015550507f180ca236964eb44f7a80db451e81e467b5de50df3f83d795d13e28cc609444d383836001600780549050611c809190612e91565b604051611c8f93929190613229565b60405180910390a1505050565b60008054906101000a900460ff1681565b600b60003373ffffffffffffffffffffffffffffffffffffffff1673ffffffffffffffffffffffffffffffffffffffff16815260200190815260200160002060009054906101000a900460ff16611d39576040517f08c379a0000000000000000000000000000000000000000000000000000000008152600401611d3090612927565b60405180910390fd5b60008060006101000a81548160ff02191690836001811115611d5e57611d5d612422565b5b0217905550565b60045481565b60025481565b60606008805480602002602001604051908101604052809291908181526020018280548015611df557602002820191906000526020600020905b8160009054906101000a900473ffffffffffffffffffffffffffffffffffffffff1673ffffffffffffffffffffffffffffffffffffffff1681526020019060010190808311611dab575b5050505050905090565b600b60003373ffffffffffffffffffffffffffffffffffffffff1673ffffffffffffffffffffffffffffffffffffffff16815260200190815260200160002060009054906101000a900460ff16611e8b576040517f08c379a0000000000000000000000000000000000000000000000000000000008152600401611e8290612927565b60405180910390fd5b8060058190555050565b600b60003373ffffffffffffffffffffffffffffffffffffffff1673ffffffffffffffffffffffffffffffffffffffff16815260200190815260200160002060009054906101000a900460ff16611f21576040517f08c379a0000000000000000000000000000000000000000000000000000000008152600401611f1890612927565b60405180910390fd5b8060068190555050565b60015481565b60008183611f3f9190613296565b905092915050565b60008183611f559190612b84565b905092915050565b60008183611f6b9190612e91565b905092915050565b60008273ffffffffffffffffffffffffffffffffffffffff1682604051611f99906132f8565b60006040518083038185875af1925050503d8060008114611fd6576040519150601f19603f3d011682016040523d82523d6000602084013e611fdb565b606091505b505090508061201f576040517f08c379a00000000000000000000000000000000000000000000000000000000081526004016120169061337f565b60405180910390fd5b505050565b82805461203090612f23565b90600052602060002090601f0160209004810192826120525760008555612099565b82601f1061206b57805160ff1916838001178555612099565b82800160010185558215612099579182015b8281111561209857825182559160200191906001019061207d565b5b5090506120a691906120aa565b5090565b5b808211156120c35760008160009055506001016120ab565b5090565b6000604051905090565b600080fd5b600080fd5b6000819050919050565b6120ee816120db565b81146120f957600080fd5b50565b60008135905061210b816120e5565b92915050565b60008060408385031215612128576121276120d1565b5b6000612136858286016120fc565b9250506020612147858286016120fc565b9150509250929050565b600080fd5b600080fd5b6000601f19601f8301169050919050565b7f4e487b7100000000000000000000000000000000000000000000000000000000600052604160045260246000fd5b6121a48261215b565b810181811067ffffffffffffffff821117156121c3576121c261216c565b5b80604052505050565b60006121d66120c7565b90506121e2828261219b565b919050565b600067ffffffffffffffff8211156122025761220161216c565b5b61220b8261215b565b9050602081019050919050565b82818337600083830152505050565b600061223a612235846121e7565b6121cc565b90508281526020810184848401111561225657612255612156565b5b612261848285612218565b509392505050565b600082601f83011261227e5761227d612151565b5b813561228e848260208601612227565b91505092915050565b6000602082840312156122ad576122ac6120d1565b5b600082013567ffffffffffffffff8111156122cb576122ca6120d6565b5b6122d784828501612269565b91505092915050565b60008115159050919050565b6122f5816122e0565b82525050565b600060208201905061231060008301846122ec565b92915050565b60006020828403121561232c5761232b6120d1565b5b600061233a848285016120fc565b91505092915050565b61234c816120db565b82525050565b60006020820190506123676000830184612343565b92915050565b600073ffffffffffffffffffffffffffffffffffffffff82169050919050565b60006123988261236d565b9050919050565b6123a88161238d565b82525050565b60006020820190506123c3600083018461239f565b92915050565b6123d28161238d565b81146123dd57600080fd5b50565b6000813590506123ef816123c9565b92915050565b60006020828403121561240b5761240a6120d1565b5b6000612419848285016123e0565b91505092915050565b7f4e487b7100000000000000000000000000000000000000000000000000000000600052602160045260246000fd5b6002811061246257612461612422565b5b50565b600081905061247382612451565b919050565b600061248382612465565b9050919050565b61249381612478565b82525050565b60006020820190506124ae600083018461248a565b92915050565b600081519050919050565b600082825260208201905092915050565b6000819050602082019050919050565b600081519050919050565b600082825260208201905092915050565b60005b8381101561251a5780820151818401526020810190506124ff565b83811115612529576000848401525b50505050565b600061253a826124e0565b61254481856124eb565b93506125548185602086016124fc565b61255d8161215b565b840191505092915050565b60006125738261236d565b9050919050565b61258381612568565b82525050565b612592816120db565b82525050565b600060808301600083015184820360008601526125b5828261252f565b91505060208301516125ca602086018261257a565b5060408301516125dd6040860182612589565b5060608301516125f06060860182612589565b508091505092915050565b60006126078383612598565b905092915050565b6000602082019050919050565b6000612627826124b4565b61263181856124bf565b935083602082028501612643856124d0565b8060005b8581101561267f578484038952815161266085826125fb565b945061266b8361260f565b925060208a01995050600181019050612647565b50829750879550505050505092915050565b600060208201905081810360008301526126ab818461261c565b905092915050565b600082825260208201905092915050565b60006126cf826124e0565b6126d981856126b3565b93506126e98185602086016124fc565b6126f28161215b565b840191505092915050565b61270681612568565b82525050565b6000608082019050818103600083015261272681876126c4565b905061273560208301866126fd565b6127426040830185612343565b61274f6060830184612343565b95945050505050565b600060208201905061276d60008301846126fd565b92915050565b61277c81612568565b811461278757600080fd5b50565b60008135905061279981612773565b92915050565b600080604083850312156127b6576127b56120d1565b5b60006127c48582860161278a565b925050602083013567ffffffffffffffff8111156127e5576127e46120d6565b5b6127f185828601612269565b9150509250929050565b600081519050919050565b600082825260208201905092915050565b6000819050602082019050919050565b6128308161238d565b82525050565b60006128428383612827565b60208301905092915050565b6000602082019050919050565b6000612866826127fb565b6128708185612806565b935061287b83612817565b8060005b838110156128ac5781516128938882612836565b975061289e8361284e565b92505060018101905061287f565b5085935050505092915050565b600060208201905081810360008301526128d3818461285b565b905092915050565b7f4f6e6c792061646d696e2063616e2063616c6c2e000000000000000000000000600082015250565b60006129116014836126b3565b915061291c826128db565b602082019050919050565b6000602082019050818103600083015261294081612904565b9050919050565b7f436f6e7472616374206973206e6f7420696e206163746976652073746174652060008201527f617420746865206d6f6d656e7421000000000000000000000000000000000000602082015250565b60006129a3602e836126b3565b91506129ae82612947565b604082019050919050565b600060208201905081810360008301526129d281612996565b9050919050565b7f5f636f6c6c65637469626c654974656d416d6f756e7420746f2062652073776160008201527f707065642068617320746f2062652067726561746572207468616e20302e0000602082015250565b6000612a35603e836126b3565b9150612a40826129d9565b604082019050919050565b60006020820190508181036000830152612a6481612a28565b9050919050565b7f4e487b7100000000000000000000000000000000000000000000000000000000600052603260045260246000fd5b6000604082019050612aaf6000830185612343565b612abc6020830184612343565b9392505050565b7f596f752063616e207769746864726177206d696e696d756d2031204d4154494360008201527f2e20416e797468696e672062656c6f77206973206e6f7420616c6c6f7765642e602082015250565b6000612b1f6040836126b3565b9150612b2a82612ac3565b604082019050919050565b60006020820190508181036000830152612b4e81612b12565b9050919050565b7f4e487b7100000000000000000000000000000000000000000000000000000000600052601160045260246000fd5b6000612b8f826120db565b9150612b9a836120db565b9250827fffffffffffffffffffffffffffffffffffffffffffffffffffffffffffffffff03821115612bcf57612bce612b55565b5b828201905092915050565b7f476976656e20616d6f756e7420657863656564732074686520746f74616c207260008201527f657761726420746f2062652064697374726962757465642066726f6d2074686960208201527f7320636f6e747261637400000000000000000000000000000000000000000000604082015250565b6000612c5c604a836126b3565b9150612c6782612bda565b606082019050919050565b60006020820190508181036000830152612c8b81612c4f565b9050919050565b7f576974686472617720616d6f756e742063616e6e6f742062652067726561746560008201527f72207468616e20746f74616c20636c61696d61626c6520616d6f756e74210000602082015250565b6000612cee603e836126b3565b9150612cf982612c92565b604082019050919050565b60006020820190508181036000830152612d1d81612ce1565b9050919050565b7f43616e206e6f742072656d6f766520616c6c2061646d696e732073696e63652060008201527f636f6e7472616374206265636f6d657320756e757361626c652e000000000000602082015250565b6000612d80603a836126b3565b9150612d8b82612d24565b604082019050919050565b60006020820190508181036000830152612daf81612d73565b9050919050565b7f5061737365642061646d696e206164647265737320646f6573206e6f7420657860008201527f6973740000000000000000000000000000000000000000000000000000000000602082015250565b6000612e126023836126b3565b9150612e1d82612db6565b604082019050919050565b60006020820190508181036000830152612e4181612e05565b9050919050565b6000612e53826120db565b91507fffffffffffffffffffffffffffffffffffffffffffffffffffffffffffffffff821415612e8657612e85612b55565b5b600182019050919050565b6000612e9c826120db565b9150612ea7836120db565b925082821015612eba57612eb9612b55565b5b828203905092915050565b7f4e487b7100000000000000000000000000000000000000000000000000000000600052603160045260246000fd5b7f4e487b7100000000000000000000000000000000000000000000000000000000600052602260045260246000fd5b60006002820490506001821680612f3b57607f821691505b60208210811415612f4f57612f4e612ef4565b5b50919050565b600081905092915050565b6000612f6b826124e0565b612f758185612f55565b9350612f858185602086016124fc565b80840191505092915050565b6000612f9d8284612f60565b915081905092915050565b7f5b524241435d203a2041646d696e206d75737420626520213d207468616e203060008201527f7830206164647265737300000000000000000000000000000000000000000000602082015250565b6000613004602a836126b3565b915061300f82612fa8565b604082019050919050565b6000602082019050818103600083015261303381612ff7565b9050919050565b7f5b524241435d203a2041646d696e20616c7265616479206578697374732e0000600082015250565b6000613070601e836126b3565b915061307b8261303a565b602082019050919050565b6000602082019050818103600083015261309f81613063565b9050919050565b7f546869732077616c6c657420686173206265656e207573656420746f2072656760008201527f6973746572206561726c6965722e000000000000000000000000000000000000602082015250565b6000613102602e836126b3565b915061310d826130a6565b604082019050919050565b60006020820190508181036000830152613131816130f5565b9050919050565b7f5468697320757365722069642069732072656769737465726564206561726c6960008201527f65722e0000000000000000000000000000000000000000000000000000000000602082015250565b60006131946023836126b3565b915061319f82613138565b604082019050919050565b600060208201905081810360008301526131c381613187565b9050919050565b6000819050919050565b60006131ef6131ea6131e58461236d565b6131ca565b61236d565b9050919050565b6000613201826131d4565b9050919050565b6000613213826131f6565b9050919050565b61322381613208565b82525050565b600060608201905061323e600083018661321a565b818103602083015261325081856126c4565b905061325f6040830184612343565b949350505050565b7f4e487b7100000000000000000000000000000000000000000000000000000000600052601260045260246000fd5b60006132a1826120db565b91506132ac836120db565b9250826132bc576132bb613267565b5b828204905092915050565b600081905092915050565b50565b60006132e26000836132c7565b91506132ed826132d2565b600082019050919050565b6000613303826132d5565b9150819050919050565b7f5472616e73666572206661696c656420647572696e672073656e64696e67204d60008201527f6174696320746f6b656e73000000000000000000000000000000000000000000602082015250565b6000613369602b836126b3565b91506133748261330d565b604082019050919050565b600060208201905081810360008301526133988161335c565b905091905056fea2646970667358221220187de1aeef07fa716a07feeb0a51e0ad0c71808d15c195c4eab99b920efaa35964736f6c634300080b0033",
  "immutableReferences": {},
  "source": "// SPDX-License-Identifier: GPL-3.0\n\npragma solidity >=0.7.0 <0.9.0;\n\nimport '@openzeppelin/contracts/utils/math/SafeMath.sol';\n\n/**\n * @title GoArtCampaign\n * @dev Distribute MATIC tokens in exchange for GoArt Colletible Items collected within in the GoArt game.\n */\ncontract GoArtCampaign {\n\t// using SafeMath to prevent underflow & overflow bugs\n\tusing SafeMath for uint256;\n\n\t// contract's states are defined here.\n\tenum State {\n\t\tActive,\n\t\tClosed\n\t}\n\n\tState public state = State.Closed;\n\n\tuint256 public maxRewardTotal = 200000 ether;\n\tuint256 public totalDistributedReward;\n\n\t// funding wallet of the contract\n\taddress payable public fundingWallet;\n\n\t// service cost set by us\n\tuint256 public fee = 0.1 ether;\n\n\t// min amount\n\tuint256 public minimumAmountToWithdraw = 1 ether;\n\n\t// point to reward ratio\n\tuint256 public ratio = 10;\n\n\t// Participant structure for players\n\tstruct Participant {\n\t\tstring userId;\n\t\taddress payable walletAddress;\n\t\tuint256 claimed;\n\t\tuint256 claimable;\n\t}\n\n\t// Store the participants in an array\n\tParticipant[] public participants;\n\n\t// Listing all admins\n\taddress[] public admins;\n\n\t// mappings to store registered wallet addresses\n\tmapping(address => bool) public walletsRegistered;\n\n\t// mappings to store registered userIds to prevent same user joining the campaign multiple times.\n\tmapping(string => bool) public userIdsRegistered;\n\n\t// Modifier for easier checking if user is admin\n\tmapping(address => bool) public isAdmin;\n\n\t// event for EVM logging\n\tevent ParticipantRegistered(address walletAddress, string userId, uint256 participantIndex);\n\tevent CollectibleItemSwapped(uint256 totalAmount, uint256 participantIndex);\n\tevent MaticWithdrawn(uint256 amount, uint256 participantIndex);\n\n\t// Modifier restricting access to only admin\n\tmodifier onlyAdmin() {\n\t\trequire(isAdmin[msg.sender], 'Only admin can call.');\n\t\t_;\n\t}\n\n\t// Constructor to set initial admins during deployment\n\tconstructor() {\n\t\tfundingWallet = payable(msg.sender);\n\t\tadmins.push(msg.sender);\n\t\tisAdmin[msg.sender] = true;\n\t\ttotalDistributedReward = 0;\n\t}\n\n\t// register a new admin with the given wallet address\n\tfunction addAdmin(address _adminAddress) external onlyAdmin {\n\t\t// Can't add 0x address as an admin\n\t\trequire(_adminAddress != address(0x0), '[RBAC] : Admin must be != than 0x0 address');\n\t\t// Can't add existing admin\n\t\trequire(!isAdmin[_adminAddress], '[RBAC] : Admin already exists.');\n\t\t// Add admin to array of admins\n\t\tadmins.push(_adminAddress);\n\t\t// Set mapping\n\t\tisAdmin[_adminAddress] = true;\n\t}\n\n\t// remove an existing admin address\n\tfunction removeAdmin(address _adminAddress) external onlyAdmin {\n\t\t// Admin has to exist\n\t\trequire(isAdmin[_adminAddress]);\n\t\trequire(admins.length > 1, 'Can not remove all admins since contract becomes unusable.');\n\t\tuint256 i = 0;\n\n\t\twhile (admins[i] != _adminAddress) {\n\t\t\tif (i == admins.length) {\n\t\t\t\trevert('Passed admin address does not exist');\n\t\t\t}\n\t\t\ti++;\n\t\t}\n\n\t\t// Copy the last admin position to the current index\n\t\tadmins[i] = admins[admins.length - 1];\n\n\t\tisAdmin[_adminAddress] = false;\n\n\t\t// Remove the last admin, since it's double present\n\t\tadmins.pop();\n\t}\n\n\t// Fetch all admins\n\tfunction getAllAdmins() external view returns (address[] memory) {\n\t\treturn admins;\n\t}\n\n\t// Set contract State as Active\n\tfunction setStateActive() external onlyAdmin {\n\t\tstate = State.Active;\n\t}\n\n\t// Set contract State as Closed\n\tfunction setStateClosed() external onlyAdmin {\n\t\tstate = State.Closed;\n\t}\n\n\t// See the current state\n\tfunction getState() public view returns (State) {\n\t\treturn state;\n\t}\n\n\t// Change the contract's max reward amount\n\tfunction changeMaxReward(uint256 _maxReward) external onlyAdmin {\n\t\tmaxRewardTotal = _maxReward;\n\t}\n\n\t// change award ration\n\tfunction changeRatio(uint256 _ratio) external onlyAdmin {\n\t\tratio = _ratio;\n\t}\n\n\t// register a user's wallet address if the contract is in Active state.\n\tfunction registerWallet(address payable walletAddress, string memory userId)\n\t\texternal\n\t\tonlyAdmin\n\t{\n\t\trequire(state == State.Active, 'Contract is not in active state at the moment!');\n\t\trequire(\n\t\t\t!walletsRegistered[walletAddress],\n\t\t\t'This wallet has been used to register earlier.'\n\t\t);\n\t\trequire(!userIdsRegistered[userId], 'This user id is registered earlier.');\n\n\t\twalletsRegistered[walletAddress] = true;\n\t\tuserIdsRegistered[userId] = true;\n\n\t\tParticipant memory participant = Participant(userId, walletAddress, 0, 0);\n\t\tparticipants.push(participant);\n\n\t\temit ParticipantRegistered(walletAddress, userId, participants.length - 1);\n\t}\n\n\t// A user's collectible items can be swapped to MATIC through this function.\n\tfunction swapCollectibleItemsToMatic(uint256 _collectibleItemAmount, uint256 _participantIndex)\n\t\texternal\n\t\tonlyAdmin\n\t{\n\t\trequire(state == State.Active, 'Contract is not in active state at the moment!');\n\t\trequire(\n\t\t\t_collectibleItemAmount > 0,\n\t\t\t'_collectibleItemAmount to be swapped has to be greater than 0.'\n\t\t);\n\n\t\tParticipant storage participant = participants[_participantIndex];\n\t\tuint256 maticAmount = _collectibleItemAmount.div(ratio);\n\t\tparticipant.claimable = participant.claimable.add(maticAmount);\n\n\t\temit CollectibleItemSwapped(participant.claimable, _participantIndex);\n\t}\n\n\t// return all participants\n\tfunction getAllParticipants() public view returns (Participant[] memory) {\n\t\treturn participants;\n\t}\n\n\tfunction sendMatic(address payable wallet, uint256 amount) internal {\n\t\t(bool success, ) = wallet.call{value: amount}('');\n\t\trequire(success, 'Transfer failed during sending Matic tokens');\n\t}\n\n\tfunction withdrawMaticTokens(uint256 _participantIndex) external payable onlyAdmin {\n\t\trequire(state == State.Active, 'Contract is not in active state at the moment!');\n\t\trequire(\n\t\t\tmsg.value >= minimumAmountToWithdraw,\n\t\t\t'You can withdraw minimum 1 MATIC. Anything below is not allowed.'\n\t\t);\n\n\t\tuint256 amountToBeWithdrawn = msg.value.sub(fee);\n\n\t\trequire(\n\t\t\ttotalDistributedReward + msg.value <= maxRewardTotal,\n\t\t\t'Given amount exceeds the total reward to be distributed from this contract'\n\t\t);\n\n\t\tParticipant storage participant = participants[_participantIndex];\n\t\trequire(\n\t\t\tparticipant.claimable.sub(amountToBeWithdrawn) >= 0,\n\t\t\t'Withdraw amount cannot be greater than total claimable amount!'\n\t\t);\n\n\t\t// subtract from claimable amount\n\t\tparticipant.claimable = participant.claimable.sub(msg.value);\n\n\t\t// increase the claimed amount with _amount\n\t\tparticipant.claimed = participant.claimed.add(msg.value);\n\n\t\t// transfer the funds\n\t\tsendMatic(participant.walletAddress, amountToBeWithdrawn);\n\t\t// get the service fee\n\t\tsendMatic(fundingWallet, fee);\n\n\t\ttotalDistributedReward = totalDistributedReward.add(msg.value);\n\n\t\temit MaticWithdrawn(msg.value, _participantIndex);\n\t}\n\n\t// set service fee\n\tfunction setServiceFee(uint256 _fee) external onlyAdmin {\n\t\tfee = _fee;\n\t}\n\n\t// get service fee\n\tfunction getServiceFee() public view returns (uint256) {\n\t\treturn fee;\n\t}\n\n\t// get maximum reward total\n\tfunction getMaxRewardTotal() public view returns (uint256) {\n\t\treturn maxRewardTotal;\n\t}\n\n\t// set minimumAmount\n\tfunction setMinimumAmount(uint256 _minimumAmount) external onlyAdmin {\n\t\tminimumAmountToWithdraw = _minimumAmount;\n\t}\n\n\t// get minimum amount\n\tfunction getMinimumAmount() public view returns (uint256) {\n\t\treturn minimumAmountToWithdraw;\n\t}\n\n\t// get total distributed reward\n\tfunction getTotalDisributedReward() public view returns (uint256) {\n\t\treturn totalDistributedReward;\n\t}\n\n\t// check if a wallet is registered\n\tfunction walletRegistered(address _walletAddress) public view returns (bool) {\n\t\treturn walletsRegistered[_walletAddress];\n\t}\n\n\t// check if userId is registered\n\tfunction userRegistered(string memory _uuid) public view returns (bool) {\n\t\treturn userIdsRegistered[_uuid];\n\t}\n\n\t// change the funding wallet\n\tfunction changeFundingWallet() external onlyAdmin {\n\t\tfundingWallet = payable(msg.sender);\n\t}\n}\n",
  "sourcePath": "/Users/tunahandag/Documents/RoofStacks/move-to-earn-event-smart-contracts/contracts/GoArtCampaign.sol",
  "compiler": {
    "name": "solc",
    "version": "0.8.11+commit.d7f03943.Emscripten.clang"
  },
  "schemaVersion": "3.4.4",
  "updatedAt": "2022-02-17T13:22:19.446Z",
  "devdoc": {
    "details": "Distribute MATIC tokens in exchange for GoArt Colletible Items collected within in the GoArt game.",
    "kind": "dev",
    "methods": {},
    "title": "GoArtCampaign",
    "version": 1
  },
  "userdoc": {
    "kind": "user",
    "methods": {},
    "version": 1
  }
}