{
  "contractName": "GoArtCampaign",
  "abi": [
    {
      "inputs": [],
      "stateMutability": "nonpayable",
      "type": "constructor"
    },
    {
      "anonymous": false,
      "inputs": [
        {
          "indexed": false,
          "internalType": "uint256",
          "name": "totalAmount",
          "type": "uint256"
        },
        {
          "indexed": false,
          "internalType": "uint256",
          "name": "participantIndex",
          "type": "uint256"
        }
      ],
      "name": "CollectibleItemSwapped",
      "type": "event"
    },
    {
      "anonymous": false,
      "inputs": [
        {
          "indexed": false,
          "internalType": "uint256",
          "name": "amount",
          "type": "uint256"
        },
        {
          "indexed": false,
          "internalType": "uint256",
          "name": "participantIndex",
          "type": "uint256"
        }
      ],
      "name": "MaticWithdrawn",
      "type": "event"
    },
    {
      "anonymous": false,
      "inputs": [
        {
          "indexed": false,
          "internalType": "address",
          "name": "walletAddress",
          "type": "address"
        },
        {
          "indexed": false,
          "internalType": "string",
          "name": "userId",
          "type": "string"
        },
        {
          "indexed": false,
          "internalType": "uint256",
          "name": "participantIndex",
          "type": "uint256"
        }
      ],
      "name": "ParticipantRegistered",
      "type": "event"
    },
    {
      "inputs": [
        {
          "internalType": "uint256",
          "name": "",
          "type": "uint256"
        }
      ],
      "name": "admins",
      "outputs": [
        {
          "internalType": "address",
          "name": "",
          "type": "address"
        }
      ],
      "stateMutability": "view",
      "type": "function",
      "constant": true
    },
    {
      "inputs": [],
      "name": "fundingWallet",
      "outputs": [
        {
          "internalType": "address payable",
          "name": "",
          "type": "address"
        }
      ],
      "stateMutability": "view",
      "type": "function",
      "constant": true
    },
    {
      "inputs": [
        {
          "internalType": "address",
          "name": "",
          "type": "address"
        }
      ],
      "name": "isAdmin",
      "outputs": [
        {
          "internalType": "bool",
          "name": "",
          "type": "bool"
        }
      ],
      "stateMutability": "view",
      "type": "function",
      "constant": true
    },
    {
      "inputs": [],
      "name": "maxRewardTotal",
      "outputs": [
        {
          "internalType": "uint256",
          "name": "",
          "type": "uint256"
        }
      ],
      "stateMutability": "view",
      "type": "function",
      "constant": true
    },
    {
      "inputs": [
        {
          "internalType": "uint256",
          "name": "",
          "type": "uint256"
        }
      ],
      "name": "participants",
      "outputs": [
        {
          "internalType": "string",
          "name": "userId",
          "type": "string"
        },
        {
          "internalType": "address payable",
          "name": "walletAddress",
          "type": "address"
        },
        {
          "internalType": "uint256",
          "name": "claimed",
          "type": "uint256"
        },
        {
          "internalType": "uint256",
          "name": "claimable",
          "type": "uint256"
        }
      ],
      "stateMutability": "view",
      "type": "function",
      "constant": true
    },
    {
      "inputs": [],
      "name": "state",
      "outputs": [
        {
          "internalType": "enum GoArtCampaign.State",
          "name": "",
          "type": "uint8"
        }
      ],
      "stateMutability": "view",
      "type": "function",
      "constant": true
    },
    {
      "inputs": [],
      "name": "totalDistributedReward",
      "outputs": [
        {
          "internalType": "uint256",
          "name": "",
          "type": "uint256"
        }
      ],
      "stateMutability": "view",
      "type": "function",
      "constant": true
    },
    {
      "inputs": [
        {
          "internalType": "address",
          "name": "_adminAddress",
          "type": "address"
        }
      ],
      "name": "addAdmin",
      "outputs": [],
      "stateMutability": "nonpayable",
      "type": "function"
    },
    {
      "inputs": [
        {
          "internalType": "address",
          "name": "_adminAddress",
          "type": "address"
        }
      ],
      "name": "removeAdmin",
      "outputs": [],
      "stateMutability": "nonpayable",
      "type": "function"
    },
    {
      "inputs": [],
      "name": "getAllAdmins",
      "outputs": [
        {
          "internalType": "address[]",
          "name": "",
          "type": "address[]"
        }
      ],
      "stateMutability": "view",
      "type": "function",
      "constant": true
    },
    {
      "inputs": [],
      "name": "setStateActive",
      "outputs": [],
      "stateMutability": "nonpayable",
      "type": "function"
    },
    {
      "inputs": [],
      "name": "setStateClosed",
      "outputs": [],
      "stateMutability": "nonpayable",
      "type": "function"
    },
    {
      "inputs": [
        {
          "internalType": "uint256",
          "name": "_maxReward",
          "type": "uint256"
        }
      ],
      "name": "changeMaxReward",
      "outputs": [],
      "stateMutability": "nonpayable",
      "type": "function"
    },
    {
      "inputs": [
        {
          "internalType": "address payable",
          "name": "walletAddress",
          "type": "address"
        },
        {
          "internalType": "string",
          "name": "userId",
          "type": "string"
        }
      ],
      "name": "registerWallet",
      "outputs": [],
      "stateMutability": "nonpayable",
      "type": "function"
    },
    {
      "inputs": [
        {
          "internalType": "uint256",
          "name": "_collectibleItemAmount",
          "type": "uint256"
        },
        {
          "internalType": "uint256",
          "name": "_participantIndex",
          "type": "uint256"
        }
      ],
      "name": "swapCollectibleItemsToMatic",
      "outputs": [],
      "stateMutability": "nonpayable",
      "type": "function"
    },
    {
      "inputs": [],
      "name": "getAllParticipants",
      "outputs": [
        {
          "components": [
            {
              "internalType": "string",
              "name": "userId",
              "type": "string"
            },
            {
              "internalType": "address payable",
              "name": "walletAddress",
              "type": "address"
            },
            {
              "internalType": "uint256",
              "name": "claimed",
              "type": "uint256"
            },
            {
              "internalType": "uint256",
              "name": "claimable",
              "type": "uint256"
            }
          ],
          "internalType": "struct GoArtCampaign.Participant[]",
          "name": "",
          "type": "tuple[]"
        }
      ],
      "stateMutability": "view",
      "type": "function",
      "constant": true
    },
    {
      "inputs": [
        {
          "internalType": "uint256",
          "name": "_participantIndex",
          "type": "uint256"
        }
      ],
      "name": "withdrawMaticTokens",
      "outputs": [],
      "stateMutability": "payable",
      "type": "function",
      "payable": true
    }
  ],
  "bytecode": "0x608060405260016000806101000a81548160ff021916908360018111156200002c576200002b62000174565b5b0217905550692a5a058fc295ed00000060015567016345785d8a0000600455670de0b6b3a764000060055560146006553480156200006957600080fd5b5033600360006101000a81548173ffffffffffffffffffffffffffffffffffffffff021916908373ffffffffffffffffffffffffffffffffffffffff1602179055506008339080600181540180825580915050600190039060005260206000200160009091909190916101000a81548173ffffffffffffffffffffffffffffffffffffffff021916908373ffffffffffffffffffffffffffffffffffffffff1602179055506001600b60003373ffffffffffffffffffffffffffffffffffffffff1673ffffffffffffffffffffffffffffffffffffffff16815260200190815260200160002060006101000a81548160ff0219169083151502179055506000600281905550620001a3565b7f4e487b7100000000000000000000000000000000000000000000000000000000600052602160045260246000fd5b612bfc80620001b36000396000f3fe6080604052600436106100fe5760003560e01c80633c4b40b811610095578063c19d93fb11610064578063c19d93fb14610313578063cea6d9771461033e578063deaa8afd14610355578063e9523c9714610380578063fb7ed3c8146103ab576100fe565b80633c4b40b81461027f5780635a3eec03146102aa57806370480275146102c1578063c0bc2bdf146102ea576100fe565b8063195ec9ee116100d1578063195ec9ee146101ae5780631f34556a146101d957806324d7806c1461020257806335c1d3491461023f576100fe565b8063014dd8af146101035780630ef306f41461012c57806314bfd6d0146101485780631785f53c14610185575b600080fd5b34801561010f57600080fd5b5061012a60048036038101906101259190611981565b6103d6565b005b610146600480360381019061014191906119c1565b6105ba565b005b34801561015457600080fd5b5061016f600480360381019061016a91906119c1565b6108dd565b60405161017c9190611a2f565b60405180910390f35b34801561019157600080fd5b506101ac60048036038101906101a79190611a76565b61091c565b005b3480156101ba57600080fd5b506101c3610c64565b6040516101d09190611c91565b60405180910390f35b3480156101e557600080fd5b5061020060048036038101906101fb91906119c1565b610dbf565b005b34801561020e57600080fd5b5061022960048036038101906102249190611a76565b610e55565b6040516102369190611cce565b60405180910390f35b34801561024b57600080fd5b50610266600480360381019061026191906119c1565b610e75565b6040516102769493929190611d51565b60405180910390f35b34801561028b57600080fd5b50610294610f5d565b6040516102a19190611d9d565b60405180910390f35b3480156102b657600080fd5b506102bf610f83565b005b3480156102cd57600080fd5b506102e860048036038101906102e39190611a76565b61103b565b005b3480156102f657600080fd5b50610311600480360381019061030c9190611f19565b611282565b005b34801561031f57600080fd5b5061032861163e565b6040516103359190611fec565b60405180910390f35b34801561034a57600080fd5b5061035361164f565b005b34801561036157600080fd5b5061036a611707565b6040516103779190612007565b60405180910390f35b34801561038c57600080fd5b5061039561170d565b6040516103a291906120e0565b60405180910390f35b3480156103b757600080fd5b506103c061179b565b6040516103cd9190612007565b60405180910390f35b600b60003373ffffffffffffffffffffffffffffffffffffffff1673ffffffffffffffffffffffffffffffffffffffff16815260200190815260200160002060009054906101000a900460ff16610462576040517f08c379a00000000000000000000000000000000000000000000000000000000081526004016104599061214e565b60405180910390fd5b6000600181111561047657610475611f75565b5b60008054906101000a900460ff16600181111561049657610495611f75565b5b146104d6576040517f08c379a00000000000000000000000000000000000000000000000000000000081526004016104cd906121e0565b60405180910390fd5b60008211610519576040517f08c379a000000000000000000000000000000000000000000000000000000000815260040161051090612272565b60405180910390fd5b60006007828154811061052f5761052e612292565b5b906000526020600020906004020190506000610556600654856117a190919063ffffffff16565b905061056f8183600301546117b790919063ffffffff16565b82600301819055507f488d29b098b2ddcad8148748d0fa9c8963b9913e0f1e6cf346360bcd027fa1788260030154846040516105ac9291906122c1565b60405180910390a150505050565b600b60003373ffffffffffffffffffffffffffffffffffffffff1673ffffffffffffffffffffffffffffffffffffffff16815260200190815260200160002060009054906101000a900460ff16610646576040517f08c379a000000000000000000000000000000000000000000000000000000000815260040161063d9061214e565b60405180910390fd5b6000600181111561065a57610659611f75565b5b60008054906101000a900460ff16600181111561067a57610679611f75565b5b146106ba576040517f08c379a00000000000000000000000000000000000000000000000000000000081526004016106b1906121e0565b60405180910390fd5b6005543410156106ff576040517f08c379a00000000000000000000000000000000000000000000000000000000081526004016106f69061235c565b60405180910390fd5b6000610716600454346117cd90919063ffffffff16565b90506001543460025461072991906123ab565b111561076a576040517f08c379a000000000000000000000000000000000000000000000000000000000815260040161076190612499565b60405180910390fd5b6000600783815481106107805761077f612292565b5b9060005260206000209060040201905060006107a98383600301546117cd90919063ffffffff16565b10156107ea576040517f08c379a00000000000000000000000000000000000000000000000000000000081526004016107e19061252b565b60405180910390fd5b6108013482600301546117cd90919063ffffffff16565b81600301819055506108203482600201546117b790919063ffffffff16565b81600201819055506108568160010160009054906101000a900473ffffffffffffffffffffffffffffffffffffffff16836117e3565b610884600360009054906101000a900473ffffffffffffffffffffffffffffffffffffffff166004546117e3565b610899346002546117b790919063ffffffff16565b6002819055507f97ca5fc2126c470f78664e5b1f9c6e61d1b1a2acdb9c001cf9afa1c755126e1034846040516108d09291906122c1565b60405180910390a1505050565b600881815481106108ed57600080fd5b906000526020600020016000915054906101000a900473ffffffffffffffffffffffffffffffffffffffff1681565b600b60003373ffffffffffffffffffffffffffffffffffffffff1673ffffffffffffffffffffffffffffffffffffffff16815260200190815260200160002060009054906101000a900460ff166109a8576040517f08c379a000000000000000000000000000000000000000000000000000000000815260040161099f9061214e565b60405180910390fd5b600b60008273ffffffffffffffffffffffffffffffffffffffff1673ffffffffffffffffffffffffffffffffffffffff16815260200190815260200160002060009054906101000a900460ff166109fe57600080fd5b600160088054905011610a46576040517f08c379a0000000000000000000000000000000000000000000000000000000008152600401610a3d906125bd565b60405180910390fd5b60005b8173ffffffffffffffffffffffffffffffffffffffff1660088281548110610a7457610a73612292565b5b9060005260206000200160009054906101000a900473ffffffffffffffffffffffffffffffffffffffff1673ffffffffffffffffffffffffffffffffffffffff1614610b1557600880549050811415610b02576040517f08c379a0000000000000000000000000000000000000000000000000000000008152600401610af99061264f565b60405180910390fd5b8080610b0d9061266f565b915050610a49565b60086001600880549050610b2991906126b8565b81548110610b3a57610b39612292565b5b9060005260206000200160009054906101000a900473ffffffffffffffffffffffffffffffffffffffff1660088281548110610b7957610b78612292565b5b9060005260206000200160006101000a81548173ffffffffffffffffffffffffffffffffffffffff021916908373ffffffffffffffffffffffffffffffffffffffff1602179055506000600b60008473ffffffffffffffffffffffffffffffffffffffff1673ffffffffffffffffffffffffffffffffffffffff16815260200190815260200160002060006101000a81548160ff0219169083151502179055506008805480610c2b57610c2a6126ec565b5b6001900381819060005260206000200160006101000a81549073ffffffffffffffffffffffffffffffffffffffff021916905590555050565b60606007805480602002602001604051908101604052809291908181526020016000905b82821015610db65783829060005260206000209060040201604051806080016040529081600082018054610cbb9061274a565b80601f0160208091040260200160405190810160405280929190818152602001828054610ce79061274a565b8015610d345780601f10610d0957610100808354040283529160200191610d34565b820191906000526020600020905b815481529060010190602001808311610d1757829003601f168201915b505050505081526020016001820160009054906101000a900473ffffffffffffffffffffffffffffffffffffffff1673ffffffffffffffffffffffffffffffffffffffff1673ffffffffffffffffffffffffffffffffffffffff1681526020016002820154815260200160038201548152505081526020019060010190610c88565b50505050905090565b600b60003373ffffffffffffffffffffffffffffffffffffffff1673ffffffffffffffffffffffffffffffffffffffff16815260200190815260200160002060009054906101000a900460ff16610e4b576040517f08c379a0000000000000000000000000000000000000000000000000000000008152600401610e429061214e565b60405180910390fd5b8060018190555050565b600b6020528060005260406000206000915054906101000a900460ff1681565b60078181548110610e8557600080fd5b9060005260206000209060040201600091509050806000018054610ea89061274a565b80601f0160208091040260200160405190810160405280929190818152602001828054610ed49061274a565b8015610f215780601f10610ef657610100808354040283529160200191610f21565b820191906000526020600020905b815481529060010190602001808311610f0457829003601f168201915b5050505050908060010160009054906101000a900473ffffffffffffffffffffffffffffffffffffffff16908060020154908060030154905084565b600360009054906101000a900473ffffffffffffffffffffffffffffffffffffffff1681565b600b60003373ffffffffffffffffffffffffffffffffffffffff1673ffffffffffffffffffffffffffffffffffffffff16815260200190815260200160002060009054906101000a900460ff1661100f576040517f08c379a00000000000000000000000000000000000000000000000000000000081526004016110069061214e565b60405180910390fd5b60016000806101000a81548160ff0219169083600181111561103457611033611f75565b5b0217905550565b600b60003373ffffffffffffffffffffffffffffffffffffffff1673ffffffffffffffffffffffffffffffffffffffff16815260200190815260200160002060009054906101000a900460ff166110c7576040517f08c379a00000000000000000000000000000000000000000000000000000000081526004016110be9061214e565b60405180910390fd5b600073ffffffffffffffffffffffffffffffffffffffff168173ffffffffffffffffffffffffffffffffffffffff161415611137576040517f08c379a000000000000000000000000000000000000000000000000000000000815260040161112e906127ee565b60405180910390fd5b600b60008273ffffffffffffffffffffffffffffffffffffffff1673ffffffffffffffffffffffffffffffffffffffff16815260200190815260200160002060009054906101000a900460ff16156111c4576040517f08c379a00000000000000000000000000000000000000000000000000000000081526004016111bb9061285a565b60405180910390fd5b6008819080600181540180825580915050600190039060005260206000200160009091909190916101000a81548173ffffffffffffffffffffffffffffffffffffffff021916908373ffffffffffffffffffffffffffffffffffffffff1602179055506001600b60008373ffffffffffffffffffffffffffffffffffffffff1673ffffffffffffffffffffffffffffffffffffffff16815260200190815260200160002060006101000a81548160ff02191690831515021790555050565b600b60003373ffffffffffffffffffffffffffffffffffffffff1673ffffffffffffffffffffffffffffffffffffffff16815260200190815260200160002060009054906101000a900460ff1661130e576040517f08c379a00000000000000000000000000000000000000000000000000000000081526004016113059061214e565b60405180910390fd5b6000600181111561132257611321611f75565b5b60008054906101000a900460ff16600181111561134257611341611f75565b5b14611382576040517f08c379a0000000000000000000000000000000000000000000000000000000008152600401611379906121e0565b60405180910390fd5b600960008373ffffffffffffffffffffffffffffffffffffffff1673ffffffffffffffffffffffffffffffffffffffff16815260200190815260200160002060009054906101000a900460ff161561140f576040517f08c379a0000000000000000000000000000000000000000000000000000000008152600401611406906128ec565b60405180910390fd5b600a8160405161141f9190612948565b908152602001604051809103902060009054906101000a900460ff161561147b576040517f08c379a0000000000000000000000000000000000000000000000000000000008152600401611472906129d1565b60405180910390fd5b6001600960008473ffffffffffffffffffffffffffffffffffffffff1673ffffffffffffffffffffffffffffffffffffffff16815260200190815260200160002060006101000a81548160ff0219169083151502179055506001600a826040516114e59190612948565b908152602001604051809103902060006101000a81548160ff021916908315150217905550600060405180608001604052808381526020018473ffffffffffffffffffffffffffffffffffffffff16815260200160008152602001600081525090506007819080600181540180825580915050600190039060005260206000209060040201600090919091909150600082015181600001908051906020019061158f929190611894565b5060208201518160010160006101000a81548173ffffffffffffffffffffffffffffffffffffffff021916908373ffffffffffffffffffffffffffffffffffffffff160217905550604082015181600201556060820151816003015550507f180ca236964eb44f7a80db451e81e467b5de50df3f83d795d13e28cc609444d38383600160078054905061162291906126b8565b60405161163193929190612a50565b60405180910390a1505050565b60008054906101000a900460ff1681565b600b60003373ffffffffffffffffffffffffffffffffffffffff1673ffffffffffffffffffffffffffffffffffffffff16815260200190815260200160002060009054906101000a900460ff166116db576040517f08c379a00000000000000000000000000000000000000000000000000000000081526004016116d29061214e565b60405180910390fd5b60008060006101000a81548160ff02191690836001811115611700576116ff611f75565b5b0217905550565b60025481565b6060600880548060200260200160405190810160405280929190818152602001828054801561179157602002820191906000526020600020905b8160009054906101000a900473ffffffffffffffffffffffffffffffffffffffff1673ffffffffffffffffffffffffffffffffffffffff1681526020019060010190808311611747575b5050505050905090565b60015481565b600081836117af9190612abd565b905092915050565b600081836117c591906123ab565b905092915050565b600081836117db91906126b8565b905092915050565b60008273ffffffffffffffffffffffffffffffffffffffff168260405161180990612b1f565b60006040518083038185875af1925050503d8060008114611846576040519150601f19603f3d011682016040523d82523d6000602084013e61184b565b606091505b505090508061188f576040517f08c379a000000000000000000000000000000000000000000000000000000000815260040161188690612ba6565b60405180910390fd5b505050565b8280546118a09061274a565b90600052602060002090601f0160209004810192826118c25760008555611909565b82601f106118db57805160ff1916838001178555611909565b82800160010185558215611909579182015b828111156119085782518255916020019190600101906118ed565b5b509050611916919061191a565b5090565b5b8082111561193357600081600090555060010161191b565b5090565b6000604051905090565b600080fd5b600080fd5b6000819050919050565b61195e8161194b565b811461196957600080fd5b50565b60008135905061197b81611955565b92915050565b6000806040838503121561199857611997611941565b5b60006119a68582860161196c565b92505060206119b78582860161196c565b9150509250929050565b6000602082840312156119d7576119d6611941565b5b60006119e58482850161196c565b91505092915050565b600073ffffffffffffffffffffffffffffffffffffffff82169050919050565b6000611a19826119ee565b9050919050565b611a2981611a0e565b82525050565b6000602082019050611a446000830184611a20565b92915050565b611a5381611a0e565b8114611a5e57600080fd5b50565b600081359050611a7081611a4a565b92915050565b600060208284031215611a8c57611a8b611941565b5b6000611a9a84828501611a61565b91505092915050565b600081519050919050565b600082825260208201905092915050565b6000819050602082019050919050565b600081519050919050565b600082825260208201905092915050565b60005b83811015611b09578082015181840152602081019050611aee565b83811115611b18576000848401525b50505050565b6000601f19601f8301169050919050565b6000611b3a82611acf565b611b448185611ada565b9350611b54818560208601611aeb565b611b5d81611b1e565b840191505092915050565b6000611b73826119ee565b9050919050565b611b8381611b68565b82525050565b611b928161194b565b82525050565b60006080830160008301518482036000860152611bb58282611b2f565b9150506020830151611bca6020860182611b7a565b506040830151611bdd6040860182611b89565b506060830151611bf06060860182611b89565b508091505092915050565b6000611c078383611b98565b905092915050565b6000602082019050919050565b6000611c2782611aa3565b611c318185611aae565b935083602082028501611c4385611abf565b8060005b85811015611c7f5784840389528151611c608582611bfb565b9450611c6b83611c0f565b925060208a01995050600181019050611c47565b50829750879550505050505092915050565b60006020820190508181036000830152611cab8184611c1c565b905092915050565b60008115159050919050565b611cc881611cb3565b82525050565b6000602082019050611ce36000830184611cbf565b92915050565b600082825260208201905092915050565b6000611d0582611acf565b611d0f8185611ce9565b9350611d1f818560208601611aeb565b611d2881611b1e565b840191505092915050565b611d3c81611b68565b82525050565b611d4b8161194b565b82525050565b60006080820190508181036000830152611d6b8187611cfa565b9050611d7a6020830186611d33565b611d876040830185611d42565b611d946060830184611d42565b95945050505050565b6000602082019050611db26000830184611d33565b92915050565b611dc181611b68565b8114611dcc57600080fd5b50565b600081359050611dde81611db8565b92915050565b600080fd5b600080fd5b7f4e487b7100000000000000000000000000000000000000000000000000000000600052604160045260246000fd5b611e2682611b1e565b810181811067ffffffffffffffff82111715611e4557611e44611dee565b5b80604052505050565b6000611e58611937565b9050611e648282611e1d565b919050565b600067ffffffffffffffff821115611e8457611e83611dee565b5b611e8d82611b1e565b9050602081019050919050565b82818337600083830152505050565b6000611ebc611eb784611e69565b611e4e565b905082815260208101848484011115611ed857611ed7611de9565b5b611ee3848285611e9a565b509392505050565b600082601f830112611f0057611eff611de4565b5b8135611f10848260208601611ea9565b91505092915050565b60008060408385031215611f3057611f2f611941565b5b6000611f3e85828601611dcf565b925050602083013567ffffffffffffffff811115611f5f57611f5e611946565b5b611f6b85828601611eeb565b9150509250929050565b7f4e487b7100000000000000000000000000000000000000000000000000000000600052602160045260246000fd5b60028110611fb557611fb4611f75565b5b50565b6000819050611fc682611fa4565b919050565b6000611fd682611fb8565b9050919050565b611fe681611fcb565b82525050565b60006020820190506120016000830184611fdd565b92915050565b600060208201905061201c6000830184611d42565b92915050565b600081519050919050565b600082825260208201905092915050565b6000819050602082019050919050565b61205781611a0e565b82525050565b6000612069838361204e565b60208301905092915050565b6000602082019050919050565b600061208d82612022565b612097818561202d565b93506120a28361203e565b8060005b838110156120d35781516120ba888261205d565b97506120c583612075565b9250506001810190506120a6565b5085935050505092915050565b600060208201905081810360008301526120fa8184612082565b905092915050565b7f4f6e6c792061646d696e2063616e2063616c6c2e000000000000000000000000600082015250565b6000612138601483611ce9565b915061214382612102565b602082019050919050565b600060208201905081810360008301526121678161212b565b9050919050565b7f436f6e7472616374206973206e6f7420696e206163746976652073746174652060008201527f617420746865206d6f6d656e7421000000000000000000000000000000000000602082015250565b60006121ca602e83611ce9565b91506121d58261216e565b604082019050919050565b600060208201905081810360008301526121f9816121bd565b9050919050565b7f5f636f6c6c65637469626c654974656d416d6f756e7420746f2062652073776160008201527f707065642068617320746f2062652067726561746572207468616e20302e0000602082015250565b600061225c603e83611ce9565b915061226782612200565b604082019050919050565b6000602082019050818103600083015261228b8161224f565b9050919050565b7f4e487b7100000000000000000000000000000000000000000000000000000000600052603260045260246000fd5b60006040820190506122d66000830185611d42565b6122e36020830184611d42565b9392505050565b7f596f752063616e207769746864726177206d696e696d756d2031204d4154494360008201527f2e20416e797468696e672062656c6f77206973206e6f7420616c6c6f7765642e602082015250565b6000612346604083611ce9565b9150612351826122ea565b604082019050919050565b6000602082019050818103600083015261237581612339565b9050919050565b7f4e487b7100000000000000000000000000000000000000000000000000000000600052601160045260246000fd5b60006123b68261194b565b91506123c18361194b565b9250827fffffffffffffffffffffffffffffffffffffffffffffffffffffffffffffffff038211156123f6576123f561237c565b5b828201905092915050565b7f476976656e20616d6f756e7420657863656564732074686520746f74616c207260008201527f657761726420746f2062652064697374726962757465642066726f6d2074686960208201527f7320636f6e747261637400000000000000000000000000000000000000000000604082015250565b6000612483604a83611ce9565b915061248e82612401565b606082019050919050565b600060208201905081810360008301526124b281612476565b9050919050565b7f576974686472617720616d6f756e742063616e6e6f742062652067726561746560008201527f72207468616e20746f74616c20636c61696d61626c6520616d6f756e74210000602082015250565b6000612515603e83611ce9565b9150612520826124b9565b604082019050919050565b6000602082019050818103600083015261254481612508565b9050919050565b7f43616e206e6f742072656d6f766520616c6c2061646d696e732073696e63652060008201527f636f6e7472616374206265636f6d657320756e757361626c652e000000000000602082015250565b60006125a7603a83611ce9565b91506125b28261254b565b604082019050919050565b600060208201905081810360008301526125d68161259a565b9050919050565b7f5061737365642061646d696e206164647265737320646f6573206e6f7420657860008201527f6973740000000000000000000000000000000000000000000000000000000000602082015250565b6000612639602383611ce9565b9150612644826125dd565b604082019050919050565b600060208201905081810360008301526126688161262c565b9050919050565b600061267a8261194b565b91507fffffffffffffffffffffffffffffffffffffffffffffffffffffffffffffffff8214156126ad576126ac61237c565b5b600182019050919050565b60006126c38261194b565b91506126ce8361194b565b9250828210156126e1576126e061237c565b5b828203905092915050565b7f4e487b7100000000000000000000000000000000000000000000000000000000600052603160045260246000fd5b7f4e487b7100000000000000000000000000000000000000000000000000000000600052602260045260246000fd5b6000600282049050600182168061276257607f821691505b602082108114156127765761277561271b565b5b50919050565b7f5b524241435d203a2041646d696e206d75737420626520213d207468616e203060008201527f7830206164647265737300000000000000000000000000000000000000000000602082015250565b60006127d8602a83611ce9565b91506127e38261277c565b604082019050919050565b60006020820190508181036000830152612807816127cb565b9050919050565b7f5b524241435d203a2041646d696e20616c7265616479206578697374732e0000600082015250565b6000612844601e83611ce9565b915061284f8261280e565b602082019050919050565b6000602082019050818103600083015261287381612837565b9050919050565b7f546869732077616c6c657420686173206265656e207573656420746f2072656760008201527f6973746572206561726c6965722e000000000000000000000000000000000000602082015250565b60006128d6602e83611ce9565b91506128e18261287a565b604082019050919050565b60006020820190508181036000830152612905816128c9565b9050919050565b600081905092915050565b600061292282611acf565b61292c818561290c565b935061293c818560208601611aeb565b80840191505092915050565b60006129548284612917565b915081905092915050565b7f5468697320757365722069642069732072656769737465726564206561726c6960008201527f65722e0000000000000000000000000000000000000000000000000000000000602082015250565b60006129bb602383611ce9565b91506129c68261295f565b604082019050919050565b600060208201905081810360008301526129ea816129ae565b9050919050565b6000819050919050565b6000612a16612a11612a0c846119ee565b6129f1565b6119ee565b9050919050565b6000612a28826129fb565b9050919050565b6000612a3a82612a1d565b9050919050565b612a4a81612a2f565b82525050565b6000606082019050612a656000830186612a41565b8181036020830152612a778185611cfa565b9050612a866040830184611d42565b949350505050565b7f4e487b7100000000000000000000000000000000000000000000000000000000600052601260045260246000fd5b6000612ac88261194b565b9150612ad38361194b565b925082612ae357612ae2612a8e565b5b828204905092915050565b600081905092915050565b50565b6000612b09600083612aee565b9150612b1482612af9565b600082019050919050565b6000612b2a82612afc565b9150819050919050565b7f5472616e73666572206661696c656420647572696e672073656e64696e67204d60008201527f6174696320746f6b656e73000000000000000000000000000000000000000000602082015250565b6000612b90602b83611ce9565b9150612b9b82612b34565b604082019050919050565b60006020820190508181036000830152612bbf81612b83565b905091905056fea2646970667358221220cc3f46e95aed4cf71018fdf67454f071c20a226fc71dab380dc9a30a65ca695864736f6c634300080b0033",
  "immutableReferences": {},
  "source": "// SPDX-License-Identifier: GPL-3.0\n\npragma solidity >=0.7.0 <0.9.0;\n\nimport '@openzeppelin/contracts/utils/math/SafeMath.sol';\n\n/**\n * @title GoArtCampaign\n * @dev Distribute MATIC tokens in exchange for GoArt Colletible Items collected within in the GoArt game.\n */\ncontract GoArtCampaign {\n\t// using SafeMath to prevent underflow & overflow bugs\n\tusing SafeMath for uint256;\n\n\t// contract's states are defined here.\n\tenum State {Active,Closed}\n\n\tState public state = State.Closed;\n\n\tuint256 public maxRewardTotal = 200000 ether;\n\tuint256 public totalDistributedReward;\n\n\t// funding wallet of the contract\n\taddress payable public fundingWallet;\n\n\t// service cost set by us\n\tuint256 fee = 0.1 ether;\n\n\t// min amount\n\tuint256 minimumAmountToWithdraw = 1 ether;\n\n\t// point to reward ratio\n\tuint ratio = 20;\n\n\t// Participant structure for players\n\tstruct Participant {\n\t\tstring userId;\n\t\taddress payable walletAddress;\n\t\tuint256 claimed;\n\t\tuint256 claimable;\n\t}\n\n\t// Store the participants in an array\n\tParticipant[] public participants;\n\n\t// Listing all admins\n\taddress[] public admins;\n\n\t// mappings to store registered wallet addresses\n\tmapping(address => bool) walletsRegistered;\n\n\t// mappings to store registered userIds to prevent same user joining the campaign multiple times.\n\tmapping(string => bool) userIdsRegistered;\n\n\t// Modifier for easier checking if user is admin\n\tmapping(address => bool) public isAdmin;\n\n\t// event for EVM logging\n\tevent ParticipantRegistered(address walletAddress, string userId, uint256 participantIndex);\n\tevent CollectibleItemSwapped(uint256 totalAmount, uint256 participantIndex);\n\tevent MaticWithdrawn(uint256 amount, uint256 participantIndex);\n\n\t// Modifier restricting access to only admin\n\tmodifier onlyAdmin() {\n\t\trequire(isAdmin[msg.sender], 'Only admin can call.');\n\t\t_;\n\t}\n\n\t// Constructor to set initial admins during deployment\n\tconstructor() {\n\t\tfundingWallet = payable(msg.sender);\n\t\tadmins.push(msg.sender);\n\t\tisAdmin[msg.sender] = true;\n\t\ttotalDistributedReward = 0;\n\t}\n\n\t// register a new admin with the given wallet address\n\tfunction addAdmin(address _adminAddress) external onlyAdmin {\n\t\t// Can't add 0x address as an admin\n\t\trequire(_adminAddress != address(0x0), '[RBAC] : Admin must be != than 0x0 address');\n\t\t// Can't add existing admin\n\t\trequire(!isAdmin[_adminAddress], '[RBAC] : Admin already exists.');\n\t\t// Add admin to array of admins\n\t\tadmins.push(_adminAddress);\n\t\t// Set mapping\n\t\tisAdmin[_adminAddress] = true;\n\t}\n\n\t// remove an existing admin address\n\tfunction removeAdmin(address _adminAddress) external onlyAdmin {\n\t\t// Admin has to exist\n\t\trequire(isAdmin[_adminAddress]);\n\t\trequire(admins.length > 1, 'Can not remove all admins since contract becomes unusable.');\n\t\tuint256 i = 0;\n\n\t\twhile (admins[i] != _adminAddress) {\n\t\t\tif (i == admins.length) {\n\t\t\t\trevert('Passed admin address does not exist');\n\t\t\t}\n\t\t\ti++;\n\t\t}\n\n\t\t// Copy the last admin position to the current index\n\t\tadmins[i] = admins[admins.length - 1];\n\n\t\tisAdmin[_adminAddress] = false;\n\n\t\t// Remove the last admin, since it's double present\n\t\tadmins.pop();\n\t}\n\n\t// Fetch all admins\n\tfunction getAllAdmins() external view returns (address[] memory) {\n\t\treturn admins;\n\t}\n\n\t// Set contract State as Active\n\tfunction setStateActive() external onlyAdmin {\n\t\tstate = State.Active;\n\t}\n\n\t// Set contract State as Closed\n\tfunction setStateClosed() external onlyAdmin {\n\t\tstate = State.Closed;\n\t}\n\n\t// Change the contract's max reward amount\n\tfunction changeMaxReward(uint256 _maxReward) external onlyAdmin {\n\t\tmaxRewardTotal = _maxReward;\n\t}\n\n\t// register a user's wallet address if the contract is in Active state.\n\tfunction registerWallet(address payable walletAddress, string memory userId) external onlyAdmin {\n\t\trequire(state == State.Active, \"Contract is not in active state at the moment!\");\n\t\trequire(\n\t\t\t!walletsRegistered[walletAddress],\n\t\t\t'This wallet has been used to register earlier.'\n\t\t);\n\t\trequire(!userIdsRegistered[userId], 'This user id is registered earlier.');\n\n\t\twalletsRegistered[walletAddress] = true;\n\t\tuserIdsRegistered[userId] = true;\n\n\t\tParticipant memory participant = Participant(userId, walletAddress, 0, 0);\n\t\tparticipants.push(participant);\n\n\t\temit ParticipantRegistered(walletAddress, userId, participants.length - 1);\n\t}\n\n\t// A user's collectible items can be swapped to MATIC through this function.\n\tfunction swapCollectibleItemsToMatic(uint256 _collectibleItemAmount, uint256 _participantIndex) external onlyAdmin {\n\t\trequire(state == State.Active, \"Contract is not in active state at the moment!\");\n\t\trequire(_collectibleItemAmount > 0, '_collectibleItemAmount to be swapped has to be greater than 0.');\n\n\t\tParticipant storage participant = participants[_participantIndex];\n\t\tuint256 maticAmount = _collectibleItemAmount.div(ratio);\n\t\tparticipant.claimable = participant.claimable.add(maticAmount);\n\n\t\temit CollectibleItemSwapped(participant.claimable, _participantIndex);\n\t}\n\n\t// return all participants\n\tfunction getAllParticipants() public view returns (Participant[] memory) {\n\t\treturn participants;\n\t}\n\n\tfunction sendMatic(address payable wallet, uint256 amount) internal {\n\t\t(bool success, ) = wallet.call{value: amount}('');\n\t\trequire(success, 'Transfer failed during sending Matic tokens');\n\t}\n\n\tfunction withdrawMaticTokens(uint256 _participantIndex)\n\t\texternal\n\t\tpayable\n\t\tonlyAdmin\n\t{\n\t\trequire(state == State.Active, \"Contract is not in active state at the moment!\");\n\t\trequire(msg.value >= minimumAmountToWithdraw, \"You can withdraw minimum 1 MATIC. Anything below is not allowed.\");\n\n\t\tuint256 amountToBeWithdrawn = msg.value.sub(fee);\n\n\t\trequire(totalDistributedReward + msg.value <= maxRewardTotal, \"Given amount exceeds the total reward to be distributed from this contract\");\n\n\t\tParticipant storage participant = participants[_participantIndex];\n\t\trequire(\n\t\t\tparticipant.claimable.sub(amountToBeWithdrawn) >= 0,\n\t\t\t'Withdraw amount cannot be greater than total claimable amount!'\n\t\t);\n\n\t\t// subtract from claimable amount\n\t\tparticipant.claimable = participant.claimable.sub(msg.value);\n\n\t\t// increase the claimed amount with _amount\n\t\tparticipant.claimed = participant.claimed.add(msg.value);\n\n\t\t// transfer the funds\n\t\tsendMatic(participant.walletAddress, amountToBeWithdrawn);\n\t\t// get the service fee\n\t\tsendMatic(fundingWallet,fee);\n\n\t\ttotalDistributedReward = totalDistributedReward.add(msg.value);\n\n\t\temit MaticWithdrawn(msg.value, _participantIndex);\n\t}\n}\n",
  "sourcePath": "/Users/tunahandag/Documents/RoofStacks/move-to-earn-event-smart-contracts/contracts/GoArtCampaign.sol",
  "compiler": {
    "name": "solc",
    "version": "0.8.11+commit.d7f03943.Emscripten.clang"
  },
  "schemaVersion": "3.4.4",
  "updatedAt": "2022-02-16T12:26:51.725Z",
  "networkType": "ethereum",
  "devdoc": {
    "details": "Distribute MATIC tokens in exchange for GoArt Colletible Items collected within in the GoArt game.",
    "kind": "dev",
    "methods": {},
    "title": "GoArtCampaign",
    "version": 1
  },
  "userdoc": {
    "kind": "user",
    "methods": {},
    "version": 1
  }
}